:020000040800F2
:10000000C0900020D9C90008D1020008D30200081E
:10001000D7020008DB020008DF0200080000000031
:10002000000000000000000000000000E3020008E3
:10003000E5020008000000001BCB000851C70008C3
:10004000F3C90008F3C90008F3C90008F3C90008A0
:10005000F3C90008F3C90008790300087B0300080E
:100060007D0300087F03000881030008F3C900082E
:10007000F3C90008F3C90008F3C90008F3C9000870
:10008000F3C90008F3C90008F3C90008F3C9000860
:10009000F3C90008F3C90008F3C900088303000886
:1000A000F3C90008F3C90008F3C90008F3C9000840
:1000B000F3C90008F3C90008F3C90008F3C9000830
:1000C000F3C90008F3C90008F3C90008F3C9000820
:1000D000F3C90008510400086905000893060008E8
:1000E00085030008F3C90008F3C90008F3C9000834
:1000F000F3C90008F3C90008F3C90008F3C90008F0
:10010000F3C90008F3C90008F3C90008F3C90008DF
:10011000E30700080B090008F3C90008F3C9000849
:10012000F3C90008F3C90008F3C90008F3C90008BF
:1001300000F002F800F04AF80AA090E8000C8244AF
:100140008344AAF10107DA4501D100F03FF8AFF28C
:10015000090EBAE80F0013F0010F18BFFB1A43F0A5
:1001600001031847DCCD0000FCCD00000A4410F864
:10017000014B14F00F0508BF10F8015B240908BFFC
:1001800010F8014B6D1E05D010F8013B6D1E01F8F3
:10019000013BF9D1641E03D0641E01F8015BFBD161
:1001A0009142E4D37047000000230024002500267C
:1001B000103A28BF78C1FBD8520728BF30C148BFCA
:1001C0000B6070471FB51FBD10B510BD0CF059FC7A
:1001D0001146FFF7F7FF00F008F80CF077FC03B4C6
:1001E000FFF7F2FF03BC0CF07FFC10B500F03AF80B
:1001F000002010BD10B501F04DFF10BD70477047D5
:100200000EB500F07EF801F0E9FF00F088F8044632
:1002100026480068B4FBF0F528460CF0B7FA02F067
:100220009DFA02A808F024FD02F076F8FFF7E7FF38
:10023000FFF7E4FF0020009008230B220C2101901F
:1002400040F2E47000F0DDFC00BF194800F0B8FD9A
:1002500002A800210B460122CDE9001008460BF050
:10026000CEFAF2E700B58BB0FFF7C4FF0AA804F09E
:1002700035F80AA8032100220592CDE9062108904D
:10028000052080210C220B4BCDE90132CDE9031072
:1002900002200023084A09A100900C4809F01FF928
:1002A0000AA804F0FEFA0BB000BD000090CD0008D3
:1002B00000000020000200200102000841707020B0
:1002C0005461736B20537461727400003801002014
:1002D000704700BFFEE700BFFEE700BFFEE700BFBC
:1002E000FEE770477047000010B50446052C06D1A4
:1002F00020211B4800F0ADFF00B900BF00BF00BFC8
:1003000010BD10B54FF4C06000F0E0FD00F043F800
:1003100000F0D5F800F076FB00F0C9FC10BD00B588
:1003200085B0684601F0B7F9019805B000BD10B579
:100330000C48006840F080700A49086000200A49B3
:1003400048600846006840F001000860FFF7E7FFDA
:100350000446204601F0BDFF10BD034840687047C9
:1003600000180140FCED00E0001000E0704770470D
:1003700070470246002070477047704770477047CB
:100380007047704770470000FE4B1860FE4B1960C5
:10039000FE4B1A60704700B587B00121880301F059
:1003A000E7F901217D2001F0E3F94FF40070ADF889
:1003B000180003208DF81A0018208DF81B0006A9DC
:1003C000F34800F0B3FE4FF48060ADF8180003204E
:1003D0008DF81A0048208DF81B0006A9EC4800F0A3
:1003E000A5FE25208DF8040000208DF805000120D1
:1003F0008DF806008DF8070001A800F06CFD4FF4A1
:10040000E13002900020ADF80C00ADF80E00ADF820
:100410001000ADF814000C20ADF8120002A9DD4860
:1004200001F077FC0121DB4801F0FFFC4021D948B5
:1004300001F0E3FD012240F22551D64801F001FD13
:10044000002240F22771D34801F0FBFC07B000BD49
:1004500010B5002440F22551CE4801F0D7FD80B1FF
:10046000CC4801F053FDC4B2C748006820B1214612
:100470000020C54A1268904740F22551C54801F056
:10048000EFFD40F22771C34801F0C0FDB0B1BD4897
:10049000006870B121460020BA4A1268904720B91E
:1004A0002146BC4801F02EFD03E00020B749096851
:1004B000884740F22771B74801F0D2FD10BD00B562
:1004C00087B00121480401F060F901217D2001F08D
:1004D0004FF926208DF8040000208DF8050001203A
:1004E0008DF806008DF8070001A800F0F4FC042048
:1004F000ADF8180003208DF81A0018208DF81B00A5
:1005000006A9A34800F012FE0820ADF81800032049
:100510008DF81A0048208DF81B0006A99C4800F0B1
:1005200005FE4FF4E13002900020ADF80C00ADF86C
:100530000E00ADF81000ADF814000C20ADF812005C
:1005400002A9954801F0E5FB0121934801F06DFCFB
:100550004021914801F051FD012240F225518E4881
:1005600001F06FFC07B000BD10B5002440F225512A
:10057000894801F04BFD80B1874801F0C7FCC4B247
:100580008148006820B1214601207F4A12689047C7
:1005900040F22551804801F063FD40F227717E480A
:1005A00001F034FDE0B177480068A0B12146012098
:1005B000744A1268904720B92146774801F0A2FC9E
:1005C00009E0002240F22771734801F03AFC012053
:1005D0006E490968884740F227716F4801F040FD75
:1005E00010BD00B587B00121880401F0CEF80121CB
:1005F0007D2001F0BDF827208DF8040000208DF843
:10060000050002208DF8060001208DF8070001A8E2
:1006100000F061FC4FF48060ADF8180003208DF805
:100620001A0018208DF81B0006A95C4800F07EFD1A
:100630004FF40060ADF8180003208DF81A00482030
:100640008DF81B0006A9554800F070FD4FF4E1300D
:1006500002900020ADF80C00ADF80E00ADF81000CF
:10066000ADF814000C20ADF8120002A94C4801F0BE
:1006700050FB01214A4801F0D8FB4021484801F0D5
:10068000BCFC012240F22551454801F0DAFB07B0DD
:1006900000BD10B5002440F22551414801F0B6FCE0
:1006A00080B13F4801F032FCC4B23748006820B145
:1006B00021460220344A1268904740F225513848BA
:1006C00001F0CEFC40F22771354801F09FFCE0B10B
:1006D0002C480068A0B1214602202A4A126890479F
:1006E00020B921462E4801F00DFC09E0002240F21D
:1006F00027712B4801F0A5FB02202449096888478F
:1007000040F22771264801F0ABFC10BD00B587B060
:100710000121C80401F039F801217D2001F028F8F9
:1007200034208DF8040000208DF8050003208DF89A
:10073000060001208DF8070001A800F0CCFB4FF463
:100740008060ADF8180003208DF81A0018208DF88D
:100750001B0006A9134800F0E9FC4FF40060ADF857
:10076000180003208DF81A0048208DF81B0006A9F8
:100770000C4800F0DBFC4FF4E13002900020ADF8B3
:100780000C0011E0080000200C00002010000020E8
:10079000000801400038014000440040000C0140C6
:1007A0000048004000100140ADF80E00ADF8100008
:1007B000ADF814000C20ADF8120002A9894801F030
:1007C000A8FA0121874801F030FB4021854801F05B
:1007D00014FC012240F22551824801F032FB07B09F
:1007E00000BD10B5002440F225517E4801F00EFCFA
:1007F00080B17C4801F08AFBC4B27B48006820B11C
:1008000021460320784A1268904740F225517548E6
:1008100001F026FC40F22771724801F0F7FBE0B1CD
:1008200072480068A0B121460320704A12689047C0
:1008300020B921466B4801F065FB09E0002240F237
:100840002771684801F0FDFA032069490968884763
:1008500040F22771634801F003FC10BD00B587B07A
:100860000121080500F091FF01217D2000F080FFAB
:1008700035208DF8040000208DF8050004208DF847
:10088000060001208DF8070001A800F024FB4FF4BA
:100890008050ADF8180003208DF81A0018208DF84C
:1008A0001B0006A9534800F041FC0420ADF81800D5
:1008B00003208DF81A0048208DF81B0006A94E4829
:1008C00000F034FC4FF4E13002900020ADF80C0051
:1008D000ADF80E00ADF81000ADF814000C20ADF826
:1008E000120002A9454801F014FA0121434801F021
:1008F0009CFA4021414801F080FB012240F2255141
:100900003E4801F09EFA07B000BD10B5002440F249
:1009100025513A4801F07AFB80B1384801F0F6FAE7
:10092000C4B23148006820B1214604202E4A126822
:10093000904740F22551314801F092FB40F2277177
:100940002E4801F063FBE0B128480068A0B12146C1
:100950000420264A1268904720B92146274801F012
:10096000D1FA09E0002240F22771244801F069FA27
:1009700004201F490968884740F227711F4801F089
:100980006FFB10BD2DE9F04186B004460E461746B8
:100990000025A84614221A4901A80CF03DF800BF12
:1009A0001CE04FF000080AE0404608F1010840F65C
:1009B000B831884203D9012006B0BDE8F08101A911
:1009C00051F82400402101F00BFB0128ECD1715DAE
:1009D00001AA52F8240001F095FA6D1CBD42E0D343
:1009E0000020E9E7004C00400C0000200800002037
:1009F0001000002000100140001401400050004091
:100A00007CCB000800B587B00121080300F0B0FEE0
:100A100001217D2000F0ACFEE020ADF804000320B1
:100A20008DF8060018208DF8070001A9624800F033
:100A30007DFB1020ADF8040003208DF80600102087
:100A40008DF8070001A95C4800F070FB10215A489E
:100A500000F019FC0020ADF808004FF48270ADF8EA
:100A60000A000020ADF80C000220ADF80E000120B5
:100A7000ADF810004002ADF812000820ADF81400E7
:100A80000020ADF816000720ADF8180002A94B4869
:100A900000F09CFF0121494801F03DF807B000BD7E
:100AA00010B5044600BF0221444801F0B8F8002800
:100AB000F9D02146414801F05FF800BF01213F48CD
:100AC00001F0ADF80028F9D03C4801F057F8C0B269
:100AD00010BD10B5A520FFF7E3FF10BD00B587B02E
:100AE0000121880300F051FE01217D2000F040FE2D
:100AF0004FF46040ADF8040003208DF80600182084
:100B00008DF8070001A92E4800F010FB4FF480502B
:100B1000ADF8040003208DF8060010208DF80700C2
:100B200001A9274800F002FB1021234800F0ABFB8D
:100B30000020ADF808004FF48270ADF80A000020E4
:100B4000ADF80C000220ADF80E000120ADF8100049
:100B50004002ADF812000820ADF814000020ADF8F6
:100B600016000720ADF8180002A9164800F02EFF65
:100B70000121144800F0CFFF07B000BD10B50446B6
:100B800000BF02210F4801F04AF80028F9D02146A1
:100B90000C4800F0F1FF00BF01210A4801F03FF8C6
:100BA0000028F9D0074800F0E9FFC0B210BD10B529
:100BB000A520FFF7E3FF10BD000801400030014011
:100BC000000C0140003800400146CA1701EB927248
:100BD0009210A1EB820292B9642091FBF0F200FB2B
:100BE000121050B94FF4C87091FBF0F200FB1210D4
:100BF00008B9012070470020FCE70120FAE7002037
:100C0000F8E72DE9F05F06460F4690469946DDE984
:100C10000AAB002440F2B270864203DB40F6330098
:100C2000864202DD0120BDE8F09F40F2B2750AE085
:100C30002846FFF7C9FF10B19C48044401E09C48D6
:100C40000444681C85B2B542F2DB781EC7B20025A9
:100C500010E09848405D40F2A321484304EBC014E3
:100C60003046FFF7B1FF18B1012D01D1924804447D
:100C7000681C85B2BD42ECDBA8F1010040F2A32163
:100C8000484304EBC014C9EB4910C0EB092004EB46
:100C90000014CAEB0A1004EB80045C4400F028FE48
:100CA000204600F0F2FD00F023FE0020BBE71CB55B
:100CB00001214FF0C05000F068FD012000F08FFBD3
:100CC000042000F0A6F94AF2A551884201D1002083
:100CD0001CBD00F069F9012000F0B7FC00BF412005
:100CE00000F01BFC0028FAD04FF4807000F0C9FC23
:100CF000012000F0CCFC00F0FBFD00F002FE00F053
:100D0000F7FD0121084600F097FD00F0F1FD00F02D
:100D1000A0FD47F6FF7000F0C5FD00F0E9FD0020E2
:100D20000090082301221146019040F2B270FFF7B3
:100D300068FF00F097FD4AF2A551042000F05DF92C
:100D40000020C5E7FEB503460C4615460FF26C1CA5
:100D50009CE881108DE88110642093FBF0F0C6B20E
:100D6000642093FBF0F700FB1730C1B2132E02DDB5
:100D700001F16400C1B20846CF1701EB977701EB90
:100D8000A707BAB2072092FBF0F700FB172082B248
:100D90005719601E1DF80000384482B2CF1701EBCE
:100DA0009777BF10A1EB87071FB9032C01DA501EFC
:100DB00082B2072092FBF0F700FB1720C0B2FEBD05
:100DC0002DE9F041054600270024002615B9012031
:100DD000BDE8F08100F050FD07463748B7FBF0F45E
:100DE00039480088A04239D037490C8040F2B276A9
:100DF00010E03046FFF7E8FE40B1B4F5B77F02D30C
:100E0000A4F5B77404E0701C86B206E0A4F26D1479
:100E1000701C86B2B4F5B67FEBD800BF2E800026DA
:100E200015E02888FFF7D0FE30B1012E04D11D2C2B
:100E300001D31D3C09E00CE01E48805DA04203D8B0
:100E40001C48805D241A00E003E0701C86B21C2C54
:100E5000E7D200BF701CA870601CE8701648B7FB92
:100E6000F0F100FB11744FF46160B4FBF0F06871B5
:100E70004FF46160B4FBF0F100FB11403C21B0FB8A
:100E8000F1F0A8714FF46160B4FBF0F100FB114088
:100E90003C21B0FBF1F201FB1200E871EA78A9787D
:100EA0002888FFF74FFF2871002091E70085E201B5
:100EB0008033E10190CB000880510100000303065C
:100EC0000104060205000305140000203149014316
:100ED000314A1160704770B5002100230F22C47899
:100EE00004B32D4C246804F4E064C4F5E064210AE2
:100EF000C1F10403CA40447804FA03F18478144031
:100F000021430901254C0678A155047804F01F05FA
:100F10000124AC4005786D11AD0005F1E025C5F860
:100F2000004109E0047804F01F050124AC401C4D89
:100F30000678761145F8264070BD1A4A0A400243E9
:100F4000154B1B1F1A60704739B1134A121D1268E6
:100F50000243114B1B1D1A6006E00F4A121D126856
:100F600082430D4B1B1D1A607047042808D14FF0B7
:100F7000E021096941F004014FF0E022116107E02E
:100F80004FF0E021096921F004014FF0E0221161E6
:100F9000704700000000FA050CED00E000E400E0FE
:100FA00080E100E080FFFF1F10B5012000F014FC7D
:100FB000002000F011FC10BD2A4908607047294943
:100FC000091F08607047274984310860704701464F
:100FD0000020254A10884FF67F4210400843224ADD
:100FE00010807047014600201F4A10884FF680721B
:100FF000104008431C4A1080704708B50022009238
:10100000194A2C3A0092009A02440092009A116008
:1010100008BD08B501460020009013482C38009008
:101020000098084400900098008808BD0D489C3046
:101030000068C0B270470C480830008840F00100DA
:1010400009490831088070470648A0300068C0B2DE
:10105000704705480830008840F002000249083116
:101060000880704704860D422C6C004010B5044681
:10107000CC48844208D10121042000F093FB0021D8
:10108000042000F08FFB46E0C748844208D10121CC
:10109000082000F087FB0021082000F083FB3AE0E5
:1010A000C248844208D10121102000F07BFB0021BE
:1010B000102000F077FB2EE0BD48844208D10121CA
:1010C000202000F06FFB0021202000F06BFB22E0CD
:1010D000B848844208D10121402000F063FB002180
:1010E000402000F05FFB16E0B348844208D10121A4
:1010F000802000F057FB0021802000F053FB0AE025
:10110000AE48844207D10121801500F04BFB00213D
:10111000A01500F047FB10BD10B50121084600F0F6
:1011200041FB0021012000F03DFB10BD2DE9F04105
:10113000024600250026002000230024002791F805
:1011400003C00CF00F0591F803C00CF0100CBCF1BB
:10115000000F03D091F802C04CEA050591F800C0D9
:10116000BCF1000F31D0146800202BE04FF0010CCF
:101170000CFA00F3B1F800C00CEA03069E4220D13D
:1011800083004FF00F0C0CFA03F7BC4305FA03FC85
:101190004CEA040491F803C0BCF1280F06D14FF0CB
:1011A000010C0CFA00FCC2F814C00AE091F803C06C
:1011B000BCF1480F05D14FF0010C0CFA00FCC2F84D
:1011C00010C0401C0828D1D31460B1F800C0BCF195
:1011D000FF0F34DD546800202EE000F1080C4FF0C2
:1011E000010808FA0CF3B1F800C00CEA03069E42AD
:1011F00021D183004FF00F0C0CFA03F7BC4305FA22
:1012000003FC4CEA040491F803C0BCF1280F05D19B
:1012100000F1080C08FA0CF8C2F8148091F803C029
:10122000BCF1480F07D100F1080C4FF0010808FA93
:101230000CF8C2F81080401C0828CED35460BDE8DA
:10124000F0814FF6FF710180022181700421C1708D
:1012500070470246002093680B400BB1012000E06C
:10126000002070470146886880B27047024600201F
:10127000D3680B400BB1012000E00020704701460D
:10128000C86880B2704701617047416170470AB118
:10129000016100E041617047C16070474FF48032E6
:1012A0000A43826181618261826982697047024674
:1012B0000020434B18684FF68073184040EA021034
:1012C00008433F4B186070473E49C8617047F0B50E
:1012D0000A46002300240021002500F00046B6F154
:1012E000004F02D1364EF16901E0354E7168C0F30E
:1012F000034583B200F44016B6F5401F08D121F033
:1013000070612F4E766826F070662D4F7E6012E079
:1013100000F48016B6F5801F06D1032606FA05F400
:10132000A14341F0706106E0460D360103FA06F66E
:10133000B14341F0706122B1460D360103FA06F661
:10134000314300F00046B6F1004F02D11C4EF1616E
:1013500001E01B4E7160F0BD30B500228B071C0F01
:101360000F2303FA04F2164B08338C1053F8243081
:101370009343134C08348D1044F8253023468C10C9
:1013800053F824308C07240F00FA04F423430C4C48
:1013900008348D1044F8253030BD0A49DC3108602E
:1013A0007047000000080140000C0140001001409F
:1013B0000014014000180140001C014000200140C1
:1013C000000001400000204210B50121080700F094
:1013D000F6F900214FF0805000F0F1F910BD2A49D4
:1013E0000862704728490861704701460020274A73
:1013F000106820F0E0000843106070472249A031D7
:101400000860704710B502460020204B186820F095
:101410000300104318601E4B1B6843F004031C4C70
:101420002360012901D130BF00E020BF184B1B68A9
:1014300023F00403164C236010BD1448006840F0EC
:101440000400124908600846006840F00200086085
:101450000F48006840F004000D49086000BF00BF5D
:1014600030BF704701460020084A52680A400AB15E
:10147000012000E0002070470449096841EA80012A
:10148000024A11607047000000000E4200700040E8
:1014900010ED00E0DF48006840F00100DD49086021
:1014A00008464068DC490840DA4948600846006858
:1014B000DA490840D74908600846006820F48020CF
:1014C00008600846406820F4FE0048604FF41F00A2
:1014D00088607047CF49096821F48031CD4A116096
:1014E0001146096821F480211160B0F5803F03D0D6
:1014F000B0F5802F0ED106E0C649096841F480316D
:10150000C44A116007E0C349096841F4A021C14AF7
:10151000116000E000BF00BF704710B50146002217
:10152000002300204A11012A02D1BA4C236806E0A8
:10153000022A02D1B74C236A01E0B64C636A01F07B
:101540001F02012494401C400CB1012000E0002047
:1015500010BD38B5002000900024002500BF3120C8
:10156000FFF7DBFF05460098401C00900098B0F59F
:10157000A06F01D0002DF2D03120FFF7CEFF08B1CF
:10158000012400E00024204638BD01460020A14A85
:10159000106820F0F80040EAC10010607047A049D0
:1015A00008607047024600209A4B586820F47C106F
:1015B00042EA01031843974B586070479849086600
:1015C000704701460020934A506820F0030008430A
:1015D000506070478F48406800F00C00704701462B
:1015E00000208C4A506820F0F0000843506070479B
:1015F00001460020874A506820F4E06008435060AC
:10160000704701460020834A506820F4605040EA49
:10161000C1005060704729B17E4A527A02437D4B27
:101620005A7204E07B4A527A82437A4B5A7270476C
:101630007B49D8310860704701460020754A5068E0
:1016400020F440400843506070470021714A203226
:101650001170704A82F82010012802D004280AD1A3
:1016600004E001216B4A2032117005E00521694A2E
:101670002032117000E000BF00BF70476949086068
:1016800070476449096A0143624A116270476549BB
:1016900044390860704730B500210022002400233F
:1016A0005C4D6D6805F00C0121B1042905D00829B5
:1016B00023D105E05C4D056022E05B4D05601FE035
:1016C000544D6D6805F47012524D6D6805F4803408
:1016D000022505EB92421CB9544D554305600BE0C1
:1016E0004C4D6D6805F400351DB1504D55430560F6
:1016F00002E04D4D5543056002E04B4D056000BFD3
:1017000000BF444D6D6805F0F0010909484D6B5C60
:101710000568DD4045603F4D6D6805F4E061090AEC
:10172000434D6B5C4568DD4085603A4D6D6805F45E
:101730006051C90A3E4D6B5C4568DD40C560354D62
:101740006D6805F44041890B3A4D6B5CC568B5FB8B
:10175000F3F5056130BD29B12E4A526902432D4B84
:101760005A6104E02B4A526982432A4B5A617047FE
:1017700029B1284A92690243264B9A6104E0254A1E
:1017800092698243234B9A61704729B1214AD269F9
:101790000243204BDA6104E01E4AD26982431D4BAA
:1017A000DA61704729B11B4AD2680243194BDA60EB
:1017B00004E0184AD2688243164BDA60704729B1B8
:1017C000144A12690243134B1A6104E0114A126968
:1017D0008243104B1A6170471249403908607047C4
:1017E0000F49C86470470B49C87170470948406A7F
:1017F00040F0807007494862704701460020054A62
:1018000092680A400AB1012000E0002070470149B7
:1018100088727047001002400000FFF8FFFFF6FEDC
:10182000000042428004424200127A0000093D005A
:10183000160000202600002029B1504A12880243D9
:101840004E4B1A8004E04D4A128882434B4B1A805B
:1018500070474A48001D008840F010004749091DA4
:10186000088070474548001D00884FF6EF7108401A
:101870004249091D08807047002140481C300188FA
:10188000001F008841EA0040704700B50246FFF79C
:10189000E0FF100C394918310880091D0A80FFF754
:1018A000E1FF00BD00B50246FFF7D3FFC2F30340DE
:1018B000324908310880091D0A80FFF7D3FF00BDB7
:1018C00000B50246FFF7C5FF100C2C4920310880F7
:1018D000091D0A80FFF7C6FF00BD0020274910310F
:1018E00009880907080B25491431098808437047FE
:1018F00000BF2248001D008800F020000028F8D01A
:1019000070471E48001D00884FF6F77108401B49BC
:10191000091D088000BF1948001D008800F008005C
:101920000028F8D0704701460020144A121D128882
:101930000A400AB1012000E0002070470F49091D4C
:10194000098881430D4A121D11807047014600200D
:101950000A4A121D12880A40D0B2084A12880A4068
:1019600012B108B1012000E0002070470349091DB1
:1019700009888143014A121D1180704700280040E8
:1019800010B50446BE48844208D101218014FFF7F7
:1019900009FF0021A014FFF705FF16E0B9488442B3
:1019A00008D101210014FFF70AFF00212014FFF7DE
:1019B00006FF0AE0B448844207D10121C013FFF7B3
:1019C000FEFE0021E013FFF7FAFE10BD10B5002265
:1019D000028802F441520B884C8823438C882343AD
:1019E000CC8823430C8923434C8923438C8923438C
:1019F000CC8923431A430280838B4FF2FF74234028
:101A000083830B8A038210BD2DE9F04F85B0054614
:101A10000C464FF0000902274FF000084FF0010B71
:101A20000026B246A88B4FF240010840A88302204E
:101A30002884B5F81C90A068022801D100BF38E0C6
:101A4000A08810B94FF0010B01E04FF0020B8D4858
:101A5000854200D100E000BF6846FFF71CFEDDF8BC
:101A600000A0E088B0F5007F0AD14FEA1A2000EB11
:101A700080004000A168B0FBF1F0401D86B20BE091
:101A80004FEA4B10BAFBF0F000EB80004000A16879
:101A9000B0FBF1F0401D86B20A20B6FBF0F606F06E
:101AA0000108A6EB0800C0F34F074FF6FF7000EAED
:101AB0000828022F01DBFF2F02DD02274FF000086C
:101AC000E08840EA080038432884A088A1890843B8
:101AD000618808432188084340F4006040EA09090E
:101AE000A5F81C9005B0BDE8F08F00210180418071
:101AF0008180C180018141818181C1810721018271
:101B000070470021018041808180C1800221816075
:101B100000218181704721B1028842F04002028099
:101B200004E002884FF6BF731A400280704721B16B
:101B3000828B42F48062828304E0828B4FF6FF3313
:101B40001A408283704730B5002400230C11012510
:101B5000A540ABB21AB185881D43858002E0858817
:101B60009D43858030BD1AB183880B43838002E09A
:101B700083888B43838070478181704701468889C1
:101B800070474FF6FF62914204D0028842F480729F
:101B9000028004E002884FF6FF631A40028070471B
:101BA00021B1828842F00402828004E082884FF6EC
:101BB000FB731A408280704702884FF2FF731A400D
:101BC000028002880A4302807047018841F48051F4
:101BD0000180704721B1028842F40052028004E083
:101BE00002884DF6FF731A400280704702460020BB
:101BF000012901D0108B00E0908A70470146088AC5
:101C00007047B1F5804F04D1028842F480420280CF
:101C100004E002884BF6FF731A40028070470246C8
:101C2000002013890B400BB1012000E00020704719
:101C3000CA4302817047F0B5024600200024002309
:101C4000002501F00F070126BE40B4B20B1101269A
:101C50009E40B3B2968806EA03051689264016B15F
:101C60000DB1012000E00020F0BD10B5002201F010
:101C70000F040123A3409AB2D343038110BD000097
:101C80000030014000380040003C004010B50446E0
:101C9000FB48844209D101218803FFF783FD00211D
:101CA0004FF48040FFF77EFD32E0F648844209D1D0
:101CB00001214804FFF783FD00214FF40030FFF7B6
:101CC0007EFD25E0F048844209D101218804FFF718
:101CD00076FD00214FF48020FFF771FD18E0EB48FE
:101CE000844209D10121C804FFF769FD00214FF4A6
:101CF0000020FFF764FD0BE0E548844208D1012194
:101D00000805FFF75CFD00214FF48010FFF757FD39
:101D100010BD2DE9F04786B005460E460024A246C8
:101D200000BFA1460027B08900B100BF2F462C8A12
:101D30004CF6FF700440F08804432C82AC894EF6C8
:101D4000F3100440B0883189084371890843044383
:101D5000AC81AC8A4FF6FF400440B0890443AC82AA
:101D600001A8FFF798FCC648874202D1DDF810A011
:101D700001E0DDF80CA0A88900F4004040B10AEBB6
:101D8000CA0000EB0A1031684900B0FBF1F807E027
:101D90000AEBCA0000EB0A1031688900B0FBF1F8C9
:101DA0006420B8FBF0F004012009642101FB1089D4
:101DB000A88900F4004040B1322000EBC900B0FB1C
:101DC000F1F000F00700044308E0322000EB0910B6
:101DD0006421B0FBF1F000F00F0004432C8106B049
:101DE000BDE8F0874FF41651016000218180C18069
:101DF00001810C21418100218181704710B502468B
:101E00000020108A4FF2FF0318400B884C882343B0
:101E10008C882343CC8823431843108210BD0021B3
:101E2000018041808180C180704721B1828942F464
:101E30000052828104E082894DF6FF731A4082814C
:101E40007047F0B50346002400260025002040F628
:101E50006A17B94200D100BF1846C1F3421401F01D
:101E60001F06012707FA06F5012C01D10C3004E00A
:101E7000022C01D1103000E014301AB107682F4352
:101E8000076002E00768AF430760F0BD1AB1838ABC
:101E90000B43838202E0838A8B4383827047028AEA
:101EA0004FF6F0731A400282028A0A430282704798
:101EB00082894FF2FF731A40828182890A438281AC
:101EC000704721B1828942F00202828104E0828956
:101ED0004FF6FD731A4082817047028A4FF6DF7316
:101EE0001A400282028A0A430282704721B1028AA2
:101EF00042F48042028204E0028A4BF6FF731A40E9
:101F000002827047C1F308028280704701468888C8
:101F1000C0F308007047818941F001018181704759
:101F2000028BD2B20283028B42EA01220283704703
:101F3000028B02F47F420283028B0A4302837047C2
:101F400021B1828A42F02002828204E0828A4FF626
:101F5000DF731A408282704721B1828A42F01002F8
:101F6000828204E0828A4FF6EF731A4082827047C1
:101F700021B1828A42F00802828204E0828A4FF60E
:101F8000F7731A408282704721B1828942F400427D
:101F9000828103E08289C2F30E028281704721B1FF
:101FA000828A42F40062828204E0828A4FF2FF73E6
:101FB0001A4082827047828A4FF6FB731A408282EF
:101FC000828A0A438282704721B1828A42F00202E9
:101FD000828204E0828A4FF6FD731A408282704743
:101FE00002460020B1F5007F00D100BF13880B40EE
:101FF0000BB1012000E00020704701F40072B2F53F
:10200000007F00D100BFCA430280704770B502460E
:10201000002400230025002040F66A16B14200D1BA
:1020200000BFC1F3421501F01F03012606FA03F3B6
:10203000012D02D19689334006E0022D02D1168A85
:10204000334001E0968A33400C12012606FA04F46C
:102050001688344013B10CB1012000E0002070BD9F
:1020600010B50022002340F66A14A14200D100BF3F
:102070000A1201249440A3B2DC43048010BD000086
:10208000003801400044004000480040004C00403F
:102090000050004072B6704762B67047EFF3108090
:1020A00072B6704780F31088704730BF704720BF0A
:1020B0007047B0FA80F0704790FAA0F0B0FA80F064
:1020C000704790FAA0F0704710B5FB480088401E9A
:1020D000F949088008460088A0B9FEF73EF9F7499B
:1020E000086008460068F6490968441AF54800681F
:1020F000A04201D2F3480460F3480068A04201D234
:10210000F148046010BD10B5F0480088401CEF494C
:102110000880E948008818B9FEF71FF9E849086007
:10212000E5480088401CE449088010BD10B5002433
:1021300000BF00BFFFF7B2FF044600BFFFF7E3FF99
:1021400000BF1021E24800F055FB00BFFFF7BCFFC5
:1021500000BF2046FFF7A6FF00BF00BF10BD10B5AF
:10216000FFF7E4FF10BD70B500260020D7490880B6
:10217000D1490880D2490860D0490860D149086037
:10218000D1490860D3490860002400BFFFF786FFEB
:10219000064600BF00250BE00020CA490860FFF793
:1021A000B2FFFFF791FFC74800680444681C85B27E
:1021B000002DF1D0C74804600020C2490860C24920
:1021C000086000BF3046FFF76DFF00BF70BD10B55F
:1021D0000020C1490860FEF7AAF810BD10B5FFF74E
:1021E000F6FFFFF7C0FFFFF7BAFF10BD00BFFEE725
:1021F00070B505460C46002614B900BFFFF7F6FF80
:1022000015B90A20208070BD00BF00BFFFF746FF50
:10221000064600BFFFF777FF00BF1022AC492846F3
:1022200001F07AFA00BFFFF74FFF00BF3046FFF71B
:1022300039FF00BF00BF0020208000BFE3E72DE989
:10224000F04105460C46002714B900BFFFF7CEFF4A
:102250001DB90A202080BDE8F0811021284601F038
:1022600043FA0646102E19D200BF00BFFFF716FF33
:10227000074600BFFFF747FF00BF102229469448DA
:1022800001F04AFA00BFFFF71FFF00BF3846FFF713
:1022900009FF00BF00BF0020208002E04FF47A70E9
:1022A000208000BFD7E710B5FEF757F80446204658
:1022B00010BD704700B5014611B900BFFFF796FF8A
:1022C000854A106808B1002201E04FF4FA620A80E2
:1022D00000BD814908607047014608467D4A126882
:1022E000904203D97B4A1268801A00E000207047B0
:1022F00070B5002500BFFFF7D1FE054600BF71484D
:10230000046800BF2846FFF7CDFE00BF2046FFF758
:10231000E3FF0646304670BD70B50025FFF7E8FFC5
:10232000044600BFFFF7BAFE054600BF002065491E
:10233000086000BF2846FFF7B5FE00BF204670BD0D
:1023400070B5002500BFFFF7A9FE054600BF5E4837
:10235000046800BF2846FFF7A5FE00BF2046FFF730
:10236000BBFF0646304670BD70B505462846FFF7F0
:10237000A0FE0446183C204670BD70B505462846B0
:10238000FFF797FE0446103C204670BD70B5054629
:102390002846FFF78EFE044600BF204670BD30B5CC
:1023A00002460B460024D2F1FF359C4126D24FF65F
:1023B000FF74D2F1FF359C410FD26FF07F44D2F110
:1023C000FF359C4103D2190E444C605C44E0190C6B
:1023D000424C645C04F108003EE0FF24D2F1FF357A
:1023E0009C4105D2190A3D4C645C04F1100033E0B5
:1023F00019463A4C645C04F118002DE04FF6FF7565
:102400000024AD1A9C4115D26FF07F450024AD1A0F
:102410009C4107D2140E44EA0321304C645C04F161
:10242000200019E0140C44EA03412C4C645C04F1D4
:10243000280011E00024D2F1FF059C4107D2140AC4
:1024400044EA0361254C645C04F1300004E0114669
:10245000224C645C04F1380030BD70B504460CB900
:10246000082070BD2046FFF727FE05462846F8E7FE
:1024700070B504460CB9102070BD2046FFF71CFE55
:1024800005462846F8E770B504460CB9202070BD13
:102490002046FFF711FE05462846F8E72DE9F043F0
:1024A00004460D46002184EA01006940084317D123
:1024B0004020BDE8F08300003200002038000020FA
:1024C00034000020400000204400002030000020A4
:1024D000000400203C0000202C0000209CCB0008C1
:1024E000E243E843521C40F1000102EA040601EA1B
:1024F000050730463946FFF752FF8046C8F13F09CD
:102500004846D6E70146412903DB5A2901DC01226E
:1025100000E00022012A08D0612903DB7A2901DCCE
:10252000012200E00022012A01D1012200E0002264
:10253000104670470146412903DB5A2901DC01227C
:1025400000E00022012A08D0612903DB7A2901DC9E
:10255000012200E00022012A01D1012200E0002234
:10256000012A08D0302903DB392901DC012200E0EF
:102570000022012A01D1012200E00022104670470A
:102580000146612903DB7A2901DC012200E00022F7
:10259000104670470146412903DB5A2901DC01221C
:1025A00000E00022104670470146302903DB39293C
:1025B00001DC012200E0002210467047014630296C
:1025C00003DB372901DC012200E0002210467047BE
:1025D0000146302901DB392907DD412901DB462984
:1025E00003DD612903DB662901DC012200E0002212
:1025F000104670470146202901D0092901D1012246
:1026000000E00022104670470146202909D00D291C
:1026100007D00A2905D00C2903D0092901D00B299C
:1026200001D1012200E00022104670470146202916
:1026300003DB7E2901DC012200E000221046704706
:102640000146212903DB7E2901DC012200E0002272
:10265000104670470146202903DB7E2901DC012258
:1026600000E00022012A35D1202909D00D2907D008
:102670000A2905D00C2903D0092901D00B2901D141
:10268000012200E000222ABB412903DB5A2901DC98
:10269000012200E00022012A08D0612903DB7A2907
:1026A00001DC012200E00022012A01D1012200E028
:1026B0000022012A08D0302903DB392901DC01225C
:1026C00000E00022012A01D1012200E000220AB923
:1026D000012200E000221046704701464AB2002A5B
:1026E00001DB1F2901DD7F2901D1012200E0002249
:1026F000104670470146412903DB5A2901DC0122BB
:1027000000E00022012A02D101F1200200E00A4685
:10271000D0B270470146612903DB7A2901DC01222E
:1027200000E00022012A02D1A1F1200200E00A46C5
:10273000D0B27047F0B504460B462046FFF7EAFFDB
:1027400005461846FFF7E6FF0646B54201D10120CF
:1027500000E0002007463846F0BD0000F748F84981
:1027600001600146416000218160C16001614161F9
:102770008161C16101620163C1624162F1498163AA
:10278000C1634FF4D841016441640146EE4A1160CF
:1027900070472DE9F04103460C4617460FB9BDE8D6
:1027A000F08103B9FBE70025002202E02D0225435A
:1027B000521C042AFAD3384603F0030C1946BCF124
:1027C000000F08D0624603E001F8014B401E521C86
:1027D00008B1042AF8D30E4601E020C6001F0428E1
:1027E000FBD2314602E001F8014B401E0028FAD12D
:1027F00000BFD4E730B505460C46224600212846E6
:10280000FFF7C7FF30BD2DE9F04F85B0074688467A
:102810009146B9F1000F02D105B0BDE8F08F07B9BC
:10282000FAE7B8F1000F00D1F6E746463D46AE4262
:1028300005D94A464146384601F0EAFBECE74C46EA
:102840003819451E08EB0400461EA81B0490049886
:10285000042834D305F00300029006F0030101912F
:10286000DDE90110884201D1012000E00020009044
:102870000098012823D10298032810D0029840B272
:10288000039008E016F8010905F80109641E039891
:10289000401E40B2039014B103980028F2DAA5F16B
:1028A000030AA6F1030B04E05BF804094AF80409E3
:1028B000241F042CF8D20AF103050BF1030604E0EF
:1028C00016F8010905F80109641E002CF8D100BFB3
:1028D000A2E72DE9F84F80468946154615B9012033
:1028E000BDE8F88FB8F1000F01D10020F8E7B9F189
:1028F000000F01D10020F3E70124294608EB05026F
:1029000009EB050302F0030C03F0030BDC4501D1D6
:10291000012000E0002000900098012829D1BCF19E
:10292000000F12D0E2460AE0521E5B1E107893F8A8
:1029300000E0704500D00024491EAAF1010A012CD4
:1029400003D111B1BAF1000FEED1012C11D116460D
:102950001F4608E0361F3F1F3068D7F800E070457B
:1029600000D00024091F012C01D10429F2D23246E3
:102970003B4608E0521E5B1E107893F800E070455D
:1029800000D00024491E012C01D10029F2D120469B
:10299000A6E7F0B503460D461646DA6BB2FBF6F035
:1029A00006FB102CBCF1000F02D0A6EB0C0400E0DB
:1029B00000246119586C884201D20020F0BDA14268
:1029C00001D3A94201D20020F8E75718974201D25B
:1029D0000020F3E72244DF63586C401A5864104625
:1029E000ECE72DE9F04F81468C461C46B9FBF4F02C
:1029F00004FB109BBBF1000F02D0A4EB0B0600E020
:102A00000026B2FBF4F004FB102BBBF1000F02D048
:102A1000A4EB0B0300E00023D018ACF1010E00FB87
:102A20000E60871806EB0208B04501D3904502D22C
:102A30000020BDE8F08FBCF1010F22D9D5189D42CE
:102A400001D3954201D20020F3E7ACF1010000FB75
:102A500005F1A94203D3994201D3914201D200204A
:102A6000E7E701EB020A8A4501D3924501D2002033
:102A7000DFE7474503D38F4201D3574501D20020FA
:102A8000D7E73846D5E72DE9FE4F07468846154675
:102A90001C46002000901CB900BFFFF7A7FB00BF39
:102AA0000DB901AD00BF002028602FB942F274704B
:102AB00020800020BDE8FE8FB8F1000F04D142F263
:102AC000757020800020F5E7DFF8709000BF00BF30
:102AD000FFF7E4FA009000BFFFF715FB00BFD9F83D
:102AE0003C000290D9F844B043463A46012102988E
:102AF000FFF777FF064676B900BFFFF7E5FA00BF9C
:102B00000098FFF7CFFA00BF00BF2F6042F2E370DA
:102B100020800020CEE75E4518D900BFFFF7D4FA29
:102B200000BF0098FFF7BEFA00BF00BFA6EB0B0086
:102B3000286042F2E27020800020BBE710040020F1
:102B4000484541505804002048000020424639467C
:102B50004846FFF71EFF8246BAF1000F0ED100BFB4
:102B6000FFF7B2FA00BF0098FFF79CFA00BF00BF62
:102B70002E6042F2E270208000209BE700BFFFF74A
:102B8000A3FA00BF0098FFF78DFA00BF00BF42F222
:102B90001070208050468DE72DE9FC5F06460D46FB
:102BA0001446002000901CB900BFFFF71FFB00BFB8
:102BB0002DB942F2757020800020BDE8FC9FB5F56C
:102BC000805F04D942F2757020800020F5E726B9B5
:102BD00042F2117020800020EFE700BF00BFFFF736
:102BE0005DFA009000BFFFF78EFA00BFFC49306825
:102BF000084440B1FB49084418B1FB49084408B9EE
:102C000000BF0EE000BF00BFFFF75EFA00BF0098F4
:102C1000FFF748FA00BF00BF42F288702080002012
:102C2000CBE700BFD6F80490D9F8380008B1484681
:102C300000E0EE488246DAF84470DAF83CB000BFB3
:102C4000FFF742FA00BF0098FFF72CFA00BF00BF61
:102C5000012D0DD9BBFBF5F005FB10B8B8F1000F45
:102C600002D0A5EB080000E00020019001983F1A77
:102C700042F21070208038469FE770B504460D463A
:102C80002A462146D948FFF787FF0646304670BDE1
:102C900070B504460D461DB900BFFFF7A7FA00BF87
:102CA0001CB942F21170288070BDCD4840422060AE
:102CB00000206060A060E06020616061A061E06170
:102CC0002062A06260632063E0626062A063E063F0
:102CD0002064606442F21070288000BFE4E72DE9B0
:102CE000FF4F91B00446DDE92095002000901DB90A
:102CF00000BFFFF77BFA00BFB9F1000F02D10DF161
:102D0000100900BF0020C9F8000029462046FFF73F
:102D1000BFFF288842F21071884202D015B0BDE88A
:102D2000F08F129828B1139818B942F27E7028805B
:102D3000F4E7149818B942F292702880EEE71E98D2
:102D400018B942F293702880E8E71F9818B942F248
:102D500094702880E2E7A648006818B942F2E7704C
:102D60002880DBE7A14810904FF0000A00BF00BFA9
:102D7000FFF794F9009000BFFFF7C5F900BF129864
:102D8000002863D1109E109E0E96109E3746109E0E
:102D9000F06B0B9004231A4614990B98FFF721FE51
:102DA0000390039860B900BFFFF78EF900BF009849
:102DB000FFF778F900BF00BF42F2E3702880ADE76B
:102DC00003990B9808440A90DDE91E2314990A9888
:102DD000FFF707FE8346BBF1000F0CD100BFFFF7E2
:102DE00073F900BF0098FFF75DF900BF00BF42F222
:102DF000E370288092E7039800EB0B0A0398824562
:102E000001D3DA450CD200BFFFF75EF900BF00988E
:102E1000FFF748F900BF00BF42F2E37028807DE76A
:102E20001098D0F84480C2457ED900BFFFF74CF916
:102E300000BF0098FFF736F900BF00BFAAEB0800FB
:102E4000C9F8000042F2E270288067E71298099002
:102E5000DDE912010844401E0890DDE908108142B6
:102E60000CD200BFFFF730F900BF0098FFF71AF946
:102E700000BF00BF42F2977028804FE70026002075
:102E80000E905B4807683CE0B96B1298814205D10F
:102E9000396C1398814201D13E4634E0B86B0790FB
:102EA000396CB86B0844401E0690DDE90701814289
:102EB00000D228E007990998884203D8DDE9071075
:102EC00088420FD207990998884203D30699089837
:102ED000884207D906990998884210D80699089817
:102EE00088420CD300BFFFF7EFF800BF0098FFF750
:102EF000D9F800BF00BF42F27F7028800EE70E971E
:102F0000FF68002FC0D100BF46B926461298A063C3
:102F10001298E06313982064139860641098C06B53
:102F20000B9004231A4600E064E014990B98FFF715
:102F300058FD0390039860B900BFFFF7C5F800BFC4
:102F40000098FFF7AFF800BF00BF42F2E37028809F
:102F5000E4E61098D0F844800398404511D900BFAA
:102F6000FFF7B2F800BF0098FFF79CF800BF00BF62
:102F70000398A0EB0800C9F8000042F2E270288034
:102F8000CCE6F06B0A90DDE91E2314990A98FFF74E
:102F900028FD8346BBF1000F0CD100BFFFF794F86A
:102FA00000BF0098FFF77EF800BF00BF42F2D97063
:102FB0002880B3E6D6F84480C3451BD900BFFFF78D
:102FC00083F800BF0098FFF76DF800BF00BFABEBC0
:102FD0000800C9F8000042F2D87028809EE6000080
:102FE000B2B0B1BAFEFFFEF8080A0EFC10040020D1
:102FF0004800002014988000029004220299109842
:10300000FFF7C7FC0D900D9838BB1098D0F844809E
:1030100000BFFFF759F800BF0098FFF743F800BF63
:1030200000BF129848B9C24504D9AAEB0800C9F8F4
:1030300000000EE0C9F800A00BE00298404505D959
:103040000298A0EB0800C9F8000002E00298C9F855
:10305000000042F2E270288060E60020019034E037
:103060003046DDE91E12FFF794FC0C900C9820BB53
:10307000F06B0A90D6F8448000BFFFF725F800BF38
:103080000098FFF70FF800BF00BF01991498401A8D
:103090000590DDE91E2305990A98FFF7A2FC8246F8
:1030A000C24504D9AAEB0800C9F8000001E0C9F83C
:1030B00000A042F2D870288030E6019ADDE90C01C8
:1030C00041F822000198401C01901499019888420F
:1030D000C6D3A6420CD10E98A060E7600E9810B13E
:1030E0000E98C46001E0FB4804605FB1BC6009E079
:1030F00070690F9026610F98606174610F9808B134
:103100000F980461F448206066600A98A0610A98EC
:103110005844401EE0610D982062C4F828B01F9802
:1031200060631E9820631498E0621498606200BF88
:10313000FEF7CAFF00BF0098FEF7B4FF00BF00BF54
:1031400042F21070288000BFE8E52DE9F041054605
:103150000C4600271CB900BFFFF748F800BF2DB987
:1031600042F2117020800020BDE8F08100BF00BF56
:10317000FEF794FF074600BFFEF7C5FF00BFD74923
:103180002868084440B1D649084418B1D5490844D4
:1031900008B902E00FE000BF00BF00BFFEF794FFD8
:1031A00000BF3846FEF77EFF00BF00BF42F28870C6
:1031B00020800020D8E700BF6E6A00BFFEF784FFC2
:1031C00000BF3846FEF76EFF00BF00BF42F210702E
:1031D00020803046C8E72DE9F04104460E461546EA
:1031E0004FF000081DB900BFFFF700F800BF2CB971
:1031F00042F2117028800020BDE8F08126B942F229
:10320000937028800020F7E700BF00BFFEF746FF5D
:10321000804600BFFEF777FF00BFAF4920688842B5
:103220000DD000BFFEF750FF00BF4046FEF73AFF4B
:1032300000BF00BF42F2887028800020DCE7206BCE
:10324000B0420DD200BFFEF73FFF00BF4046FEF781
:1032500029FF00BF00BF42F2937028800020CBE717
:10326000606A68B900BFFEF72FFF00BF4046FEF757
:1032700019FF00BF00BF42F2DE7028800020BBE7CC
:10328000E16A606A88420DD900BFFEF71DFF00BFEA
:103290004046FEF707FF00BF00BF42F2957028804E
:1032A0000020A9E7606A401E6062D4E9080150F876
:1032B000217000BFFEF708FF00BF4046FEF7F2FE98
:1032C00000BF00BF42F210702880384694E72DE915
:1032D000F04704460F4615464FF000091DB900BFE0
:1032E000FEF784FF00BF2CB942F211702880002045
:1032F000BDE8F08700BF00BFFEF7D0FE814600BFEB
:10330000FEF701FF00BF7449206888420DD000BF5E
:10331000FEF7DAFE00BF4846FEF7C4FE00BF00BF5E
:1033200042F2887028800020E2E7E16A606A884201
:103330000DD300BFFEF7C8FE00BF4846FEF7B2FE41
:1033400000BF00BF42F2957028800020D0E7E06AFD
:10335000C01B461EE06AB0420DD800BFFEF7B4FEA7
:1033600000BF4846FEF79EFE00BF00BF42F29570C8
:1033700028800020BCE7606AB0420DD900BFFEF78C
:10338000A3FE00BF4846FEF78DFE00BF00BF42F21D
:10339000957028800020ABE7206A50F8268000BF97
:1033A000FEF792FE00BF4846FEF77CFE00BF00BF5E
:1033B00042F21070288040469AE72DE9F04F02460D
:1033C0000C469569D2F81CB0AC4201D35C4502D9D9
:1033D0000020BDE8F08F536BB5FBF3F003FB1051F9
:1033E00011B1A3EB010C01E04FF0000C176BB7FB20
:1033F000F3F003FB107109B15E1A00E0002605EB43
:103400000C08A4EB080A07EB0609BAFBF9F009FB64
:1034100010A008B9012000E0002086467046D8E7D9
:103420002DE9F04704460F4615464FF0000A1DB936
:1034300000BFFEF7DBFE00BF24B942F21170288006
:10344000BDE8F0871FB942F211702880F8E700BF8D
:1034500000BFFEF723FE824600BFFEF754FE00BF0A
:103460001D49206888420CD000BFFEF72DFE00BF2A
:103470005046FEF717FE00BF00BF42F2887028805A
:10348000DEE739462046FFF798FF8046B8F1010F86
:103490000CD000BFFEF718FE00BF5046FEF702FE3C
:1034A00000BF00BF42F297702880C9E700261CE0E9
:1034B000206A50F82600B84216D100BFFEF704FE7D
:1034C00000BF5046FEF7EEFD00BF00BF42F298700D
:1034D0002880B5E748000020504F4F4CB2B0B1BA39
:1034E000FEFFFEF8080A0EFC761C606AB042DFD8C8
:1034F000E16A606A88420CD300BFFEF7E5FD00BFB9
:103500005046FEF7CFFD00BF00BF42F2DD702880BD
:1035100096E74FF00008666A08E0206A50F82690A7
:10352000B94502D14FF0010803E0761CE06AB042D1
:10353000F3D800BFB8F1010F07D1D4E9080150F862
:103540002100216A41F826000CE000BFFEF7BCFD17
:1035500000BF5046FEF7A6FD00BF00BF42F28870D4
:1035600028806DE7D4E9080140F82170606A401CAA
:10357000606200BFFEF7A8FD00BF5046FEF792FD57
:1035800000BF00BF42F21070288000BF58E72DE94D
:10359000F84F04460F461546002000904FF0FF3BC1
:1035A0001DB900BFFEF722FE00BF2CB942F2117018
:1035B00028805846BDE8F88F27B942F2117028805C
:1035C0005846F7E700BF00BFFEF768FD009000BF58
:1035D000FEF799FD00BF4349206888420DD000BF27
:1035E000FEF772FD00BF0098FEF75CFD00BF00BF54
:1035F00042F2887028805846DCE739462046FFF7BB
:10360000DCFE8046B8F1010F0DD000BFFEF75CFD77
:1036100000BF0098FEF746FD00BF00BF42F2977062
:1036200028805846C6E7002613E0206A50F8260096
:10363000B8420DD100BFFEF747FD00BF0098FEF76E
:1036400031FD00BF00BF42F2987028805846B1E7B4
:10365000761C606AB042E8D8E16A606A88420DD39D
:1036600000BFFEF731FD00BF0098FEF71BFD00BF55
:1036700000BF42F2DD70288058469BE74FF00008FB
:10368000666A08E0206A50F82690B94502D14FF0EA
:10369000010803E0761CE06AB042F3D800BFB8F13D
:1036A000010F11D1E06A401EA0EB060A00BFFEF731
:1036B0000BFD00BF0098FEF7F5FC00BF00BF42F213
:1036C00010702880504675E700BFFEF7FDFC00BF74
:1036D0000098FEF7E7FC00BF00BF42F28870288028
:1036E000584667E7504F4F4C10B502460B461146FF
:1036F000002001E0491C401C19B10C780CB1984223
:10370000F8D310BD30B504464FF0FF312046FFF727
:10371000EBFF0546284630BD70B504460D461646FB
:103720000CB9002070BD0DB90020FBE721462A46E8
:10373000002304E010780870491C521C5B1C21B166
:103740001AB1107808B1B342F4D301B10AB900201C
:10375000E8E7B34201D2002008702046E2E770B5E6
:1037600004460D464FF0FF3229462046FFF7D4FFAE
:103770000646304670BD70B503460C4615460BB97B
:10378000002070BD0CB90020FBE70DB91846F8E722
:10379000194600E0491C11B108780028FAD109B98E
:1037A0000020EEE72246002604E010780870491C4D
:1037B000521C761C21B11AB1107808B1AE42F4D374
:1037C00001B10AB90020DCE7002008701846D8E7EC
:1037D00070B504460D464FF0FF3229462046FFF7EC
:1037E000CAFF0646304670BD2DE9F04305460B463C
:1037F0009446BCF1000F02D10020BDE8F08335B93A
:103800000BB90020F9E7187842421046F5E713B9E2
:103810002A781046F1E729461C460F4626467F1CAB
:10382000761C4FF0000805E0491C641C7F1C761CC8
:1038300008F10108087894F80090484505D1087807
:1038400018B117B10EB1E045EED3E04501D100202B
:10385000D3E7087894F80090484505D0087894F8A4
:103860000090A0EB09020BE0087808B9002207E0FD
:103870002FB90EB9002203E03078424200E03A78D6
:103880001046BAE770B504460D464FF0FF322946A0
:103890002046FFF7A9FF0646304670BD2DE9F74FD9
:1038A00082B080460E46049818B9002005B0BDE8E5
:1038B000F08FB8F1000F09D10EB90020F6E730788B
:1038C000FEF718FF07467C422046EFE73EB998F81E
:1038D0000000FEF70FFF05462C462046E6E7C146EE
:1038E000B246C846C3465646CDF804A0D8460BF1AA
:1038F000010B019E701C0190C84699F80000FEF76C
:10390000F9FE054656469AF80000FEF7F3FE074614
:103910000020009015E009F101090AF1010A0BF1FC
:10392000010B0198401C01900098401C009099F8F0
:103930000000FEF7DFFE05469AF80000FEF7DAFE0B
:103940000746BD420BD199F8000040B1BBF1000F12
:1039500005D0019818B1049900988842DBD30499E6
:103960000098884201D10020A0E7BD4201D0EC1BA5
:1039700016E00DB9002413E0BBF1000F0AD1019845
:1039800008B900240CE001990878FEF7B3FE074659
:103990007C4205E09BF80000FEF7ACFE05462C4695
:1039A000204683E770B504460D464FF0FF322946A6
:1039B0002046FFF773FF0646304670BD30B504461B
:1039C0000B4615460CB9002030BD0BB90020FBE7B3
:1039D0002146002201E0491C521C31B1087820B177
:1039E0000878A84201D09A42F5D309B90020EBE744
:1039F0009A4201D30020E7E70878A84201D00020CE
:103A0000E2E70846E0E770B505460C4622464FF06F
:103A1000FF312846FFF7D2FF0646304670BD2DE93C
:103A2000F04305460E46174615B90020BDE8F08361
:103A30000EB90020FAE72C46A6F1010949462046B6
:103A4000FFF752FE804644440CB90020EEE700E048
:103A5000641EAC4202D02078B842F9D12078B84236
:103A600001D00020E2E72046E0E770B505460C46AD
:103A700022464FF0FF312846FFF7D1FF0646304679
:103A800070BD70B504460D4616460CB9002070BDD9
:103A90000BB90020FBE721461A4605E00878A8424A
:103AA00000D10E70491C521E19B1087808B1002AC5
:103AB000F4D12046EBE7F0B504460D4616464FF02C
:103AC000FF33324629462046FFF7DBFF07463846DC
:103AD000F0BD2DE9FF4F06460F4615461EB90020E2
:103AE00004B0BDE8F08F0FB90020F9E70DB9002050
:103AF000F6E7681C00B101E04FF0FF300390294663
:103B00003046FFF7F1FD804638460399FFF7ECFD9C
:103B100004460CB93046E3E7444501D90020DFE70D
:103B200006EB080BBBF1000F01D10020D8E707EB33
:103B3000040BBBF1000F01D10020D1E7A8EB04007A
:103B400002904FF000090020019000BF06EB090031
:103B50000090224639460098FFF746FE8246BAF1A9
:103B6000000F01D1012000E00020019009F10109BE
:103B7000019810B902988145E8D9BAF1000F01D037
:103B80000020ADE70098ABE770B504460D464FF056
:103B9000FF3229462046FFF79CFF0646304670BD9F
:103BA0002DE9FF4F8DB00F4615461A9E1D9818B986
:103BB000002011B0BDE8F08F00200390012F01DA42
:103BC00001200390022D01D3242D01D9012003905F
:103BD00096B33046FEF72AFD02900298012802D0E3
:103BE0000120039028E0302E26D0A6F13000C0B28C
:103BF00007901B98012804D0A6F14100C0B206909E
:103C000003E0A6F16100C0B206900A2D02D8079821
:103C1000A84209DB0A2D09D907980A2804D3A5F17F
:103C20000A000699884201D9012000E00020059091
:103C30000598012800D103901D9C0398002846D1C7
:103C4000DDF834A0DDF834A0CDF830A001200B90D1
:103C500007E00B98401CC0B20B900C98B0FBF5F03D
:103C60000C900C98A842F4D21098012800D100E0E2
:103C7000002009900B9909980844B84225DC0020DF
:103C800001900B98B84201DA0B9800E038460A9090
:103C90003EB1B8460A98391A0998081AC0B2089075
:103CA00006E0DDE90910084400F0FF080020089054
:103CB0000898002806DD302E01D1012000E0002008
:103CC000049004E00020049001E001200390039898
:103CD00000B1B84644441C9808B100202070641E0E
:103CE0004FF0000941E00398A8BBBAF1000F02D1E0
:103CF000B9F1000F1CD1BAFBF5F005FB10A000F0E4
:103D0000FF0BBBF10A0F04D20BF1300004F80109DC
:103D10000BE01B98012804D00BF1370004F80109CF
:103D200003E00BF1570004F80109BAFBF5FA1AE0B9
:103D30001098012810D1049808B9019828B1049866
:103D400050B1A8F10100484506D12D2004F8010921
:103D50000120019007E003E02EB104F8016902E0C0
:103D60003F2004F8010909F10109C145BBD30398BB
:103D700008B100201DE71D981BE72DE9FF5F0546F0
:103D80000E4617461C46DDE90F9ADDF83880002301
:103D90003A46314628468DE81007FFF701FF834673
:103DA000584604B0BDE8F09F2DE9FF4F85B00446AA
:103DB00089461F46DDE913AB002C02DA6542012675
:103DC00001E02546002612983346CDE902ABCDE945
:103DD000007049462846079AFFF7E2FE80464046B3
:103DE00009B0BDE8F08F2DE9FF4F8BB0064689463C
:103DF0001546B9F1000F02D10DF1240900BFC9F831
:103E00000060189810B907A8189000BF00211898F2
:103E100001701EB900200FB0BDE8F08F012D01D058
:103E2000242D01D90020F6E734462078FEF7ECFB7C
:103E3000039004E0641C2078FEF7E6FB03900398EF
:103E40000128F7D020782B2802D02D280BD103E0B1
:103E5000641C4FF0000B09E00E98012800D1641C8F
:103E60004FF0010B02E04FF0000B00BF00BF0A94BF
:103E700025B1082D1CD0102D36D11EE02078302819
:103E800014D1641C2078582802D078280BD100BFA8
:103E9000102567783846FEF79BFB8246BAF1010F82
:103EA00000D1641C01E0082500BF00E00A251CE0E9
:103EB0002078302800D1641C17E02078302812D1F7
:103EC000641C2078582802D078280AD100BF67786F
:103ED0003846FEF77DFB8246BAF1010F00D1641C23
:103EE00000E000BF00BF00E000BF00BF4FF00008CF
:103EF00000200290019040E027783846FEF71AFB38
:103F000005900598012836D13846FEF74DFB0690FE
:103F10000698012804D1A7F13000C0B208900FE044
:103F20003846FEF72DFB04900498012804D1A7F130
:103F30005700C0B2089003E0A7F13700C0B2089064
:103F40000898A84214DA029880B9304850F8250041
:103F5000404509D308FB05F8089880440898804537
:103F600004D20120029001E001200290641C04E0D0
:103F70000120019001E00120019001980028BBD0B0
:103F80000298012801D14FF0FF380A98844202D0EC
:103F9000C9F8004001E0C9F80060189880F800B046
:103FA000404638E7F8B504460D461646002003465D
:103FB0003246294600902046FFF715FF074638464F
:103FC000F8BD2DE9FC4105460E46174601A8012320
:103FD0003A46314600902846FFF705FF04469DF813
:103FE000040040B9B4F1004F02D36FF0004000E08C
:103FF0002046804607E0B4F1004F02D34FF0004066
:1040000000E0604280464046BDE8FC819CCC000850
:10401000002800D17047002900D17047002A00D144
:1040200070472DE9F81F00F0030301F00304A342D9
:1040300011D1C3F1040303F00303012B1DD3012AA3
:1040400000D2F2E011F8014B00F8014BA3F101039B
:10405000A2F10102F1E700F0010301F00104A34223
:1040600000D094E0012B44D311F8014B00F8014B30
:10407000A3F10103A2F10102F4E7B2F5B47F26D364
:10408000B1E8F81FA0E8F81FB1E8F81FA0E8F81F92
:10409000B1E8F81FA0E8F81FB1E8F81FA0E8F81F82
:1040A000B1E8F81FA0E8F81FB1E8F81FA0E8F81F72
:1040B000B1E8F81FA0E8F81FB1E8F81FA0E8F81F62
:1040C000B1E8F81FA0E8F81FA2F5B472D5E7282AD6
:1040D00006D3B1E8F81FA0E8F81FA2F12802F6E71E
:1040E000042A06D351F8043B40F8043BA2F1040231
:1040F000F6E7202A42D331F8023B20F8023B31F8A0
:10410000023B20F8023B31F8023B20F8023B31F839
:10411000023B20F8023B31F8023B20F8023B31F829
:10412000023B20F8023B31F8023B20F8023B31F819
:10413000023B20F8023B31F8023B20F8023B31F809
:10414000023B20F8023B31F8023B20F8023B31F8F9
:10415000023B20F8023B31F8023B20F8023B31F8E9
:10416000023B20F8023B31F8023B20F8023B31F8D9
:10417000023B20F8023BA2F12002BAE7022A06D352
:1041800031F8023B20F8023BA2F10202F6E7102AC6
:1041900042D311F8013B00F8013B11F8013B00F854
:1041A000013B11F8013B00F8013B11F8013B00F81D
:1041B000013B11F8013B00F8013B11F8013B00F80D
:1041C000013B11F8013B00F8013B11F8013B00F8FD
:1041D000013B11F8013B00F8013B11F8013B00F8ED
:1041E000013B11F8013B00F8013B11F8013B00F8DD
:1041F000013B11F8013B00F8013B11F8013B00F8CD
:10420000013B11F8013B00F8013B11F8013B00F8BC
:10421000013BA2F11002BAE7012A06D311F8013BD3
:1042200000F8013BA2F10102F6E7BDE8F81F704774
:1042300070470000002400BF1DE000BF00BFFDF775
:104240002DFF044600BFFDF75EFF00BFFA4800687F
:10425000401CF9490860F9480068401CF7490860AB
:1042600000BFFDF731FF00BF2046FDF71BFF00BF79
:1042700000BF08F07BF9E0E710B58AB004460020E3
:10428000ED4908600B2000210591CDE90704069156
:104290000846EB490968EB4A1268EB4B1B68CDE90D
:1042A0000132CDE903101F200023AFF27702E7A10E
:1042B0000090EB4805F013F90AB010BD00210AE0A8
:1042C00001EB4102E74B03EB820000220281026016
:1042D00042604A1CD1B22029F2D3704770B504461F
:1042E00008F04CF90020E0490870E0490870E04906
:1042F0000870E0490860E0490860E0490870E0495A
:104300000870E0490870E0490860E0490860E04949
:104310000860E0490870E04800680A21B0FBF1F04D
:10432000DE490860DE48006858B1DE48056845B1DE
:10433000DB48066803E0761E002028602D1D002E55
:10434000F9D10020D8490860D8490860D8490860E8
:10435000D8490860D8490860D8490860D849086039
:10436000D849087003F00EFAFFF7A8FF204601F0C5
:1043700054FF208800B170BD204602F0BDFA2088AD
:1043800000B1F8E7204602F0C9FA208800B1F2E750
:10439000204603F0DFF9208800B1ECE7204603F067
:1043A0001BFF208800B1E6E7204604F0B3FB20881D
:1043B00000B1E0E7204606F0C9FE208800B1DAE748
:1043C000204602F0BEF8208800B1D4E72046FFF76F
:1043D00053FF208800B1CEE7204607F020F8208860
:1043E00000B1C8E7204604F0A1FE208800B1C2E772
:1043F000204608F016F8208800B1BCE700F042FE25
:10440000FFF716FF00BFB6E798480078012800D0F4
:10441000704795480078FA2800DBF9E79248007861
:10442000401C9149087000BFF2E710B500248F4886
:104430000078012800D010BD00BFFDF72FFE044614
:1044400000BF8948007828B900BF2046FDF72AFE42
:1044500000BFF0E784480078401E83490870084692
:104460000078002805DD00BF2046FDF71BFE00BFD9
:10447000E1E77F480078002805DD00BF2046FDF712
:1044800011FE00BFD7E703F087F97D4908700846A1
:10449000007800EB4000734951F82000764908602D
:1044A0000846006873490968884205D100BF204664
:1044B000FDF7F8FD00BFBEE76F480068D0F8900038
:1044C000401C6D490968C1F890007F480068401C95
:1044D0007D4908604FF080507C49086000BF20464D
:1044E000FDF7E0FD00BF00BFA5E710B500245E4862
:1044F0000078002800DD10BD5D480078002800DD50
:10450000F9E700BFFDF7CAFD044600BF03F044F918
:104510005B4908700846007800EB4000514951F8AB
:1045200020005549086008460068524909688842D9
:1045300005D100BF2046FDF7B5FD00BFDBE74E48C3
:104540000068D0F89000401C4B490968C1F8900001
:104550005D480068401C5C4908604FF080505B4932
:10456000086000BF2046FDF79DFD00BF00BFC2E709
:1045700010B53F480078012803D1FBF7EEFE424911
:10458000086010BD70B50446002537480078002843
:1045900003DD46F66250208070BD34480078012863
:1045A00003D045F689602080F6E731480078FA2884
:1045B00003DB45F209202080EEE700BF00BFFDF7D6
:1045C0006DFD054600BFFDF79EFD00BF2848007841
:1045D000401C27490870FFF7CBFF00BFFDF774FDB3
:1045E00000BF2846FDF75EFD00BF00BF0020208011
:1045F00000BFD1E710B51E48007880B9FBF7ADFECB
:1046000021490968441A21480068A04201D21F4884
:1046100004601F480068A04201D21D48046010BD1C
:1046200070B50446002510480078002850DD46F695
:104630006550208070BD00006C000020D800002074
:1046400038CD000834CD000830CD000875432F4F19
:10465000532D4949492049646C65205461736B00AE
:10466000E88400208486002070000020780000206C
:10467000C0000020180100201C010020A60000201E
:10468000A7000020A8000020B4000020B8000020EF
:10469000BC000020C800002090CD0008C40000200D
:1046A00060CD00085CCD00085000002054000020C0
:1046B000580000205C000020600000206400002002
:1046C00068000020F6000020EC00002004ED00E06F
:1046D000FA480078012803D045F68960208070BD33
:1046E000F748007818B946F664502080F7E700BF15
:1046F00000BFFDF7D3FC054600BFFDF704FD00BF7A
:10470000EF480078401EEE490870084600780028FF
:104710000CDD00BFFDF7D8FC00BF2846FDF7C2FC4A
:1047200000BF00BF46F663502080D8E7FFF762FF66
:1047300000BFFDF7C9FC00BF2846FDF7B3FC00BF72
:1047400000BFFFF7D2FE0020208000BFC7E72DE9A1
:10475000F04105460C461646002700BF00BFFDF796
:104760009DFC074600BFFDF7CEFC00BF012D03D026
:104770000020D449087002E00120D249087014B129
:10478000D148046006E0D14800680A21B0FBF1F08E
:10479000CD49086000BFFDF797FC00BF3846FDF724
:1047A00081FC00BF00BF00203080BDE8F08110B563
:1047B00001460C8924B1012C03D0022C0CD101E05C
:1047C00000BF14E008684A6802610024C4601461F4
:1047D000D0600A6048600AE008684A68C36800243C
:1047E0001C61C4600261D0600B60486000BF00BF04
:1047F00010BD2DE9F04104460027B5480078002897
:1048000004DD48F2D1402080BDE8F081AC4800785A
:10481000002803DD46F663502080F5E7A9480078BC
:10482000012803D046F67B102080EDE700BF00BFD3
:10483000FDF734FC074600BFFDF765FC00BFA54847
:10484000007800EB4000A44901EB80063089022883
:104850000CDA00BFFDF738FC00BF3846FDF722FC3C
:1048600000BF00BF46F67A102080CDE73046FFF744
:104870009EFF3568686D18B993480068A86501E027
:10488000686DA86500BFFDF71FFC00BF3846FDF747
:1048900009FC00BF00BFFFF728FE0020208000BFFA
:1048A000B2E710B5044685480078E8B902F074FF15
:1048B0008A49087008460078864908708748007859
:1048C00000EB4000844951F8200085490860084603
:1048D00000688449086001207849087008F00CF9E4
:1048E00043F69920208002E045F68A60208010BDC2
:1048F00001460020088047F25D60704730B548B13E
:104900004568C1F8C45000F10804226893681D6A24
:10491000C56113E091F83450022D02D0072D08D163
:1049200003E071A5C1F8C45007E071A5C1F8C450F7
:1049300003E072A5C1F8C45000BF00BF30BDF0B5A0
:104940008E6896F8375007893FB9012707810027FD
:104950004F600F600160416023E007897F1C078181
:10496000026806E0946894F83770AF4200DD02E018
:104970005268002AF6D100BF32B900274F60436861
:104980000B60596041600CE017682FB91160002777
:104990000F604A60016004E013680B604A60596070
:1049A0001160F0BD10B5C287016300230AE0002446
:1049B0004C600C600C614C610C83CC6188602031D0
:1049C0005C1CA3B29342F2DB10BD2DE9F041054619
:1049D00095F8370000EB40003F4901EB80042F6958
:1049E000EE6887B946B9002020812060606095F8A4
:1049F000370002F0F3FE0EE02089401E20810020E7
:104A00003061266007E02089401E2081FE600EB9DB
:104A1000676000E0376100202861E860BDE8F08150
:104A200038B504460D4685B16B460222294620461C
:104A300006F036FDBDF8000018B9032084F83600F2
:104A400006E0022084F8360002E0022084F83600F6
:104A50002046FFF7BAFF38BD2DE9F04105460C4668
:104A600016461F461F48006880F8346000201D4924
:104A7000096881F8350039461A480068FFF7D0FF09
:104A80006CB104F10808EC60012229461548006861
:104A9000FFF788FF29464046FFF751FF06E0002058
:104AA00010490968C8870F49096808630D480168FB
:104AB0002046FFF723FFBDE8F081000078000020CA
:104AC000C0000020C8000020C400002090CD0008D5
:104AD00070000020A600002084860020A70000208F
:104AE0001C010020180100205461736B205100004C
:104AF0005461736B2053656D0000000020000000BE
:104B000010B50489012C03D100240460446011E035
:104B10000C6824B94A680024146002600AE04C68FA
:104B200024B90B6800245C60436003E00B684A68AA
:104B30005A6013600489641E048100244C600C6078
:104B400010BD2DE9F0410446256BE68F0AE0D5F84B
:104B50000C8008F1080729463846FFF7D1FF2035B9
:104B6000701E86B2002EF2DC0020E0872063BDE8D4
:104B7000F08130B50346086BCC8F08E0C5689D42D4
:104B800002D10361C26104E02030651EACB2002C8A
:104B9000F4DC00BF30BD10B590F8373003EB4303B1
:104BA000F64C04EB83010B893BB901230B810023F5
:104BB000C36003610860486009E00B895B1C0B81DE
:104BC0000B68C360002303610A681061086010BDB0
:104BD00010B590F8373003EB4303E84C04EB830146
:104BE0000B893BB901230B810023C360036108607B
:104BF000486008E00B895B1C0B810023C3604A6896
:104C00000261D060486010BD10B5044694F83700CA
:104C100002F0D4FD94F83700D9490978884203D1CD
:104C20002046FFF7D5FF02E02046FFF7B4FF10BD96
:104C300010B50446204606F0AFFA94F8360000F0AE
:104C4000040010B92046FFF7DFFF10BD70B5054620
:104C50000C46164694F83600082847D2DFE800F0E4
:104C6000040508090607272800BF00BF00BF3EE073
:104C700000BF94F83400032804D132462146284668
:104C8000FFF777FF0020E065A4F86000266415B107
:104C90002046FFF756FF2046FFF7CAFF00203434B6
:104CA000A07001206070002004F834091FE000BFEC
:104CB00094F83400032804D1324621462846FFF7F1
:104CC00058FF0020E065A4F86000266415B1204676
:104CD000FFF737FF204606F05FFA04203434A07057
:104CE00001206070002004F8340900E000BF00BF1C
:104CF00070BD30B5AFF2FC15C1F8C45000F1080426
:104D000022681AB193681D6AC56102E0AFF21425EA
:104D1000C56130BD2DE9F04304460F4684F8377075
:104D2000256BB4F83E8013E0D5F80C9009F1080625
:104D30003089012807D929463046FFF7E1FE294688
:104D40003046FFF7FCFD2035A8F101001FFA80F87E
:104D5000B8F1000FE8D1BDE8F083002101604160A7
:104D60000181704703895B1C038103684B6000234A
:104D70000B60026802B1116001600389012B00D150
:104D80004160704730B50346086BCC8F08E0C568BA
:104D90009D4202D10361C26104E02030651EACB2C5
:104DA000002CF4DC00BF30BD70B506460C4615463D
:104DB00094F83600082845D2DFE800F00405080919
:104DC0000607262700BF00BF00BF3CE000BF94F8E5
:104DD0003400032804D12A4621463046FFF7D2FF8B
:104DE0000020E065A4F8600025642046FFF7A9FED6
:104DF0002046FFF71DFF00203434A07002206070B1
:104E0000002004F834091EE000BF94F834000328A1
:104E100004D12A4621463046FFF7B4FF0020E06562
:104E2000A4F860002564204606F0B6F92046FFF796
:104E300088FE04203434A07002206070002004F842
:104E4000340900E000BF00BF70BDF0B50446059E08
:104E5000086BCD8F0AE0C768A74204D104614261A4
:104E60000383C66104E020306F1EBDB2002DF2DC6A
:104E700000BFF0BD2DE9F84306460C46174698469C
:104E8000089D94F83600082850D2DFE800F00405A9
:104E9000080906072B2C00BF00BF00BF47E000BF7A
:104EA00094F83400032807D143463A462146304659
:104EB0000095FFF7CAFF03E0E765A4F8608025646A
:104EC00036B12046FFF73DFE21463046FFF711FF81
:104ED0002046FFF7ADFE00203434A070607004F867
:104EE000340924E000BF94F83400032807D1434676
:104EF0003A46214630460095FFF7A7FF03E0E765F5
:104F0000A4F860802564204606F046F936B12046B4
:104F1000FFF717FE21463046FFF7EBFE042034343E
:104F2000A0700020607004F8340900E000BF00BFEA
:104F3000BDE8F88310B5002400BFFDF7AFF80446C4
:104F400000BF00200F4908700F481049086008464C
:104F50000068D0F89000401C0968C1F890000C4827
:104F60000068401C0A4908604FF0805009490860F9
:104F700000BF2046FDF796F800BF10BD84860020D4
:104F8000A6000020A7000020B08500201C01002002
:104F9000EC00002004ED00E070B505460026354821
:104FA0000078012800D070BD00BF00BFFDF776F883
:104FB000064600BFFDF7A7F800BF2C684CB900BF3C
:104FC000FDF782F800BF3046FDF76CF800BF00BF68
:104FD000E9E72948844209D100BFFDF775F800BF11
:104FE0003046FDF75FF800BF00BFDCE7A06D10B1F1
:104FF000A06D401EA065A06D48B100BFFDF764F82C
:1050000000BF3046FDF74EF800BF00BFCBE7288950
:10501000022809DA00BFFDF757F800BF3046FDF758
:1050200041F800BF00BFBEE714480078002809DD42
:1050300000BFFDF749F800BF3046FDF733F800BF69
:1050400000BFB0E72846FFF7B2FB2C68606D18B9C7
:105050000B480068A06501E0606DA06500BFFDF72A
:1050600033F800BF3046FDF71DF800BF00BF00BF9A
:1050700099E70000C8000020E8840020C00000205C
:10508000C4000020254A2649264A274A2749284A9B
:105090002848294A294A2A4A2A4A2B482B482C4878
:1050A0002C4A2D482D4A2E482E4A2F482F4830484A
:1050B0003048314A314A324A3248334A334A344816
:1050C000344835483548364836483748374A384AEC
:1050D000384A394A39483A483A483B4A3B4A3C4AB6
:1050E0003C483D483D483E493E483F4A3F4A404A89
:1050F000404A414A414A424A4248434A434A444854
:105100004448454A454A4648464A474A4748484827
:10511000484800BF00BF00BF70470000D4CD000862
:105120003CCF0008D5CD0008D6CD0008D8CD00086A
:10513000DCCD0008E0CD0008DDCD000808CE000879
:1051400009CE00080ACE00080CCE00080ECE0008DA
:1051500010CE000812CE000814CE000834CE00088D
:1051600036CE000838CE00083ACE00083CCE000803
:105170003ECE000840CE00086CCE00086DCE000880
:105180006ECE000870CE000872CE000873CE000804
:1051900074CE000876CE000878CE00087ACE0008DB
:1051A0007CCE00087ECE000880CE0008B0CE00087D
:1051B000B1CE0008B2CE0008B3CE0008B4CE0008CD
:1051C000B6CE0008B8CE0008E0CE0008E1CE000858
:1051D000E2CE0008E3CE0008E4CE0008E6CE0008E8
:1051E000E8CE0008ECCE0008EDCE0008EECE0008B8
:1051F000EFCE0008F0CE0008F1CE0008F2CE000895
:10520000F3CE0008F4CE0008F6CE0008F7CE000872
:10521000F8CE0008FACE0008FCCE0008FDCE00084B
:1052200000CF000834CF000835CF000836CF000883
:1052300038CF00083ACF0008FCA1C16100214161CC
:10524000FB49096811B90021816105E0F849096845
:105250008161F74909684861F549086070472DE99F
:10526000F04104460E4617461D464FF00008F1482F
:105270000078002804DD42F6E1602880BDE8F08176
:105280001CB945F6C3502880F8E700BF00BF00BF37
:10529000FCF704FF804600BFFCF735FF00BFE6487F
:1052A0000078401CE449087008460078012801D1C4
:1052B000FFF75EF900BFFCF707FF00BF4046FCF7B1
:1052C000F1FE00BF00BF00BFDC48206066602762BF
:1052D0000020606204F10800FFF73FFD2046FFF761
:1052E000ABFFD7480088401CD549088000BF00BFED
:1052F00000BFFCF7D3FE804600BFFCF704FF00BFF1
:10530000CD480078401ECC4908700846007808B99E
:10531000FFF770F900BFFCF7D7FE00BF4046FCF76F
:10532000C1FE00BF00BF00BF0020288000BFA5E76E
:1053300070B50446C3482060C3A0606000202062AE
:1053400004F108052846FFF708FD70BD4269816930
:105350003AB9B74B196009B100234B61002383614F
:1053600009E019B900239361436104E091614A6146
:1053700000238361436170472DE9FC5F0546884641
:10538000144600200090AB480078002805DD43F269
:10539000C92020800020BDE8FC9F25B945F6C350F8
:1053A00020800020F7E7B8F1000F03D0B8F1010F1B
:1053B00002D100E000BF04E045F625602080002017
:1053C000E9E700BF9D492868884204D045F6C450EB
:1053D00020800020DFE700BF00BF00BFFCF75EFEBB
:1053E000009000BFFCF78FFE00BF93480078401C80
:1053F0009149087008460078012801D1FFF7B8F8F4
:1054000000BFFCF761FE00BF0098FCF74BFE00BF39
:1054100000BF00BF05F10809B9F808603746B8F1C8
:10542000000F03D0B8F1010F74D182E0002F44D1F6
:105430002846FFF78BFF82480088401E804908807D
:105440002846FFF775FF00BF00BF00BFFCF726FE30
:10545000009000BFFCF757FE00BF77480078401E61
:105460007549087008460078D0B9FFF7C3F8784846
:10547000008800280BDD00BFFCF726FE00BF009867
:10548000FCF710FE00BF00BFFFF754FD11E000BFA6
:10549000FCF71AFE00BF0098FCF704FE00BF08E00E
:1054A00000BFFCF711FE00BF0098FCF7FBFD00BF3A
:1054B00000BF00BF002020803AE000BF00BF00BF57
:1054C000FCF7ECFD009000BFFCF71DFE00BF5A4842
:1054D0000078401E5849087008460078D8B9FFF790
:1054E00089F85B48008800280BDD00BFFCF7ECFD65
:1054F00000BF0098FCF7D6FD00BF00BFFFF71AFD04
:1055000012E000BFFCF7E0FD00BF0098FCF7CAFD09
:1055100000BF09E04CE000BFFCF7D6FD00BF0098DB
:10552000FCF7C0FD00BF00BF00BF47F25F10208046
:1055300079E0FAF712FF01900AE0D9F800A0DAF852
:1055400008B059462846019AFFF72EFC701E86B215
:10555000002EF2D12846FFF7F9FE39480088401E98
:10556000374908802846FFF7E3FE00BF00BF00BFB1
:10557000FCF794FD009000BFFCF7C5FD00BF2E486E
:105580000078401E2C4908700846007808B9FFF7DB
:1055900031F800BFFCF798FD00BF0098FCF782FDD2
:1055A00000BF00BF00BFFEF7A0FF002020803AE050
:1055B00000BF00BF00BFFCF771FD009000BFFCF70B
:1055C000A2FD00BF1C480078401E1B490870084619
:1055D0000078D0B9FFF70EF81D48008800280BDDD1
:1055E00000BFFCF771FD00BF0098FCF75BFD00BF3A
:1055F00000BFFFF79FFC11E000BFFCF765FD00BF97
:105600000098FCF74FFD00BF08E000BFFCF75CFD11
:1056100000BF0098FCF746FD00BF00BF00BF45F685
:105620002560208000BF00BF3846B4E6200000009F
:105630009000002070000020C0000020464C414730
:10564000940000204E4F4E453F464C41470000001D
:10565000840000202DE9F04106460F4614461D4601
:10566000DDF81880FE480068C0F88040FC480068FB
:10567000A0F888500020FA490968C1F88400434620
:10568000012239463046FFF7E7F9BDE8F0812DE900
:10569000F04F8BB00546884693469946DDE9147471
:1056A00000200190EF480078002806DD46F2AE1099
:1056B000208000200BB0BDE8F08F25B945F6C3501F
:1056C00020800020F6E748F20101A9EB010089459E
:1056D00036D01ADC40F20111A9EB010089452BD02C
:1056E0000CDCB9F1010F23D0B9F1020F21D0B9F1CF
:1056F000040F1FD0B9F1080F2AD11CE001281CD0DB
:1057000003281BD0072823D119E0B0F5807F1BD0D8
:1057100006DC012815D0032814D0072818D112E080
:10572000A0F2011088B1022810D0062810D10EE096
:1057300000BF00BF00BF00BF00BF00BF00BF00BF71
:1057400000BF00BF00BF00BF00BF00BF00BF04E03C
:1057500045F6256020800020ACE700BFC2492868DC
:10576000884204D045F6C45020800020A2E709F406
:10577000807010B14FF0010A01E04FF0000A0FB144
:105780000020386009F00F000A9000BF00BFFCF74E
:1057900085FC019000BFFCF7B6FC00BF0A98012809
:1057A0007ED002287DD0042802D008287AD182E059
:1057B000286A00EA0806464519D1BAF1010F02D15C
:1057C000286AB0432862A6480068C0F884600FB118
:1057D000686A386000BFFCF777FC00BF0198FCF7EF
:1057E00061FC00BF00BF00202080304662E709F462
:1057F000004068B100BFFCF767FC00BF0198FCF7F0
:1058000051FC00BF00BF46F2B0102080002051E7DD
:105810009648007800280DDD00BFFCF755FC00BF5E
:105820000198FCF73FFC00BF00BF46F663502080A4
:1058300000203FE700BF8D480078401C8B4908706E
:1058400008460078012801D1FEF792FE00BFFCF760
:105850003BFC00BF0198FCF725FC00BF00BF00BF68
:105860004B464246294602A8CDF800B0FFF7F2FEAB
:1058700000BF00BF00BFFCF711FC019000BFFCF7A8
:1058800042FC00BF79480078401E784908700846FD
:10589000007808B9FEF7AEFE00BFFCF715FC02E089
:1058A00087E00EE18BE100BF0198FCF7FBFB00BF36
:1058B00000BF00BF91E1286A00EA0806CEB1BAF144
:1058C000010F02D1286AB043286265480068C0F819
:1058D00084600FB1686A386000BFFCF7F5FB00BF59
:1058E0000198FCF7DFFB00BF00BF0020208030469E
:1058F000E0E609F4004068B100BFFCF7E5FB00BF3B
:105900000198FCF7CFFB00BF00BF46F2B01020802B
:105910000020CFE65548007800280DDD00BFFCF7D9
:10592000D3FB00BF0198FCF7BDFB00BF00BF46F6EC
:10593000635020800020BDE600BF4C480078401C2A
:105940004A49087008460078012801D1FEF710FE88
:1059500000BFFCF7B9FB00BF0198FCF7A3FB00BF39
:1059600000BF00BF4B464246294602A8CDF800B012
:10597000FFF770FE00BF00BF00BFFCF78FFB019078
:1059800000BFFCF7C0FB00BF38480078401E374915
:1059900008700846007808B9FEF72CFE00BFFCF737
:1059A00093FB00BF0198FCF77DFB00BF00BF00BF69
:1059B00013E1286A28EA0006464519D1BAF1010F19
:1059C00002D1286A3043286225480068C0F8846004
:1059D0000FB1686A386000BFFCF776FB00BF019822
:1059E000FCF760FB00BF00BF00202080304661E66E
:1059F00009F4004068B100BFFCF766FB00BF0198E6
:105A0000FCF750FB00BF00BF46F2B0102080002022
:105A100050E61648007800280DDD00BFFCF754FB67
:105A200000BF0198FCF73EFB00BF00BF46F6635085
:105A3000208000203EE600BF0C480078401C0B4947
:105A4000087008460078012801D1FEF791FD00BFDB
:105A5000FCF73AFB00BF0198FCF724FB00BF07E00E
:105A60001801002070000020464C4147C000002073
:105A700000BF00BF4B464246294602A8CDF800B001
:105A8000FFF7E8FD00BF00BF00BFFCF707FB019078
:105A900000BFFCF738FB00BFF8480078401EF7490C
:105AA00008700846007808B9FEF7A4FD00BFFCF7AF
:105AB0000BFB00BF0198FCF7F5FA00BF00BF00BF69
:105AC0008BE0286A28EA0006CEB1BAF1010F02D1B4
:105AD000286A30432862EA480068C0F884600FB141
