:020000040800F2
:10000000D09000209DDD0008D9020008DB02000826
:10001000DF020008E3020008E70200080000000019
:10002000000000000000000000000000EB020008DB
:10003000ED02000800000000DFDE000815DB00080C
:10004000B7DD0008B7DD0008B7DD0008B7DD000840
:10005000B7DD0008B7DD00087D0800087F0800084C
:10006000810800088308000885080008B7DD00083B
:10007000B7DD0008B7DD0008B7DD0008B7DD000810
:10008000B7DD0008B7DD0008B7DD0008B7DD000800
:10009000B7DD0008B7DD0008B7DD000887080008F5
:1000A000B7DD0008B7DD0008B7DD0008B7DD0008E0
:1000B000B7DD0008B7DD0008B7DD0008B7DD0008D0
:1000C000B7DD0008B7DD0008B7DD0008B7DD0008C0
:1000D000B7DD0008550900086D0A0008970B0008F5
:1000E00089080008B7DD0008B7DD0008B7DD0008A3
:1000F000B7DD0008B7DD0008B7DD0008B7DD000890
:10010000B7DD0008B7DD0008B7DD0008B7DD00087F
:10011000E70C00080F0E0008EB130008B7DD00081D
:10012000B7DD0008B7DD0008B7DD0008B7DD00085F
:1001300000F002F800F04AF80AA090E8000C8244AF
:100140008344AAF10107DA4501D100F03FF8AFF28C
:10015000090EBAE80F0013F0010F18BFFB1A43F0A5
:1001600001031847A0E10000C0E100000A4410F8B4
:10017000014B14F00F0508BF10F8015B240908BFFC
:1001800010F8014B6D1E05D010F8013B6D1E01F8F3
:10019000013BF9D1641E03D0641E01F8015BFBD161
:1001A0009142E4D37047000000230024002500267C
:1001B000103A28BF78C1FBD8520728BF30C148BFCA
:1001C0000B6070471FB51FBD10B510BD0DF03BFE95
:1001D0001146FFF7F7FF00F008F80DF059FE03B4E1
:1001E000FFF7F2FF03BC0DF061FE10B500F03FF821
:1001F000002010BD10B503F02FF910BD70477047F7
:100200000EB500F000FB00BF00F08FF90028FBD115
:1002100003F0C6F900F004FB044626480068B4FB6E
:10022000F0F528460DF094FC03F07AFC02A809F0E2
:1002300001FF03F053FAFFF7E2FFFFF7DFFF0020B3
:10024000009008230B220C21019040F2E47000F092
:100250005AFF00BF184801F035F802A800210B46EC
:100260000122CDE9001008460CF0ABFCF2E700B526
:100270008BB0FFF7BFFF0AA805F012FA0AA8032106
:1002800000220592CDE906210890052080210C224C
:100290000A4BCDE90132CDE9031002200023084AC0
:1002A00008A100900B480AF0FCFA0AA805F0DBFC54
:1002B0000BB000BD54E10008000000200402002043
:1002C00001020008417070205461736B2053746107
:1002D000727400003C010020704700BFFEE700BFC1
:1002E000FEE700BFFEE700BFFEE770477047000073
:1002F0002DE9F04104460D46164600274FF4805183
:10030000FE4801F096FA05F01F0040EA040738465F
:1003100000F0B6FE304600F0B3FE4FF48051F748CF
:1003200001F085FABDE8F08170B505460C4600265F
:100330004FF48051F14801F07CFA04F01F0040EACC
:100340000506304600F09CFEFF2000F099FE0646B0
:1003500004F0800018B1FF2000F092FE06464FF432
:100360008051E64801F063FA304670BD10B504468E
:1003700004F06000E249097888420ED003221F2170
:10038000A020FFF7B5FFC4F341121F218020FFF723
:10039000AFFF04F06000DA49087010BD10B50446E4
:1003A0002046FFF7E3FF21460020FFF7BDFF10BD09
:1003B00070B504460D462046FFF7D8FF2A46214671
:1003C0004020FFF795FF70BD70B505460C4600262E
:1003D0002946D420FFF7ECFFE1B2D620FFF7E8FF73
:1003E0002112D720FFF7E4FF02E0012000F0F0FF28
:1003F000EA20FFF7D3FF00F0010018B13046761C69
:10040000FA28F2D370BD2DE9F041044600250027FB
:10041000D220FFF7C3FF05462146D420FFF7C8FFCF
:1004200045F00101D220FFF7C3FF01E0781C87B23D
:10043000EA20FFF7B3FF00F0010018B14FF6FF709C
:100440008742F3DB25F00101D220FFF7B1FFD8206E
:10045000FFF7A4FF0646D920FFF7A0FF46EA0026D3
:100460003046BDE8F08170B505460C464FF480512A
:10047000A24801F0DEF93A2000F002FE04E0FF207D
:1004800000F0FEFD2070641C281EA5F10105F6D1C8
:100490004FF48051994801F0CAF970BD70B5044617
:1004A0000D464FF48051954801F0C3F97A2000F0D1
:1004B000E7FD04E0641E287800F0E2FD6D1C002CCE
:1004C000F8D14FF480518D4801F0B1F970BD10B5ED
:1004D00000244FF48051894801F0ABF90A2000F064
:1004E00077FF4FF48051854801F0A1F90A2000F010
:1004F0006FFF03E0641C012000F06AFF1D20FFF77E
:100500004DFF00F0010018B940F6C4108442F1D349
:10051000FA2C01D3012010BD0020FCE710B5722099
:10052000FFF73CFF00F01F0010BD70B50025002450
:100530007448046802207249087208720872210C1B
:100540006F48C172210A0173447300F049FDFFF73F
:10055000BEFF012800D170BDFFF7E0FF0546002077
:100560006749486000210820FFF722FF0021092089
:10057000FFF71EFF10210A20FFF71AFF1A210B2098
:10058000FFF716FF11210420FFF712FF1A210520A3
:10059000FFF70EFFFF210620FFF70AFF1F210720AC
:1005A000FFF706FF00210C20FFF702FF00210D20BE
:1005B000FFF7FEFE00213820FFF7FAFE3F2128203A
:1005C000FFF7F6FE30212920FFF7F2FEF921302057
:1005D000FFF7EEFEF7213120FFF7EAFE0D21C020E4
:1005E000FFF7E6FE0021C120FFF7E2FE3321C22023
:1005F000FFF7DEFEEE21CA20FFF7DAFE0521CB2051
:10060000FFF7D6FE1521C420FFF7D2FE1221C62027
:10061000FFF7CEFE0C21C720FFF7CAFE3848017A4B
:10062000E420FFF7C5FE3648417AE520FFF7C0FE1B
:100630003348817AE220FFF7BBFE3148C17AE320DC
:10064000FFF7B6FE2E48017BE020FFF7B1FE2C48F5
:10065000417BE120FFF7ACFE4FF480710020FFF7F3
:10066000B3FE4FF480711020FFF7AEFE1F20FFF79E
:100670007DFECB221B218020FFF73AFE04221F21A2
:100680008020FFF735FE002065E710B50020FFF75A
:10069000BAFE00F48074201210BD70B504460D46F9
:1006A00000BF1F20FFF77AFE00F008000028F8D1F5
:1006B00011210220FFF77CFE1A210320FFF778FEAC
:1006C00011202044C1B20620FFF772FE41F611202E
:1006D0002044C0F307210720FFF76AFE00221146DD
:1006E0007A20FFF705FE29462046FFF7D7FE0822AD
:1006F0001F218020FFF7FCFD1C2005E0000C0140BD
:1007000004040020E8F7FF1FFFF748FE00F0020096
:1007100038B11F20FFF72AFE08221F21A020FFF773
:10072000E7FD70BD2DE9F04105460F460026002487
:100730003920FFF733FE10B90020BDE8F0812A48C8
:1007400001790020FFF734FE27488088C0F3072195
:100750000120FFF72DFE00213A20FFF7E5FD224999
:10076000486000213A20FFF7DFFD1F49496841EA50
:1007700000201D49486000213A20FFF7D5FD0446BE
:1007800000213A20FFF7D0FD44EA0024241F002175
:100790003A20FFF7C9FD064600213A20FFF7C4FDC5
:1007A00046EA0026681EA04200D200E02046044629
:1007B00006F0800008B9002403E039462046FFF720
:1007C00052FE094801790C20FFF7F2FD06488088A7
:1007D000C0F307210D20FFF7EBFD40221E218020F2
:1007E000FFF786FD2046A8E70404002010B5044664
:1007F000052C06D120211B4800F0FFFF00B900BFE7
:1008000000BF00BF10BD10B54FF4C06000F032FE55
:10081000012000F0FDFD00F040F800F0D2F810BD1E
:1008200000B585B0684601F00AFA019805B000BD30
:1008300010B50D48006840F080700B49086000203A
:100840000A4948600846006840F001000860FFF768
:10085000E7FF0446204602F01EFF10BD0348406833
:100860007047000000180140FCED00E0001000E0BF
:1008700070477047704702460020704770477047C6
:10088000704770477047704770470000FE4B186014
:10089000FE4B1960FE4B1A60704700B587B001210E
:1008A000880301F039FA01217D2001F035FA4FF477
:1008B0000070ADF8180003208DF81A0018208DF88C
:1008C0001B0006A9F34800F005FF4FF48060ADF867
:1008D000180003208DF81A0048208DF81B0006A987
:1008E000EC4800F0F7FE25208DF8040000208DF87C
:1008F000050001208DF806008DF8070001A800F022
:10090000BEFD4FF4E13002900020ADF80C00ADF8D0
:100910000E00ADF81000ADF814000C20ADF8120078
:1009200002A9DD4802F0D7FB0121DB4802F05FFCA1
:100930004021D94802F043FD012240F22551D6481A
:1009400002F061FC002240F22771D34802F05BFC08
:1009500007B000BD10B5002440F22551CE4802F08A
:1009600037FD80B1CC4802F0B3FCC4B2C748006880
:1009700020B121460020C54A1268904740F2255117
:10098000C54802F04FFD40F22771C34802F020FD38
:10099000B0B1BD48006870B121460020BA4A126863
:1009A000904720B92146BC4802F08EFC03E00020AD
:1009B000B7490968884740F22771B74802F032FD0D
:1009C00010BD00B587B00121480401F0B2F9012142
:1009D0007D2001F0A1F926208DF8040000208DF87B
:1009E000050001208DF806008DF8070001A800F031
:1009F00046FD0420ADF8180003208DF81A001820D9
:100A00008DF81B0006A9A34800F064FE0820ADF88D
:100A1000180003208DF81A0048208DF81B0006A945
:100A20009C4800F057FE4FF4E13002900020ADF8F2
:100A30000C00ADF80E00ADF81000ADF814000C205D
:100A4000ADF8120002A9954802F045FB0121934838
:100A500002F0CDFB4021914802F0B1FC012240F2AE
:100A600025518E4802F0CFFB07B000BD10B5002421
:100A700040F22551894802F0ABFC80B1874802F072
:100A800027FCC4B28148006820B1214601207F4A7A
:100A90001268904740F22551804802F0C3FC40F2B2
:100AA00027717E4802F094FCE0B177480068A0B15D
:100AB00021460120744A1268904720B921467748A0
:100AC00002F002FC09E0002240F22771734802F0B4
:100AD0009AFB01206E490968884740F227716F48E8
:100AE00002F0A0FC10BD00B587B00121880401F020
:100AF00020F901217D2001F00FF927208DF8040055
:100B000000208DF8050002208DF8060001208DF8E8
:100B1000070001A800F0B3FC4FF48060ADF81800A6
:100B200003208DF81A0018208DF81B0006A95C48D8
:100B300000F0D0FD4FF40060ADF8180003208DF8F0
:100B40001A0048208DF81B0006A9554800F0C2FD88
:100B50004FF4E13002900020ADF80C00ADF80E002B
:100B6000ADF81000ADF814000C20ADF8120002A989
:100B70004C4802F0B0FA01214A4802F038FB40210B
:100B8000484802F01CFC012240F22551454802F081
:100B90003AFB07B000BD10B5002440F22551414892
:100BA00002F016FC80B13F4802F092FBC4B2374815
:100BB000006820B121460220344A1268904740F272
:100BC0002551384802F02EFC40F22771354802F0DA
:100BD000FFFBE0B12C480068A0B1214602202A4A60
:100BE0001268904720B921462E4802F06DFB09E0BB
:100BF000002240F227712B4802F005FB0220244915
:100C00000968884740F22771264802F00BFC10BDA6
:100C100000B587B00121C80401F08BF801217D20C7
:100C200001F07AF834208DF8040000208DF80500DA
:100C300003208DF8060001208DF8070001A800F0C0
:100C40001EFC4FF48060ADF8180003208DF81A00E8
:100C500018208DF81B0006A9134800F03BFD4FF447
:100C60000060ADF8180003208DF81A0048208DF8B8
:100C70001B0006A90C4800F02DFD4FF4E130029056
:100C80000020ADF80C0011E0080000200C0000204E
:100C900010000020000801400038014000440040DE
:100CA000000C01400048004000100140ADF80E006B
:100CB000ADF81000ADF814000C20ADF8120002A938
:100CC000894802F008FA0121874802F090FA402191
:100CD000854802F074FB012240F22551824802F05F
:100CE00092FA07B000BD10B5002440F225517E48AD
:100CF00002F06EFB80B17C4802F0EAFAC4B27B4895
:100D0000006820B121460320784A1268904740F2DB
:100D10002551754802F086FB40F22771724802F0B7
:100D200057FBE0B172480068A0B121460320704A29
:100D30001268904720B921466B4802F0C5FA09E0D5
:100D4000002240F22771684802F05DFA03206949E9
:100D50000968884740F22771634802F063FB10BDC1
:100D600000B587B00121080500F0E3FF01217D20D7
:100D700000F0D2FF35208DF8040000208DF805002A
:100D800004208DF8060001208DF8070001A800F06E
:100D900076FB4FF48050ADF8180003208DF81A0050
:100DA00018208DF81B0006A9534800F093FC04207E
:100DB000ADF8180003208DF81A0048208DF81B00AC
:100DC00006A94E4800F086FC4FF4E1300290002066
:100DD000ADF80C00ADF80E00ADF81000ADF8140041
:100DE0000C20ADF8120002A9454802F074F9012167
:100DF000434802F0FCF94021414802F0E0FA0122A8
:100E000040F225513E4802F0FEF907B000BD10B592
:100E1000002440F225513A4802F0DAFA80B138480D
:100E200002F056FAC4B23148006820B121460420CD
:100E30002E4A1268904740F22551314802F0F2FAEA
:100E400040F227712E4802F0C3FAE0B1284800684A
:100E5000A0B121460420264A1268904720B92146B5
:100E6000274802F031FA09E0002240F227712448B5
:100E700002F0C9F904201F490968884740F2277128
:100E80001F4802F0CFFA10BD2DE9F04186B00446AC
:100E90000E4617460025A84614221A4901A80CF050
:100EA0009DFF00BF1CE04FF000080AE0404608F13B
:100EB000010840F6B831884203D9012006B0BDE8E8
:100EC000F08101A951F82400402102F06BFA0128B9
:100ED000ECD1715D01AA52F8240002F0F5F96D1C05
:100EE000BD42E0D30020E9E7004C00400C000020A8
:100EF00008000020100000200010014000140140F4
:100F00000050004040DF000800B587B00121080311
:100F100000F002FF01217D2000F0FEFEE020ADF890
:100F2000040003208DF8060018208DF8070001A9A1
:100F3000624800F0CFFB1020ADF8040003208DF8CC
:100F4000060010208DF8070001A95C4800F0C2FBE4
:100F500010215A4800F06BFC0020ADF808004FF457
:100F60008270ADF80A000020ADF80C000220ADF848
:100F70000E000120ADF810004002ADF8120008206C
:100F8000ADF814000020ADF816000720ADF81800E9
:100F900002A94B4800F0EEFF0121494801F08FF80B
:100FA00007B000BD10B5044600BF0221444801F05F
:100FB0000AF90028F9D02146414801F0B1F800BFF4
:100FC00001213F4801F0FFF80028F9D03C4801F02A
:100FD000A9F8C0B210BD10B5A520FFF7E3FF10BD02
:100FE00000B587B00121880300F0A3FE01217D2018
:100FF00000F092FE4FF46040ADF8040003208DF83D
:10100000060018208DF8070001A92E4800F062FBA9
:101010004FF48050ADF8040003208DF80600102036
:101020008DF8070001A9274800F054FB4FF48051C8
:10103000244800F0FCFB0020ADF808004FF482705B
:10104000ADF80A000020ADF80C00ADF80E00ADF8C8
:1010500010004FF40070ADF812003820ADF8140005
:101060000020ADF816000720ADF8180002A91648B8
:1010700000F080FF0121144801F021F807B000BD05
:1010800010B5044600BF02210F4801F09CF800286B
:10109000F9D021460C4801F043F800BF01210A486D
:1010A00001F091F80028F9D0074801F03BF8C0B2F0
:1010B00010BD10B5A520FFF7E3FF10BD00080140EB
:1010C00000300140000C0140003800400146CA17C2
:1010D00001EB92729210A1EB820292B9642091FB13
:1010E000F0F200FB121050B94FF4C87091FBF0F20F
:1010F00000FB121008B9012070470020FCE7012016
:10110000FAE70020F8E72DE9F05F06460F46904623
:101110009946DDE90AAB002440F2B270864203DB57
:1011200040F63300864202DD0120BDE8F09F40F228
:10113000B2750AE02846FFF7C9FF10B19C48044485
:1011400001E09C480444681C85B2B542F2DB781E7D
:10115000C7B2002510E09848405D40F2A321484303
:1011600004EBC0143046FFF7B1FF18B1012D01D1D7
:1011700092480444681C85B2BD42ECDBA8F1010032
:1011800040F2A321484304EBC014C9EB4910C0EB63
:10119000092004EB0014CAEB0A1004EB80045C4441
:1011A00000F07AFE204600F044FE00F075FE0020BC
:1011B000BBE71CB501214FF0C05000F0BAFD012083
:1011C00000F0E1FB042000F0F8F94AF2A551884252
:1011D00001D100201CBD00F0BBF9012000F009FD89
:1011E00000BF412000F06DFC0028FAD04FF4807061
:1011F00000F01BFD012000F01EFD00F04DFE00F090
:1012000054FE00F049FE0121084600F0E9FD00F01F
:1012100043FE00F0F2FD47F6FF7000F017FE00F00D
:101220003BFE00200090082301221146019040F26D
:10123000B270FFF768FF00F0E9FD4AF2A551042003
:1012400000F0AFF90020C5E7FEB503460C46154691
:101250000FF26C1C9CE881108DE88110642093FBD8
:10126000F0F0C6B2642093FBF0F700FB1730C1B278
:10127000132E02DD01F16400C1B20846CF1701EB65
:10128000977701EBA707BAB2072092FBF0F700FBB4
:10129000172082B25719601E1DF80000384482B230
:1012A000CF1701EB9777BF10A1EB87071FB9032C6E
:1012B00001DA501E82B2072092FBF0F700FB1720E4
:1012C000C0B2FEBD2DE9F0410546002700240026EE
:1012D00015B90120BDE8F08100F0A2FD07463748AE
:1012E000B7FBF0F439480088A04239D037490C8068
:1012F00040F2B27610E03046FFF7E8FE40B1B4F5B8
:10130000B77F02D3A4F5B77404E0701C86B206E080
:10131000A4F26D14701C86B2B4F5B67FEBD800BF92
:101320002E80002615E02888FFF7D0FE30B1012E70
:1013300004D11D2C01D31D3C09E00CE01E48805D4A
:10134000A04203D81C48805D241A00E003E0701C12
:1013500086B21C2CE7D200BF701CA870601CE8701D
:101360001648B7FBF0F100FB11744FF46160B4FB59
:10137000F0F068714FF46160B4FBF0F100FB1140D4
:101380003C21B0FBF1F0A8714FF46160B4FBF0F1C7
:1013900000FB11403C21B0FBF1F201FB1200E871AF
:1013A000EA78A9782888FFF74FFF2871002091E795
:1013B0000085E2018033E10154DF00088051010023
:1013C00000030306010406020500030514000020C3
:1013D0002649096801B170472449086000BF2349C4
:1013E00009680029FBD100BFF5E710B501212048AD
:1013F00001F019FE38B11D48006820B11B48006893
:10140000401E1A4908600121194801F01DFE10BD57
:101410001FB504460121102000F08BFCADF80840F8
:1014200040F60F60ADF804000020ADF80A00ADF8FA
:10143000060001A90E4800F0D1FF012241210C480D
:1014400001F043FB01210A4801F024FB36208DF80E
:10145000000002208DF801008DF8020001208DF8B7
:101460000300684600F00BF81FBD000018000020C4
:101470000010004031490143314A1160704770B596
:10148000002100230F22C47804B32D4C246804F4F7
:10149000E064C4F5E064210AC1F10403CA40447861
:1014A00004FA03F18478144021430901254C06789D
:1014B000A155047804F01F050124AC4005786D1196
:1014C000AD0005F1E025C5F8004109E0047804F01D
:1014D0001F050124AC401C4D0678761145F82640C6
:1014E00070BD1A4A0A400243154B1B1F1A60704711
:1014F00039B1134A121D12680243114B1B1D1A60A9
:1015000006E00F4A121D126882430D4B1B1D1A6024
:101510007047042808D14FF0E021096941F0040127
:101520004FF0E022116107E04FF0E021096921F05E
:1015300004014FF0E0221161704700000000FA053D
:101540000CED00E000E400E080E100E080FFFF1F20
:1015500010B5012000F014FC002000F011FC10BDBB
:101560002A49086070472949091F086070472749C0
:1015700084310860704701460020254A10884FF6E4
:101580007F4210400843224A1080704701460020E5
:101590001F4A10884FF68072104008431C4A108082
:1015A000704708B500220092194A2C3A0092009A1E
:1015B00002440092009A116008BD08B5014600205F
:1015C000009013482C380090009808440090009830
:1015D000008808BD0D489C300068C0B270470C48B8
:1015E0000830008840F00100094908310880704740
:1015F0000648A0300068C0B270470548083000882F
:1016000040F00200024908310880704704860D420C
:101610002C6C004010B50446CC48844208D101210E
:10162000042000F093FB0021042000F08FFB46E033
:10163000C748844208D10121082000F087FB00211F
:10164000082000F083FB3AE0C248844208D101211F
:10165000102000F07BFB0021102000F077FB2EE033
:10166000BD48844208D10121202000F06FFB0021F9
:10167000202000F06BFB22E0B848844208D1012111
:10168000402000F063FB0021402000F05FFB16E0EB
:10169000B348844208D10121802000F057FB00218B
:1016A000802000F053FB0AE0AE48844207D10121BC
:1016B000801500F04BFB0021A01500F047FB10BD8A
:1016C00010B50121084600F041FB0021012000F087
:1016D0003DFB10BD2DE9F04102460025002600200B
:1016E00000230024002791F803C00CF00F0591F8A7
:1016F00003C00CF0100CBCF1000F03D091F802C035
:101700004CEA050591F800C0BCF1000F31D0146817
:1017100000202BE04FF0010C0CFA00F3B1F800C0F0
:101720000CEA03069E4220D183004FF00F0C0CFA06
:1017300003F7BC4305FA03FC4CEA040491F803C028
:10174000BCF1280F06D14FF0010C0CFA00FCC2F8D6
:1017500014C00AE091F803C0BCF1480F05D14FF066
:10176000010C0CFA00FCC2F810C0401C0828D1D3B0
:101770001460B1F800C0BCF1FF0F34DD54680020E4
:101780002EE000F1080C4FF0010808FA0CF3B1F854
:1017900000C00CEA03069E4221D183004FF00F0CDB
:1017A0000CFA03F7BC4305FA03FC4CEA040491F875
:1017B00003C0BCF1280F05D100F1080C08FA0CF8A1
:1017C000C2F8148091F803C0BCF1480F07D100F1B2
:1017D000080C4FF0010808FA0CF8C2F81080401C01
:1017E0000828CED35460BDE8F0814FF6FF71018028
:1017F000022181700421C170704702460020936865
:101800000B400BB1012000E00020704701468868C2
:1018100080B2704702460020D3680B400BB1012014
:1018200000E0002070470146C86880B2704701613F
:101830007047416170470AB1016100E04161704742
:10184000C16070474FF480320A43826181618261D6
:1018500082698269704702460020434B18684FF640
:101860008073184040EA021008433F4B18607047ED
:101870003E49C8617047F0B50A46002300240021A4
:10188000002500F00046B6F1004F02D1364EF16956
:1018900001E0354E7168C0F3034583B200F4401691
:1018A000B6F5401F08D121F070612F4E766826F002
:1018B00070662D4F7E6012E000F48016B6F5801F32
:1018C00006D1032606FA05F4A14341F0706106E053
:1018D000460D360103FA06F6B14341F0706122B1BC
:1018E000460D360103FA06F6314300F00046B6F124
:1018F000004F02D11C4EF16101E01B4E7160F0BD42
:1019000030B500228B071C0F0F2303FA04F2164B8D
:1019100008338C1053F824309343134C08348D1043
:1019200044F8253023468C1053F824308C07240FBC
:1019300000FA04F423430C4C08348D1044F825308D
:1019400030BD0A49DC3108607047000000080140E2
:10195000000C01400010014000140140001801403B
:10196000001C014000200140000001400000204216
:1019700010B50121080700F0F6F900214FF0805062
:1019800000F0F1F910BD2A49086270472849086142
:10199000704701460020274A106820F0E000084305
:1019A000106070472249A0310860704710B50246A8
:1019B0000020204B186820F00300104318601E4BD5
:1019C0001B6843F004031C4C2360012901D130BF84
:1019D00000E020BF184B1B6823F00403164C236063
:1019E00010BD1448006840F0040012490860084621
:1019F000006840F0020008600F48006840F00400F2
:101A00000D49086000BF00BF30BF7047014600208D
:101A1000084A52680A400AB1012000E000207047DD
:101A20000449096841EA8001024A116070470000D8
:101A300000000E420070004010ED00E0DF4800683A
:101A400040F00100DD49086008464068DC49084074
:101A5000DA49486008460068DA490840D749086012
:101A60000846006820F4802008600846406820F49A
:101A7000FE0048604FF41F0088607047CF49096836
:101A800021F48031CD4A11601146096821F480218A
:101A90001160B0F5803F03D0B0F5802F0ED106E085
:101AA000C649096841F48031C44A116007E0C3495E
:101AB000096841F4A021C14A116000E000BF00BFE5
:101AC000704710B501460022002300204A11012A68
:101AD00002D1BA4C236806E0022A02D1B74C236A2D
:101AE00001E0B64C636A01F01F02012494401C40DF
:101AF0000CB1012000E0002010BD38B5002000909E
:101B00000024002500BF3120FFF7DBFF05460098C9
:101B1000401C00900098B0F5A06F01D0002DF2D0CD
:101B20003120FFF7CEFF08B1012400E00024204659
:101B300038BD01460020A14A106820F0F80040EAB4
:101B4000C10010607047A04908607047024600203D
:101B50009A4B586820F47C1042EA01031843974BD3
:101B60005860704798490866704701460020934ABC
:101B7000506820F003000843506070478F48406869
:101B800000F00C007047014600208C4A506820F09D
:101B9000F00008435060704701460020874A5068B3
:101BA00020F4E06008435060704701460020834AFB
:101BB000506820F4605040EAC1005060704729B17D
:101BC0007E4A527A02437D4B5A7204E07B4A527A33
:101BD00082437A4B5A7270477B49D831086070470C
:101BE00001460020754A506820F440400843506088
:101BF00070470021714A20321170704A82F820101B
:101C0000012802D004280AD104E001216B4A2032C5
:101C1000117005E00521694A2032117000E000BF13
:101C200000BF70476949086070476449096A014309
:101C3000624A11627047654944390860704730B59F
:101C400000210022002400235C4D6D6805F00C018A
:101C500021B1042905D0082923D105E05C4D056098
:101C600022E05B4D05601FE0544D6D6805F4701275
:101C7000524D6D6805F48034022505EB92421CB983
:101C8000544D554305600BE04C4D6D6805F400352F
:101C90001DB1504D5543056002E04D4D5543056063
:101CA00002E04B4D056000BF00BF444D6D6805F07C
:101CB000F0010909484D6B5C0568DD4045603F4D0A
:101CC0006D6805F4E061090A434D6B5C4568DD40D1
:101CD00085603A4D6D6805F46051C90A3E4D6B5CF4
:101CE0004568DD40C560354D6D6805F44041890BA0
:101CF0003A4D6B5CC568B5FBF3F5056130BD29B1A4
:101D00002E4A526902432D4B5A6104E02B4A526914
:101D100082432A4B5A61704729B1284A926902438B
:101D2000264B9A6104E0254A92698243234B9A61CB
:101D3000704729B1214AD2690243204BDA6104E09D
:101D40001E4AD26982431D4BDA61704729B11B4A92
:101D5000D2680243194BDA6004E0184AD268824321
:101D6000164BDA60704729B1144A12690243134BCB
:101D70001A6104E0114A12698243104B1A617047DC
:101D800012494039086070470F49C86470470B49D1
:101D9000C87170470948406A40F08070074948623E
:101DA000704701460020054A92680A400AB10120A6
:101DB00000E000207047014988727047001002401F
:101DC0000000FFF8FFFFF6FE00004242800442429E
:101DD00000127A0000093D001C0000202C000020A9
:101DE00029B1504A128802434E4B1A8004E04D4AF2
:101DF000128882434B4B1A8070474A48001D008866
:101E000040F010004749091D088070474548001DF3
:101E100000884FF6EF7108404249091D088070475D
:101E2000002140481C300188001F008841EA004022
:101E3000704700B50246FFF7E0FF100C3949183132
:101E40000880091D0A80FFF7E1FF00BD00B50246CA
:101E5000FFF7D3FFC2F30340324908310880091D60
:101E60000A80FFF7D3FF00BD00B50246FFF7C5FFAC
:101E7000100C2C4920310880091D0A80FFF7C6FF8D
:101E800000BD00202749103109880907080B2549A2
:101E9000143109880843704700BF2248001D00889C
:101EA00000F020000028F8D070471E48001D008870
:101EB0004FF6F77108401B49091D088000BF1948FB
:101EC000001D008800F008000028F8D07047014687
:101ED0000020144A121D12880A400AB1012000E0B5
:101EE000002070470F49091D098881430D4A121DC2
:101EF00011807047014600200A4A121D12880A40CC
:101F0000D0B2084A12880A4012B108B1012000E09C
:101F1000002070470349091D09888143014A121DA9
:101F2000118070470028004010B50446BE48844226
:101F300008D101218014FFF709FF0021A014FFF749
:101F400005FF16E0B948844208D101210014FFF7CB
:101F50000AFF00212014FFF706FF0AE0B44884427C
:101F600007D10121C013FFF7FEFE0021E013FFF7A8
:101F7000FAFE10BD10B50022028802F441520B880F
:101F80004C8823438C882343CC8823430C892343E8
:101F90004C8923438C892343CC8923431A430280F1
:101FA000838B4FF2FF74234083830B8A038210BD1F
:101FB0002DE9F04F85B005460C464FF00009022789
:101FC0004FF000084FF0010B0026B246A88B4FF2ED
:101FD00040010840A88302202884B5F81C90A0681E
:101FE000022801D100BF38E0A08810B94FF0010BE2
:101FF00001E04FF0020B8D48854200D100E000BFA8
:102000006846FFF71CFEDDF800A0E088B0F5007F11
:102010000AD14FEA1A2000EB80004000A168B0FB13
:10202000F1F0401D86B20BE04FEA4B10BAFBF0F026
:1020300000EB80004000A168B0FBF1F0401D86B2CB
:102040000A20B6FBF0F606F00108A6EB0800C0F384
:102050004F074FF6FF7000EA0828022F01DBFF2F21
:1020600002DD02274FF00008E08840EA080038430C
:102070002884A088A18908436188084321880843EF
:1020800040F4006040EA0909A5F81C9005B0BDE8DD
:10209000F08F0021018041808180C18001814181D8
:1020A0008181C18107210182704700210180418027
:1020B0008180C1800221816000218181704721B12E
:1020C000028842F04002028004E002884FF6BF73AB
:1020D0001A400280704721B1828B42F48062828371
:1020E00004E0828B4FF6FF331A408283704730B58D
:1020F000002400230C110125A540ABB21AB185883C
:102100001D43858002E085889D43858030BD1AB1DE
:1021100083880B43838002E083888B4383807047EE
:10212000818170470146888970474FF6FF6291426E
:1021300004D0028842F48072028004E002884FF6E4
:10214000FF631A400280704721B1828842F0040286
:10215000828004E082884FF6FB731A4082807047C9
:1021600002884FF2FF731A40028002880A430280FD
:102170007047018841F480510180704721B1028885
:1021800042F40052028004E002884DF6FF731A40C8
:102190000280704702460020012901D0108B00E028
:1021A000908A70470146088A7047B1F5804F04D184
:1021B000028842F48042028004E002884BF6FF73FA
:1021C0001A40028070470246002013890B400BB171
:1021D000012000E000207047CA4302817047F0B53B
:1021E0000246002000240023002501F00F070126ED
:1021F000BE40B4B20B1101269E40B3B2968806EAE7
:1022000003051689264016B10DB1012000E000201B
:10221000F0BD10B5002201F00F040123A3409AB2D3
:10222000D343038110BD000000300140003800405E
:10223000003C004010B50446FE48844208D101210C
:10224000C014FFF783FD0021E014FFF77FFDC4E019
:10225000B4F1804F08D101210846FFF784FD002129
:102260000120FFF780FDB8E0F348844208D1012146
:102270000220FFF778FD00210220FFF774FDACE09B
:10228000EE48844208D101210420FFF76CFD0021B3
:102290000420FFF768FDA0E0E948844208D101214D
:1022A0000820FFF760FD00210820FFF75CFD94E0A7
:1022B000E448844208D101211020FFF754FD002199
:1022C0001020FFF750FD88E0DF48844208D101214B
:1022D0002020FFF748FD00212020FFF744FD7CE08F
:1022E000DA48844208D101214014FFF72FFD002174
:1022F0006014FFF72BFD70E0D548844209D101211D
:10230000C804FFF723FD00214FF40020FFF71EFD56
:1023100063E0D048844209D101210805FFF716FD8A
:1023200000214FF48010FFF711FD56E0CA488442A7
:1023300009D101214805FFF709FD00214FF40010E4
:10234000FFF704FD49E0C548844208D1012140203F
:10235000FFF709FD00214020FFF705FD3DE0C048E3
:10236000844208D101218020FFF7FDFC002180205C
:10237000FFF7F9FC31E0BB48844208D10121801508
:10238000FFF7F1FC0021A015FFF7EDFC25E0B648B2
:10239000844209D101210804FFF7D8FC00214FF441
:1023A0008030FFF7D3FC18E0B048844209D1012106
:1023B0004804FFF7CBFC00214FF40030FFF7C6FCC8
:1023C0000BE0AB48844208D101218804FFF7BEFC32
:1023D00000214FF48020FFF7B9FC10BD00220288D5
:1023E000944B98420ED0994B98420BD0B0F1804F4D
:1023F00008D0914B984205D0904B984202D0904B18
:10240000984204D14FF68F731A404B881A438D4B74
:10241000984207D08C4B984204D04FF6FF431A40A5
:10242000CB881A4302808B8883850B880385814B78
:1024300098420BD0854B984208D08B4B984205D0E0
:102440008A4B984202D08A4B984201D10B7A03867C
:1024500001238382704770B5002400220023058C7D
:102460004FF6FE7635400584028C8388048B4FF648
:102470008F752C40B51E2C400D882C43751E2A40AC
:102480000D892A434D882A436A4DA8420BD06F4DCF
:10249000A84208D0744DA84205D0744DA84202D07D
:1024A000734DA84213D14FF6F7752A404D892A4340
:1024B0004FF6FB752A408D882A434FF6FF652B4067
:1024C0004FF6FF552B408D892B43CD892B438380BD
:1024D0000483CD888586028470BD70B500240022F7
:1024E0000023058C4FF6EF7635400584028C8388F7
:1024F000048B48F6FF752C404FF6FF452C400D88A5
:102500004FF6FF7606EA05252C434FF6DF752A4085
:102510000D8906EA05152A434D8806EA05152A4362
:10252000444DA84202D0494DA8421DD14FF67F75B7
:102530002A404D894FF6FF7606EA05152A434FF6E5
:10254000BF752A408D8806EA05152A434FF6FF35E8
:102550002B404FF2FF752B408D8906EA85052B43F2
:10256000CD8906EA85052B4383800483CD880587C2
:10257000028470BD70B5002400220023058C4FF644
:10258000FF6635400584028C8388848B4FF68F75F7
:102590002C404FF6FC752C400D882C434FF6FF5510
:1025A0002A400D894FF6FF7606EA05252A434D8815
:1025B00006EA05252A431F4DA84202D0234DA84212
:1025C0001DD14FF2FF752A404D894FF6FF7606EA7E
:1025D00005252A434FF6FF352A408D8806EA052552
:1025E0002A434EF6FF752B404DF6FF752B408D8923
:1025F00006EA05152B43CD8906EA05152B43838092
:102600008483CD888587028470BD70B50022002345
:102610000024058C4EF6FF7635400584038C8488B3
:10262000828B48F6FF752A404FF6FF452A400D88F9
:1026300020E00000002C01400004004000080040A1
:10264000000C004000100040001400400034014025
:10265000004C01400050014000540140001800406F
:10266000001C0040002000400040014000440140A8
:10267000004801404FF6FF7606EA05252A434DF64D
:10268000FF752B400D8906EA05352B434D8806EA78
:1026900005352B43FA4DA84202D0FA4DA84208D185
:1026A0004BF6FF752C408D894FF6FF7606EA8515AF
:1026B0002C4384808283CD88A0F84050038470BD71
:1026C000828B4FF2FF331A408283828B4FF6FF7367
:1026D00003EA01231A4382837047F0B50C4615467E
:1026E000002200210026078C4EF6FF7C07EA0C072B
:1026F0000784828B018C4FF6FF7707EA043640F699
:10270000FF473A404FF6FF7707EA05273A434FF66F
:10271000FF7707EA03373A43D94FB8420ED0D94F73
:10272000B8420BD0B0F1804F08D0D74FB84205D097
:10273000D64FB84202D0D64FB84206D14DF6FF77F9
:10274000394046F48057394305E047F6FF57394092
:1027500044F48057394382830184F0BD828B4FF665
:10276000F3731A408283828B0A4382837047F0B5E9
:102770000C461546002200210026078C4FF6FF6C00
:1027800007EA0C070784828B018C4FF6FF7707EA74
:1027900004264FF60C773A404FF6FF7707EA031707
:1027A0002F433A43B64FB8420ED0B64FB8420BD083
:1027B000B0F1804F08D0B44FB84205D0B34FB84203
:1027C00002D0B34FB84206D14FF6FF57394046F416
:1027D0008077394305E04FF2FF57394044F4807762
:1027E000394382830184F0BD028B4FF2FF331A40DC
:1027F0000283028B4FF6FF7303EA01231A4302831D
:102800007047F0B50C461546002200210026078CC3
:102810004FF6EF7C07EA0C070784028B018C4FF61A
:10282000FF7707EA041640F6FF473A404FF6FF7776
:1028300007EA03373A434FF6FF7707EA05273A439B
:102840008F4FB8420ED08F4FB8420BD0B0F1804FAF
:1028500008D08D4FB84205D08C4FB84202D08C4F73
:10286000B84206D14FF6DF77394046F010073943BA
:1028700005E04FF65F77394044F010073943028393
:102880000184F0BD028B4FF6F3731A400283028B72
:102890000A4302837047F0B50C461546002200211A
:1028A000068C4FF6FE773E400684028B018C4FF675
:1028B0000C7632407E1C06EA03162E433243704EDD
:1028C000B0420ED06F4EB0420BD0B0F1804F08D066
:1028D0006D4EB04205D06D4EB04202D06C4EB0424B
:1028E00006D14FF6FD76314044F00106314305E054
:1028F0004FF6F576314044F00106314302830184FE
:10290000F0BD70B505460C465D4885420ED05D4869
:1029100085420BD0B5F1804F08D05B48854205D089
:102920005A48854202D05A48854200D100E000BF93
:10293000208850B92389A28861882846FFF7ABFF19
:10294000E1882846FFF79EFF25E0208804280AD169
:102950002389A28861882846FFF753FFE18828462B
:10296000FFF742FF17E0208808280AD12389A288B0
:1029700061882846FFF7FBFEE1882846FFF7EEFE58
:1029800009E02389A28861882846FFF7A6FEE1882E
:102990002846FFF795FE70BD2DE9F04105460C462F
:1029A00000260127608808B9022600E00026A088DA
:1029B000012801D1022700E001272088A0B923893E
:1029C000A28861882846FFF766FFE1882846FFF75E
:1029D00059FF23893A4631462846FFF712FFE1881E
:1029E0002846FFF701FF13E02389A2886188284663
:1029F000FFF707FFE1882846FFF7F6FE23893A46EE
:102A000031462846FFF747FFE1882846FFF73AFF9F
:102A1000BDE8F0810A884B881A438B881A43CB881B
:102A20001A430B891A434B891A438B891A43A0F81E
:102A3000442070474FF6FF71818000210180C180E2
:102A40004180017270470021018041808180C180F6
:102A5000018141818181C1817047002101804180D4
:102A6000012181800021C180018170470021018006
:102A700041808180C1800181418181817047000056
:102A8000002C0140003401400004004000080040D8
:102A9000000C004021B1028842F00102028004E0F3
:102AA00002884FF6FE731A400280704731B1B0F8C9
:102AB000442042F40042A0F8442005E0B0F844204D
:102AC000C2F30E02A0F8442070471AB183890B4369
:102AD000838102E083898B438381704781827047C1
:102AE00041EA0203A0F8483070471AB183890B43CA
:102AF000838102E083898B438381704701894FF68C
:102B0000F8721140018170470A46002101894FF691
:102B10008F73194011430181704730B504460D464B
:102B200029462046FFF7F0FF208940F0070020816A
:102B300030BD2DE9F04104460D4616461F46602D76
:102B400006D13B46012231462046FFF75AFE05E0FA
:102B50003B46012231462046FFF79DFE294620468E
:102B6000FFF7D2FF208940F007002081BDE8F08107
:102B700030B50C4600210189C9B24FF6FF7505EA50
:102B80000325154325432943018130BD2DE9F0413B
:102B900005460E4617469846002443463A463146B7
:102BA0002846FFF7E5FF2C894FF6F870044044F003
:102BB00007044FF68F70044044F070042C81BDE888
:102BC000F081F0B504460D4616461F463B46324698
:102BD00029462046FFF7CCFF208940F48040208121
:102BE000F0BD0185828270470A46002101884FF6B8
:102BF0008F731940114301807047F0B50C4615469C
:102C00001E460021002200230189028B038C4FF60F
:102C1000F877394021434FF6FC473A4040F201171C
:102C20003A434FF6DD773B404FF6FF7707EA06174A
:102C30002F433B43018102830384F0BD0A460021F8
:102C4000018B4FF68F7319401143018370470A4679
:102C50000021018B48F6FF7319404FF6FF7303EA1A
:102C600002231943018370470A460021818B4FF6E6
:102C70008F7319401143818370470A460021818B6D
:102C800048F6FF7319404FF6FF7303EA0223194316
:102C90008183704721B1028842F08002028004E003
:102CA00002884FF67F731A400280704721B18288F4
:102CB00042F00402828004E082884FF6FB731A40DF
:102CC0008280704721B1828842F00802828004E04D
:102CD00082884FF6F7731A408280704721B182884C
:102CE00042F00102828004E082884FF6FE731A40AF
:102CF000828070470A460021018B4FF6F773194016
:102D00001143018370470A460021018B4FF2FF7384
:102D100019404FF6FF7303EA0223194301837047FA
:102D20000A460021818B4FF6F773194011438183C6
:102D300070470A460021818B4FF2FF7319404FF60E
:102D4000FF7303EA02231943818370470A46002177
:102D5000018B4FF6FB7319401143018370470A46FC
:102D60000021018B4FF6FF3319404FF6FF7303EA42
:102D700002231943018370470A460021818B4FF6D5
:102D8000FB7319401143818370470A460021818BF0
:102D90004FF6FF3319404FF6FF7303EA022319433E
:102DA000818370470A460021018B4FF67F731940DB
:102DB0001143018370470A460021018BC1F30E01C4
:102DC0004FF6FF7303EA02231943018370470A4653
:102DD0000021818B4FF67F73194011438183704727
:102DE0000A460021818BC1F30E014FF6FF7303EAFF
:102DF00002231943818370470A460021018C4FF654
:102E0000FD7319401143018470470A460021018C6B
:102E10004FF6F77319401143018470470A460021A9
:102E2000018C4FF6DF7319404FF6FF7303EA02136C
:102E30001943018470470A460021018C4FF67F73C5
:102E400019404FF6FF7303EA0213194301847047D8
:102E50000A460021018C4FF6FF5319404FF6FF73CD
:102E600003EA02231943018470470A460021018CBA
:102E70004FF2FF7319404FF6FF7303EA0223194321
:102E8000018470470A460021018C4DF6FF731940FA
:102E90004FF6FF7303EA023319430184704730B5DC
:102EA000002301248C40A3B2048C9C430484048C32
:102EB00002FA01F5ADB22C43048430BD30B50023D5
:102EC00004248C40A3B2048C9C430484048C02FA36
:102ED00001F5ADB22C43048430BD70B5034600202B
:102EE00000241846183001258D40ACB21D8CA54336
:102EF0001D8409B1082909D100EB6100056825F09E
:102F0000700505600568154305600EE00D1FC5F3EB
:102F10004E052844056825F4E045056005684FF630
:102F2000FF7606EA02263543056070BD21B10288AE
:102F300042F00202028004E002884FF6FD731A405C
:102F40000280704721B1028842F00402028004E04E
:102F500002884FF6FB731A400280704721B18288C5
:102F600042F08002828004E082884FF67F731A402C
:102F70008280704702884FF6F7731A4002800288F9
:102F80000A430280704782884FF68F731A4082800E
:102F900082880A438280704702894FF6F8731A408C
:102FA000028102890A430281704702894FF67F73CA
:102FB0001A40028102890A43028170478184704766
:102FC0008185704781867047018770478187704788
:102FD000A0F84010704702884FF6FF431A40028065
:102FE00002880A43028070470146888E7047014676
:102FF000088F70470146888F70470146B1F840003E
:1030000070470146888C70470146088D704702461C
:103010000020138A0B400BB1012000E00020704714
:10302000CA430282704730B50246002000230024C4
:10303000158A05EA0103958905EA010413B10CB16B
:10304000012000E0002030BDCA430282704700002A
:1030500010B50446FB48844209D101218803FEF7DC
:1030600075FE00214FF48040FEF770FE32E0F64816
:10307000844209D101214804FEF775FE00214FF476
:103080000030FEF770FE25E0F048844209D10121AE
:103090008804FEF768FE00214FF48020FEF763FEEF
:1030A00018E0EB48844209D10121C804FEF75BFE19
:1030B00000214FF40020FEF756FE0BE0E548844265
:1030C00008D101210805FEF74EFE00214FF48010C3
:1030D000FEF749FE10BD2DE9F04786B005460E46C5
:1030E0000024A24600BFA1460027B08900B100BF5E
:1030F0002F462C8A4CF6FF700440F08804432C8243
:10310000AC894EF6F3100440B088318908437189C8
:1031100008430443AC81AC8A4FF6FF400440B089B9
:103120000443AC8201A8FEF78AFDC648874202D15B
:10313000DDF810A001E0DDF80CA0A88900F4004043
:1031400040B10AEBCA0000EB0A1031684900B0FB3D
:10315000F1F807E00AEBCA0000EB0A1031688900B9
:10316000B0FBF1F86420B8FBF0F004012009642101
:1031700001FB1089A88900F4004040B1322000EB27
:10318000C900B0FBF1F000F00700044308E0322072
:1031900000EB09106421B0FBF1F000F00F000443D4
:1031A0002C8106B0BDE8F0874FF416510160002174
:1031B0008180C18001810C21418100218181704782
:1031C00010B502460020108A4FF2FF0318400B880A
:1031D0004C8823438C882343CC8823431843108294
:1031E00010BD0021018041808180C180704721B1E4
:1031F000828942F40052828104E082894DF6FF7395
:103200001A4082817047F0B503460024002600254D
:10321000002040F66A17B94200D100BF1846C1F33A
:10322000421401F01F06012707FA06F5012C01D10F
:103230000C3004E0022C01D1103000E014301AB13F
:1032400007682F43076002E00768AF430760F0BDDF
:103250001AB1838A0B43838202E0838A8B43838281
:103260007047028A4FF6F0731A400282028A0A43BC
:103270000282704782894FF2FF731A4082818289ED
:103280000A438281704721B1828942F00202828121
:1032900004E082894FF6FD731A4082817047028AEA
:1032A0004FF6DF731A400282028A0A430282704795
:1032B00021B1028A42F48042028204E0028A4BF683
:1032C000FF731A4002827047C1F308028280704780
:1032D00001468888C0F308007047818941F00101E8
:1032E00081817047028BD2B20283028B42EA0122B3
:1032F00002837047028B02F47F420283028B0A43EF
:103300000283704721B1828A42F02002828204E067
:10331000828A4FF6DF731A408282704721B1828A17
:1033200042F01002828204E0828A4FF6EF731A4064
:103330008282704721B1828A42F00802828204E0D0
:10334000828A4FF6F7731A408282704721B18289D0
:1033500042F40042828103E08289C2F30E0282813C
:10336000704721B1828A42F40062828204E0828A3C
:103370004FF2FF731A4082827047828A4FF6FB73C6
:103380001A408282828A0A438282704721B1828AED
:1033900042F00202828204E0828A4FF6FD731A40F4
:1033A0008282704702460020B1F5007F00D100BF45
:1033B00013880B400BB1012000E00020704701F49E
:1033C0000072B2F5007F00D100BFCA43028070478F
:1033D00070B50246002400230025002040F66A163E
:1033E000B14200D100BFC1F3421501F01F03012615
:1033F00006FA03F3012D02D19689334006E0022D2F
:1034000002D1168A334001E0968A33400C1201261D
:1034100006FA04F41688344013B10CB1012000E020
:10342000002070BD10B50022002340F66A14A142AE
:1034300000D100BF0A1201249440A3B2DC430480EF
:1034400010BD00000038014000440040004800402A
:10345000004C00400050004072B6704762B67047A2
:10346000EFF3108072B6704780F31088704730BF5A
:10347000704720BF7047B0FA80F0704790FAA0F014
:10348000B0FA80F0704790FAA0F0704710B5FB4892
:103490000088401EF949088008460088A0B9FDF759
:1034A000DDF9F749086008460068F6490968441ADA
:1034B000F5480068A04201D2F3480460F348006870
:1034C000A04201D2F148046010BD10B5F048008858
:1034D000401CEF490880E948008818B9FDF7BEF99B
:1034E000E8490860E5480088401CE449088010BDB0
:1034F00010B5002400BF00BFFFF7B2FF044600BFB5
:10350000FFF7E3FF00BF1021E24800F055FB00BFCA
:10351000FFF7BCFF00BF2046FFF7A6FF00BF00BFBC
:1035200010BD10B5FFF7E4FF10BD70B500260020F8
:10353000D7490880D1490880D2490860D04908603D
:10354000D1490860D1490860D3490860002400BF10
:10355000FFF786FF064600BF00250BE00020CA49A2
:103560000860FFF7B2FFFFF791FFC7480068044407
:10357000681C85B2002DF1D0C74804600020C24904
:103580000860C249086000BF3046FFF76DFF00BF0A
:1035900070BD10B50020C1490860FDF749F910BDA4
:1035A00010B5FFF7F6FFFFF7C0FFFFF7BAFF10BD3A
:1035B00000BFFEE770B505460C46002614B900BFF3
:1035C000FFF7F6FF15B90A20208070BD00BF00BFCD
:1035D000FFF746FF064600BFFFF777FF00BF102248
:1035E000AC49284601F07AFA00BFFFF74FFF00BF51
:1035F0003046FFF739FF00BF00BF0020208000BF2A
:10360000E3E72DE9F04105460C46002714B900BF59
:10361000FFF7CEFF1DB90A202080BDE8F081102100
:10362000284601F043FA0646102E19D200BF00BF0B
:10363000FFF716FF074600BFFFF747FF00BF102246
:103640002946944801F04AFA00BFFFF71FFF00BF68
:103650003846FFF709FF00BF00BF0020208002E0CE
:103660004FF47A70208000BFD7E710B5FDF7F6F869
:103670000446204610BD704700B5014611B900BF91
:10368000FFF796FF854A106808B1002201E04FF469
:10369000FA620A8000BD8149086070470146084609
:1036A0007D4A1268904203D97B4A1268801A00E072
:1036B0000020704770B5002500BFFFF7D1FE05461A
:1036C00000BF7148046800BF2846FFF7CDFE00BF69
:1036D0002046FFF7E3FF0646304670BD70B5002573
:1036E000FFF7E8FF044600BFFFF7BAFE054600BF3C
:1036F00000206549086000BF2846FFF7B5FE00BFFF
:10370000204670BD70B5002500BFFFF7A9FE054635
:1037100000BF5E48046800BF2846FFF7A5FE00BF53
:103720002046FFF7BBFF0646304670BD70B5054624
:103730002846FFF7A0FE0446183C204670BD70B531
:1037400005462846FFF797FE0446103C204670BD0C
:1037500070B505462846FFF78EFE044600BF20469A
:1037600070BD30B502460B460024D2F1FF359C41B6
:1037700026D24FF6FF74D2F1FF359C410FD26FF085
:103780007F44D2F1FF359C4103D2190E444C605C5A
:1037900044E0190C424C645C04F108003EE0FF2454
:1037A000D2F1FF359C4105D2190A3D4C645C04F10D
:1037B000100033E019463A4C645C04F118002DE027
:1037C0004FF6FF750024AD1A9C4115D26FF07F456E
:1037D0000024AD1A9C4107D2140E44EA0321304C58
:1037E000645C04F1200019E0140C44EA03412C4C01
:1037F000645C04F1280011E00024D2F1FF059C4133
:1038000007D2140A44EA0361254C645C04F13000D9
:1038100004E01146224C645C04F1380030BD70B500
:1038200004460CB9082070BD2046FFF727FE054668
:103830002846F8E770B504460CB9102070BD204644
:10384000FFF71CFE05462846F8E770B504460CB99C
:10385000202070BD2046FFF711FE05462846F8E7F8
:103860002DE9F04304460D46002184EA0100694039
:10387000084317D14020BDE8F08300003600002047
:103880003C000020380000204400002048000020B8
:1038900034000020140400204000002030000020EC
:1038A00060DF0008E243E843521C40F1000102EAF5
:1038B000040601EA050730463946FFF752FF804605
:1038C000C8F13F094846D6E70146412903DB5A299A
:1038D00001DC012200E00022012A08D0612903DB7B
:1038E0007A2901DC012200E00022012A01D1012213
:1038F00000E00022104670470146412903DB5A29A7
:1039000001DC012200E00022012A08D0612903DB4A
:103910007A2901DC012200E00022012A01D10122E2
:1039200000E00022012A08D0302903DB392901DC1C
:10393000012200E00022012A01D1012200E0002240
:10394000104670470146612903DB7A2901DC012218
:1039500000E00022104670470146412903DB5A2946
:1039600001DC012200E000221046704701463029A8
:1039700003DB392901DC012200E0002210467047F8
:103980000146302903DB372901DC012200E0002257
:10399000104670470146302901DB392907DD4129EE
:1039A00001DB462903DD612903DB662901DC0122F5
:1039B00000E00022104670470146202901D0092965
:1039C00001D1012200E00022104670470146202963
:1039D00009D00D2907D00A2905D00C2903D00929BF
:1039E00001D00B2901D1012200E0002210467047CE
:1039F0000146202903DB7E2901DC012200E00022B0
:103A0000104670470146212903DB7E2901DC012293
:103A100000E00022104670470146202903DB7E2982
:103A200001DC012200E00022012A35D1202909D041
:103A30000D2907D00A2905D00C2903D0092901D066
:103A40000B2901D1012200E000222ABB412903DB1E
:103A50005A2901DC012200E00022012A08D0612954
:103A600003DB7A2901DC012200E00022012A01D1D6
:103A7000012200E00022012A08D0302903DB392985
:103A800001DC012200E00022012A01D1012200E034
:103A900000220AB9012200E00022104670470146C8
:103AA0004AB2002A01DB1F2901DD7F2901D1012251
:103AB00000E00022104670470146412903DB5A29E5
:103AC00001DC012200E00022012A02D101F12002E2
:103AD00000E00A46D0B270470146612903DB7A292B
:103AE00001DC012200E00022012A02D1A1F1200222
:103AF00000E00A46D0B27047F0B504460B462046B7
:103B0000FFF7EAFF05461846FFF7E6FF0646B5420F
:103B100001D1012000E0002007463846F0BD00003A
:103B2000F748F84901600146416000218160C160A9
:103B3000016141618161C16101620163C1624162F0
:103B4000F1498163C1634FF4D84101644164014686
:103B5000EE4A116070472DE9F04103460C461746C6
:103B60000FB9BDE8F08103B9FBE70025002202E0B0
:103B70002D022543521C042AFAD3384603F0030CC5
:103B80001946BCF1000F08D0624603E001F8014B72
:103B9000401E521C08B1042AF8D30E4601E020C68C
:103BA000001F0428FBD2314602E001F8014B401E01
:103BB0000028FAD100BFD4E730B505460C462246AE
:103BC00000212846FFF7C7FF30BD2DE9F04F85B033
:103BD000074688469146B9F1000F02D105B0BDE80D
:103BE000F08F07B9FAE7B8F1000F00D1F6E74646C3
:103BF0003D46AE4205D94A464146384601F0EAFB09
:103C0000ECE74C463819451E08EB0400461EA81B7D
:103C100004900498042834D305F00300029006F0C1
:103C200003010191DDE90110884201D1012000E08A
:103C3000002000900098012823D10298032810D07A
:103C4000029840B2039008E016F8010905F801094E
:103C5000641E0398401E40B2039014B103980028DC
:103C6000F2DAA5F1030AA6F1030B04E05BF80409FC
:103C70004AF80409241F042CF8D20AF103050BF1B9
:103C8000030604E016F8010905F80109641E002C7A
:103C9000F8D100BFA2E72DE9F84F804689461546C6
:103CA00015B90120BDE8F88FB8F1000F01D100204F
:103CB000F8E7B9F1000F01D10020F3E7012429460C
:103CC00008EB050209EB050302F0030C03F0030BFC
:103CD000DC4501D1012000E000200090009801287F
:103CE00029D1BCF1000F12D0E2460AE0521E5B1E41
:103CF000107893F800E0704500D00024491EAAF126
:103D0000010A012C03D111B1BAF1000FEED1012C3F
:103D100011D116461F4608E0361F3F1F3068D7F8FE
:103D200000E0704500D00024091F012C01D10429B6
:103D3000F2D232463B4608E0521E5B1E107893F8E2
:103D400000E0704500D00024491E012C01D100295B
:103D5000F2D12046A6E7F0B503460D461646DA6BCB
:103D6000B2FBF6F006FB102CBCF1000F02D0A6EB64
:103D70000C0400E000246119586C884201D2002034
:103D8000F0BDA14201D3A94201D20020F8E75718A3
:103D9000974201D20020F3E72244DF63586C401AB7
:103DA00058641046ECE72DE9F04F81468C461C46DE
:103DB000B9FBF4F004FB109BBBF1000F02D0A4EBA5
:103DC0000B0600E00026B2FBF4F004FB102BBBF165
:103DD000000F02D0A4EB0B0300E00023D018ACF1DD
:103DE000010E00FB0E60871806EB0208B04501D3F8
:103DF000904502D20020BDE8F08FBCF1010F22D91E
:103E0000D5189D4201D3954201D20020F3E7ACF1D1
:103E1000010000FB05F1A94203D3994201D391426D
:103E200001D20020E7E701EB020A8A4501D392455F
:103E300001D20020DFE7474503D38F4201D3574526
:103E400001D20020D7E73846D5E72DE9FE4F0746D7
:103E5000884615461C46002000901CB900BFFFF79D
:103E6000A7FB00BF0DB901AD00BF002028602FB92E
:103E700042F2747020800020BDE8FE8FB8F1000F80
:103E800004D142F2757020800020F5E7DFF87090D1
:103E900000BF00BFFFF7E4FA009000BFFFF715FB7B
:103EA00000BFD9F83C000290D9F844B043463A46E6
:103EB00001210298FFF777FF064676B900BFFFF7AA
:103EC000E5FA00BF0098FFF7CFFA00BF00BF2F60F0
:103ED00042F2E37020800020CEE75E4518D900BF93
:103EE000FFF7D4FA00BF0098FFF7BEFA00BF00BF8B
:103EF000A6EB0B00286042F2E27020800020BBE7B6
:103F000024040020484541506C0400204C0000204F
:103F1000424639464846FFF71EFF8246BAF1000F77
:103F20000ED100BFFFF7B2FA00BF0098FFF79CFA6E
:103F300000BF00BF2E6042F2E270208000209BE7AD
:103F400000BFFFF7A3FA00BF0098FFF78DFA00BF8C
:103F500000BF42F21070208050468DE72DE9FC5FD3
:103F600006460D461446002000901CB900BFFFF71E
:103F70001FFB00BF2DB942F2757020800020BDE804
:103F8000FC9FB5F5805F04D942F275702080002057
:103F9000F5E726B942F2117020800020EFE700BF5C
:103FA00000BFFFF75DFA009000BFFFF78EFA00BF79
:103FB000FC493068084440B1FB49084418B1FB494A
:103FC000084408B900BF0EE000BF00BFFFF75EFA6B
:103FD00000BF0098FFF748FA00BF00BF42F28870A8
:103FE00020800020CBE700BFD6F80490D9F8380035
:103FF00008B1484600E0EE488246DAF84470DAF844
:104000003CB000BFFFF742FA00BF0098FFF72CFA60
:1040100000BF00BF012D0DD9BBFBF5F005FB10B8AB
:10402000B8F1000F02D0A5EB080000E000200190DD
:1040300001983F1A42F21070208038469FE770B511
:1040400004460D462A462146D948FFF787FF064613
:10405000304670BD70B504460D461DB900BFFFF770
:10406000A7FA00BF1CB942F21170288070BDCD487C
:104070004042206000206060A060E06020616061DC
:10408000A061E0612062A06260632063E062606220
:10409000A063E0632064606442F21070288000BF77
:1040A000E4E72DE9FF4F91B00446DDE920950020BB
:1040B00000901DB900BFFFF77BFA00BFB9F1000FF8
:1040C00002D10DF1100900BF0020C9F800002946F7
:1040D0002046FFF7BFFF288842F21071884202D0C5
:1040E00015B0BDE8F08F129828B1139818B942F2B4
:1040F0007E702880F4E7149818B942F292702880F4
:10410000EEE71E9818B942F293702880E8E71F98EE
:1041100018B942F294702880E2E7A648006818B9FE
:1041200042F2E7702880DBE7A14810904FF0000AC8
:1041300000BF00BFFFF794F9009000BFFFF7C5F97B
:1041400000BF1298002863D1109E109E0E96109EFC
:104150003746109EF06B0B9004231A4614990B9867
:10416000FFF721FE0390039860B900BFFFF78EF9B7
:1041700000BF0098FFF778F900BF00BF42F2E3707C
:104180002880ADE703990B9808440A90DDE91E23C7
:1041900014990A98FFF707FE8346BBF1000F0CD174
:1041A00000BFFFF773F900BF0098FFF75DF900BF8C
:1041B00000BF42F2E370288092E7039800EB0B0AFD
:1041C0000398824501D3DA450CD200BFFFF75EF9B0
:1041D00000BF0098FFF748F900BF00BF42F2E3704C
:1041E00028807DE71098D0F84480C2457ED900BF72
:1041F000FFF74CF900BF0098FFF736F900BF00BF8A
:10420000AAEB0800C9F8000042F2E270288067E7D4
:1042100012980990DDE912010844401E0890DDE97A
:10422000081081420CD200BFFFF730F900BF0098A0
:10423000FFF71AF900BF00BF42F2977028804FE7DE
:10424000002600200E905B4807683CE0B96B12988E
:10425000814205D1396C1398814201D13E4634E048
:10426000B86B0790396CB86B0844401E0690DDE9C6
:104270000701814200D228E007990998884203D8B3
:10428000DDE9071088420FD207990998884203D3C5
:1042900006990898884207D906990998884210D843
:1042A0000699089888420CD300BFFFF7EFF800BFCB
:1042B0000098FFF7D9F800BF00BF42F27F70288056
:1042C0000EE70E97FF68002FC0D100BF46B9264603
:1042D0001298A0631298E0631398206413986064A6
:1042E0001098C06B0B9004231A4600E064E0149908
:1042F0000B98FFF758FD0390039860B900BFFFF7D4
:10430000C5F800BF0098FFF7AFF800BF00BF42F24A
:10431000E3702880E4E61098D0F844800398404584
:1043200011D900BFFFF7B2F800BF0098FFF79CF863
:1043300000BF00BF0398A0EB0800C9F8000042F2DC
:10434000E2702880CCE6F06B0A90DDE91E23149918
:104350000A98FFF728FD8346BBF1000F0CD100BF80
:10436000FFF794F800BF0098FFF77EF800BF00BF8A
:1043700042F2D9702880B3E6D6F84480C3451BD9F1
:1043800000BFFFF783F800BF0098FFF76DF800BF8C
:1043900000BFABEB0800C9F8000042F2D8702880DB
:1043A0009EE60000B2B0B1BAFEFFFEF8080A0EFCAD
:1043B000240400204C000020149880000290042265
:1043C00002991098FFF7C7FC0D900D9838BB109814
:1043D000D0F8448000BFFFF759F800BF0098FFF7FE
:1043E00043F800BF00BF129848B9C24504D9AAEBF0
:1043F0000800C9F800000EE0C9F800A00BE0029820
:10440000404505D90298A0EB0800C9F8000002E079
:104410000298C9F8000042F2E270288060E60020AD
:10442000019034E03046DDE91E12FFF794FC0C9059
:104430000C9820BBF06B0A90D6F8448000BFFFF7C1
:1044400025F800BF0098FFF70FF800BF00BF0199E3
:104450001498401A0590DDE91E2305990A98FFF784
:10446000A2FC8246C24504D9AAEB0800C9F80000A4
:1044700001E0C9F800A042F2D870288030E6019A25
:10448000DDE90C0141F822000198401C01901499CB
:1044900001988842C6D3A6420CD10E98A060E7606E
:1044A0000E9810B10E98C46001E0FB4804605FB143
:1044B000BC6009E070690F9026610F9860617461BB
:1044C0000F9808B10F980461F448206066600A985C
:1044D000A0610A985844401EE0610D982062C4F81B
:1044E00028B01F9860631E9820631498E0621498A7
:1044F000606200BFFEF7CAFF00BF0098FEF7B4FF7E
:1045000000BF00BF42F21070288000BFE8E52DE92F
:10451000F04105460C4600271CB900BFFFF748F8DC
:1045200000BF2DB942F2117020800020BDE8F0815B
:1045300000BF00BFFEF794FF074600BFFEF7C5FFB0
:1045400000BFD7492868084440B1D649084418B18B
:10455000D549084408B902E00FE000BF00BF00BF22
:10456000FEF794FF00BF3846FEF77EFF00BF00BF96
:1045700042F2887020800020D8E700BF6E6A00BF3A
:10458000FEF784FF00BF3846FEF76EFF00BF00BF96
:1045900042F2107020803046C8E72DE9F041044611
:1045A0000E4615464FF000081DB900BFFFF700F892
:1045B00000BF2CB942F2117028800020BDE8F081C4
:1045C00026B942F2937028800020F7E700BF00BFB1
:1045D000FEF746FF804600BFFEF777FF00BFAF49FA
:1045E000206888420DD000BFFEF750FF00BF404654
:1045F000FEF73AFF00BF00BF42F28870288000201B
:10460000DCE7206BB0420DD200BFFEF73FFF00BFDA
:104610004046FEF729FF00BF00BF42F2937028809A
:104620000020CBE7606A68B900BFFEF72FFF00BF2C
:104630004046FEF719FF00BF00BF42F2DE7028803F
:104640000020BBE7E16A606A88420DD900BFFEF72F
:104650001DFF00BF4046FEF707FF00BF00BF42F24C
:10466000957028800020A9E7606A401E6062D4E946
:10467000080150F8217000BFFEF708FF00BF404658
:10468000FEF7F2FE00BF00BF42F2107028803846ED
:1046900094E72DE9F04704460F4615464FF0000910
:1046A0001DB900BFFEF784FF00BF2CB942F21170A4
:1046B00028800020BDE8F08700BF00BFFEF7D0FED5
:1046C000814600BFFEF701FF00BF744920688842A1
:1046D0000DD000BFFEF7DAFE00BF4846FEF7C4FE6D
:1046E00000BF00BF42F2887028800020E2E7E16A44
:1046F000606A88420DD300BFFEF7C8FE00BF48467F
:10470000FEF7B2FE00BF00BF42F295702880002085
:10471000D0E7E06AC01B461EE06AB0420DD800BF79
:10472000FEF7B4FE00BF4846FEF79EFE00BF00BF86
:1047300042F2957028800020BCE7606AB0420DD933
:1047400000BFFEF7A3FE00BF4846FEF78DFE00BF88
:1047500000BF42F2957028800020ABE7206A50F835
:10476000268000BFFEF792FE00BF4846FEF77CFEA3
:1047700000BF00BF42F21070288040469AE72DE942
:10478000F04F02460C469569D2F81CB0AC4201D3FA
:104790005C4502D90020BDE8F08F536BB5FBF3F008
:1047A00003FB105111B1A3EB010C01E04FF0000C21
:1047B000176BB7FBF3F003FB107109B15E1A00E051
:1047C000002605EB0C08A4EB080A07EB0609BAFB68
:1047D000F9F009FB10A008B9012000E0002086468E
:1047E0007046D8E72DE9F04704460F4615464FF0CE
:1047F000000A1DB900BFFEF7DBFE00BF24B942F27C
:1048000011702880BDE8F0871FB942F2117028802E
:10481000F8E700BF00BFFEF723FE824600BFFEF7A9
:1048200054FE00BF1D49206888420CD000BFFEF72F
:104830002DFE00BF5046FEF717FE00BF00BF42F23C
:1048400088702880DEE739462046FFF798FF8046CB
:10485000B8F1010F0CD000BFFEF718FE00BF5046A4
:10486000FEF702FE00BF00BF42F297702880C9E742
:1048700000261CE0206A50F82600B84216D100BF7E
:10488000FEF704FE00BF5046FEF7EEFD00BF00BF7E
:1048900042F298702880B5E74C000020504F4F4CF2
:1048A000B2B0B1BAFEFFFEF8080A0EFC761C606AD0
:1048B000B042DFD8E16A606A88420CD300BFFEF7DD
:1048C000E5FD00BF5046FEF7CFFD00BF00BF42F23E
:1048D000DD70288096E74FF00008666A08E0206ADD
:1048E00050F82690B94502D14FF0010803E0761C3C
:1048F000E06AB042F3D800BFB8F1010F07D1D4E9A4
:10490000080150F82100216A41F826000CE000BFA0
:10491000FEF7BCFD00BF5046FEF7A6FD00BF00BF7E
:1049200042F2887028806DE7D4E9080140F82170D0
:10493000606A401C606200BFFEF7A8FD00BF5046E1
:10494000FEF792FD00BF00BF42F21070288000BF4A
:1049500058E72DE9F84F04460F4615460020009011
:104960004FF0FF3B1DB900BFFEF722FE00BF2CB980
:1049700042F2117028805846BDE8F88F27B942F2FC
:10498000117028805846F7E700BF00BFFEF768FDAA
:10499000009000BFFEF799FD00BF434920688842A0
:1049A0000DD000BFFEF772FD00BF0098FEF75CFD62
:1049B00000BF00BF42F2887028805846DCE73946C5
:1049C0002046FFF7DCFE8046B8F1010F0DD000BF96
:1049D000FEF75CFD00BF0098FEF746FD00BF00BF7C
:1049E00042F2977028805846C6E7002613E0206AF6
:1049F00050F82600B8420DD100BFFEF747FD00BFBA
:104A00000098FEF731FD00BF00BF42F29870288089
:104A10005846B1E7761C606AB042E8D8E16A606A3D
:104A200088420DD300BFFEF731FD00BF0098FEF7AE
:104A30001BFD00BF00BF42F2DD70288058469BE797
:104A40004FF00008666A08E0206A50F82690B945E1
:104A500002D14FF0010803E0761CE06AB042F3D8BF
:104A600000BFB8F1010F11D1E06A401EA0EB060AA9
:104A700000BFFEF70BFD00BF0098FEF7F5FC00BF7E
:104A800000BF42F210702880504675E700BFFEF765
:104A9000FDFC00BF0098FEF7E7FC00BF00BF42F23C
:104AA00088702880584667E7504F4F4C10B5024633
:104AB0000B461146002001E0491C401C19B10C783E
:104AC0000CB19842F8D310BD30B504464FF0FF3119
:104AD0002046FFF7EBFF0546284630BD70B504467B
:104AE0000D4616460CB9002070BD0DB90020FBE73D
:104AF00021462A46002304E010780870491C521C05
:104B00005B1C21B11AB1107808B1B342F4D301B1E2
:104B10000AB90020E8E7B34201D20020087020461D
:104B2000E2E770B504460D464FF0FF3229462046B5
:104B3000FFF7D4FF0646304670BD70B503460C46FD
:104B400015460BB9002070BD0CB90020FBE70DB96C
:104B50001846F8E7194600E0491C11B1087800280A
:104B6000FAD109B90020EEE72246002604E01078C9
:104B70000870491C521C761C21B11AB1107808B17A
:104B8000AE42F4D301B10AB90020DCE7002008707E
:104B90001846D8E770B504460D464FF0FF32294657
:104BA0002046FFF7CAFF0646304670BD2DE9F043A8
:104BB00005460B469446BCF1000F02D10020BDE82B
:104BC000F08335B90BB90020F9E718784242104656
:104BD000F5E713B92A781046F1E729461C460F4637
:104BE00026467F1C761C4FF0000805E0491C641C1B
:104BF0007F1C761C08F10108087894F8009048455D
:104C000005D1087818B117B10EB1E045EED3E045F3
:104C100001D10020D3E7087894F80090484505D0EA
:104C2000087894F80090A0EB09020BE0087808B926
:104C3000002207E02FB90EB9002203E0307842428B
:104C400000E03A781046BAE770B504460D464FF0DA
:104C5000FF3229462046FFF7A9FF0646304670BDC1
:104C60002DE9F74F82B080460E46049818B900200F
:104C700005B0BDE8F08FB8F1000F09D10EB90020E2
:104C8000F6E73078FEF718FF07467C422046EFE74C
:104C90003EB998F80000FEF70FFF05462C46204667
:104CA000E6E7C146B246C846C3465646CDF804A01C
:104CB000D8460BF1010B019E701C0190C84699F873
:104CC0000000FEF7F9FE054656469AF80000FEF78A
:104CD000F3FE07460020009015E009F101090AF1F2
:104CE000010A0BF1010B0198401C01900098401C37
:104CF000009099F80000FEF7DFFE05469AF80000E4
:104D0000FEF7DAFE0746BD420BD199F8000040B12C
:104D1000BBF1000F05D0019818B1049900988842A2
:104D2000DBD304990098884201D10020A0E7BD425E
:104D300001D0EC1B16E00DB9002413E0BBF1000F0D
:104D40000AD1019808B900240CE001990878FEF70F
:104D5000B3FE07467C4205E09BF80000FEF7ACFE80
:104D600005462C46204683E770B504460D464FF0B5
:104D7000FF3229462046FFF773FF0646304670BDD6
:104D800030B504460B4615460CB9002030BD0BB9B2
:104D90000020FBE72146002201E0491C521C31B1F2
:104DA000087820B10878A84201D09A42F5D309B911
:104DB0000020EBE79A4201D30020E7E70878A842F9
:104DC00001D00020E2E70846E0E770B505460C4652
:104DD00022464FF0FF312846FFF7D2FF0646304605
:104DE00070BD2DE9F04305460E46174615B9002063
:104DF000BDE8F0830EB90020FAE72C46A6F10109C0
:104E000049462046FFF752FE804644440CB9002034
:104E1000EEE700E0641EAC4202D02078B842F9D13F
:104E20002078B84201D00020E2E72046E0E770B5E4
:104E300005460C4622464FF0FF312846FFF7D1FFCA
:104E40000646304670BD70B504460D4616460CB990
:104E5000002070BD0BB90020FBE721461A4605E093
:104E60000878A84200D10E70491C521E19B108786A
:104E700008B1002AF4D12046EBE7F0B504460D4610
:104E800016464FF0FF33324629462046FFF7DBFF38
:104E900007463846F0BD2DE9FF4F06460F4615463A
:104EA0001EB9002004B0BDE8F08F0FB90020F9E76B
:104EB0000DB90020F6E7681C00B101E04FF0FF30AB
:104EC000039029463046FFF7F1FD804638460399A6
:104ED000FFF7ECFD04460CB93046E3E7444501D941
:104EE0000020DFE706EB080BBBF1000F01D100202B
:104EF000D8E707EB040BBBF1000F01D10020D1E78D
:104F0000A8EB040002904FF000090020019000BFC0
:104F100006EB09000090224639460098FFF746FE4E
:104F20008246BAF1000F01D1012000E0002001907B
:104F300009F10109019810B902988145E8D9BAF13F
:104F4000000F01D00020ADE70098ABE770B5044634
:104F50000D464FF0FF3229462046FFF79CFF0646DC
:104F6000304670BD2DE9FF4F8DB00F4615461A9E95
:104F70001D9818B9002011B0BDE8F08F00200390F3
:104F8000012F01DA01200390022D01D3242D01D934
:104F90000120039096B33046FEF72AFD0290029856
:104FA000012802D00120039028E0302E26D0A6F15F
:104FB0003000C0B207901B98012804D0A6F1410030
:104FC000C0B2069003E0A6F16100C0B206900A2DBF
:104FD00002D80798A84209DB0A2D09D907980A28A0
:104FE00004D3A5F10A000699884201D9012000E006
:104FF000002005900598012800D103901D9C03987E
:10500000002846D1DDF834A0DDF834A0CDF830A07A
:1050100001200B9007E00B98401CC0B20B900C983D
:10502000B0FBF5F00C900C98A842F4D2109801282F
:1050300000D100E0002009900B9909980844B8427B
:1050400025DC002001900B98B84201DA0B9800E0B3
:1050500038460A903EB1B8460A98391A0998081A93
:10506000C0B2089006E0DDE90910084400F0FF082E
:10507000002008900898002806DD302E01D101207C
:1050800000E00020049004E00020049001E00120F2
:105090000390039800B1B84644441C9808B100201E
:1050A0002070641E4FF0000941E00398A8BBBAF1DC
:1050B000000F02D1B9F1000F1CD1BAFBF5F005FBCE
:1050C00010A000F0FF0BBBF10A0F04D20BF130006F
:1050D00004F801090BE01B98012804D00BF13700FC
:1050E00004F8010903E00BF1570004F80109BAFBC9
:1050F000F5FA1AE01098012810D1049808B901981F
:1051000028B1049850B1A8F10100484506D12D20DE
:1051100004F801090120019007E003E02EB104F832
:10512000016902E03F2004F8010909F10109C145C4
:10513000BBD3039808B100201DE71D981BE72DE99C
:10514000FF5F05460E4617461C46DDE90F9ADDF85F
:10515000388000233A46314628468DE81007FFF78D
:1051600001FF8346584604B0BDE8F09F2DE9FF4F8C
:1051700085B0044689461F46DDE913AB002C02DAF0
:105180006542012601E02546002612983346CDE906
:1051900002ABCDE9007049462846079AFFF7E2FEC8
:1051A0008046404609B0BDE8F08F2DE9FF4F8BB037
:1051B000064689461546B9F1000F02D10DF12409C2
:1051C00000BFC9F80060189810B907A8189000BF70
:1051D0000021189801701EB900200FB0BDE8F08FB3
:1051E000012D01D0242D01D90020F6E73446207886
:1051F000FEF7ECFB039004E0641C2078FEF7E6FB6E
:10520000039003980128F7D020782B2802D02D286E
:105210000BD103E0641C4FF0000B09E00E9801284D
:1052200000D1641C4FF0010B02E04FF0000B00BFF7
:1052300000BF0A9425B1082D1CD0102D36D11EE0D8
:105240002078302814D1641C2078582802D078287F
:105250000BD100BF102567783846FEF79BFB8246CE
:10526000BAF1010F00D1641C01E0082500BF00E085
:105270000A251CE02078302800D1641C17E0207833
:10528000302812D1641C2078582802D078280AD1FE
:1052900000BF67783846FEF77DFB8246BAF1010F02
:1052A00000D1641C00E000BF00BF00E000BF00BFF1
:1052B0004FF0000800200290019040E02778384627
:1052C000FEF71AFB05900598012836D13846FEF7FF
:1052D0004DFB06900698012804D1A7F13000C0B21A
:1052E00008900FE03846FEF72DFB04900498012843
:1052F00004D1A7F15700C0B2089003E0A7F137002E
:10530000C0B208900898A84214DA029880B93048D0
:1053100050F82500404509D308FB05F8089880445B
:105320000898804504D20120029001E001200290FB
:10533000641C04E00120019001E00120019001982B
:105340000028BBD00298012801D14FF0FF380A98FD
:10535000844202D0C9F8004001E0C9F80060189802
:1053600080F800B0404638E7F8B504460D461646CA
:10537000002003463246294600902046FFF715FFDD
:1053800007463846F8BD2DE9FC4105460E4617464E
:1053900001A801233A46314600902846FFF705FF51
:1053A00004469DF8040040B9B4F1004F02D36FF0F9
:1053B000004000E02046804607E0B4F1004F02D3F1
:1053C0004FF0004000E0604280464046BDE8FC816E
:1053D00060E00008002800D17047002900D1704724
:1053E000002A00D170472DE9F81F00F0030301F0F7
:1053F0000304A34211D1C3F1040303F00303012BFF
:105400001DD3012A00D2F2E011F8014B00F8014B44
:10541000A3F10103A2F10102F1E700F0010301F0A1
:105420000104A34200D094E0012B44D311F8014BB6
:1054300000F8014BA3F10103A2F10102F4E7B2F578
:10544000B47F26D3B1E8F81FA0E8F81FB1E8F81F31
:10545000A0E8F81FB1E8F81FA0E8F81FB1E8F81FAE
:10546000A0E8F81FB1E8F81FA0E8F81FB1E8F81F9E
:10547000A0E8F81FB1E8F81FA0E8F81FB1E8F81F8E
:10548000A0E8F81FB1E8F81FA0E8F81FA2F5B47271
:10549000D5E7282A06D3B1E8F81FA0E8F81FA2F143
:1054A0002802F6E7042A06D351F8043B40F8043BEF
:1054B000A2F10402F6E7202A42D331F8023B20F899
:1054C000023B31F8023B20F8023B31F8023B20F866
:1054D000023B31F8023B20F8023B31F8023B20F856
:1054E000023B31F8023B20F8023B31F8023B20F846
:1054F000023B31F8023B20F8023B31F8023B20F836
:10550000023B31F8023B20F8023B31F8023B20F825
:10551000023B31F8023B20F8023B31F8023B20F815
:10552000023B31F8023B20F8023B31F8023B20F805
:10553000023B31F8023B20F8023BA2F12002BAE71D
:10554000022A06D331F8023B20F8023BA2F1020204
:10555000F6E7102A42D311F8013B00F8013B11F89D
:10556000013B00F8013B11F8013B00F8013B11F849
:10557000013B00F8013B11F8013B00F8013B11F839
:10558000013B00F8013B11F8013B00F8013B11F829
:10559000013B00F8013B11F8013B00F8013B11F819
:1055A000013B00F8013B11F8013B00F8013B11F809
:1055B000013B00F8013B11F8013B00F8013B11F8F9
:1055C000013B00F8013B11F8013B00F8013B11F8E9
:1055D000013B00F8013BA2F11002BAE7012A06D311
:1055E00011F8013B00F8013BA2F10102F6E7BDE82A
:1055F000F81F704770470000002400BF1DE000BF87
:1056000000BFFDF72DFF044600BFFDF75EFF00BFA2
:10561000FA480068401CF9490860F9480068401CD5
:10562000F749086000BFFDF731FF00BF2046FDF7D6
:105630001BFF00BF00BF08F07BF9E0E710B58AB0A0
:1056400004460020ED4908600B2000210591CDE9BA
:10565000070406910846EB490968EB4A1268EB4BD0
:105660001B68CDE90132CDE903101F200023AFF202
:105670007702E7A10090EB4805F013F90AB010BDDE
:1056800000210AE001EB4102E74B03EB820000221C
:105690000281026042604A1CD1B22029F2D37047D5
:1056A00070B5044608F04CF90020E0490870E04964
:1056B0000870E0490870E0490860E0490860E04986
:1056C0000870E0490870E0490870E0490860E04966
:1056D0000860E0490860E0490870E04800680A2175
:1056E000B0FBF1F0DE490860DE48006858B1DE48E2
:1056F000056845B1DB48066803E0761E0020286097
:105700002D1D002EF9D10020D8490860D849086025
:10571000D8490860D8490860D8490860D849086065
:10572000D8490860D849087003F00EFAFFF7A8FFBF
:10573000204601F054FF208800B170BD204602F0E1
:10574000BDFA208800B1F8E7204602F0C9FA2088A7
:1057500000B1F2E7204603F0DFF9208800B1ECE762
:10576000204603F01BFF208800B1E6E7204604F046
:10577000B3FB208800B1E0E7204606F0C9FE208890
:1057800000B1DAE7204602F0BEF8208800B1D4E785
:105790002046FFF753FF208800B1CEE7204607F0F0
:1057A00020F8208800B1C8E7204604F0A1FE208838
:1057B00000B1C2E7204608F016F8208800B1BCE727
:1057C00000F042FEFFF716FF00BFB6E798480078EA
:1057D000012800D0704795480078FA2800DBF9E7E7
:1057E00092480078401C9149087000BFF2E710B55C
:1057F00000248F480078012800D010BD00BFFDF7BD
:105800002FFE044600BF8948007828B900BF204613
:10581000FDF72AFE00BFF0E784480078401E834968
:10582000087008460078002805DD00BF2046FDF717
:105830001BFE00BFE1E77F480078002805DD00BFC0
:105840002046FDF711FE00BFD7E703F087F97D4939
:1058500008700846007800EB4000734951F82000BA
:10586000764908600846006873490968884205D18E
:1058700000BF2046FDF7F8FD00BFBEE76F48006897
:10588000D0F89000401C6D490968C1F890007F482D
:105890000068401C7D4908604FF080507C490860DA
:1058A00000BF2046FDF7E0FD00BF00BFA5E710B533
:1058B00000245E480078002800DD10BD5D480078B7
:1058C000002800DDF9E700BFFDF7CAFD044600BF70
:1058D00003F044F95B4908700846007800EB40008B
:1058E000514951F82000554908600846006852495E
:1058F0000968884205D100BF2046FDF7B5FD00BF0D
:10590000DBE74E480068D0F89000401C4B4909681E
:10591000C1F890005D480068401C5C4908604FF089
:1059200080505B49086000BF2046FDF79DFD00BF29
:1059300000BFC2E710B53F480078012803D1FAF74D
:105940008DFF4249086010BD70B5044600253748F8
:105950000078002803DD46F66250208070BD344890
:105960000078012803D045F689602080F6E73148A9
:105970000078FA2803DB45F209202080EEE700BF1B
:1059800000BFFDF76DFD054600BFFDF79EFD00BFA2
:1059900028480078401C27490870FFF7CBFF00BF5C
:1059A000FDF774FD00BF2846FDF75EFD00BF00BF98
:1059B0000020208000BFD1E710B51E48007880B9D4
:1059C000FAF74CFF21490968441A21480068A042AF
:1059D00001D21F4804601F480068A04201D21D4840
:1059E000046010BD70B504460025104800780028FA
:1059F00050DD46F66550208070BD0000700000202C
:105A0000DC000020FCE00008F8E00008F4E00008FA
:105A100075432F4F532D4949492049646C652054E3
:105A200061736B00FC8400209886002074000020C5
:105A30007C000020C40000201C0100202001002068
:105A4000AA000020AB000020AC000020B80000201D
:105A5000BC000020C0000020CC00002054E1000861
:105A6000C800002024E1000820E1000854000020C4
:105A7000580000205C00002060000020640000202E
:105A8000680000206C000020FA000020F0000020D8
:105A900004ED00E0FA480078012803D045F689605B
:105AA000208070BDF748007818B946F66450208011
:105AB000F7E700BF00BFFDF7D3FC054600BFFDF7C9
:105AC00004FD00BFEF480078401EEE49087008460C
:105AD000007800280CDD00BFFDF7D8FC00BF284689
