:020000040800F2
:10000000A09000200102000877080008B30700084C
:10001000B707000829040008EF5500080000000099
:10002000000000000000000000000000095000086F
:100030008906000800000000430300089D1E000818
:100040001B0200081B0200081B0200081B0200081C
:100050001B0200081B0200088B0600088F06000820
:100060009106000893060008950600081B02000888
:100070001B0200081B0200081B0200081B020008EC
:100080001B0200081B0200081B0200081B020008DC
:100090001B0200081B0200081B020008970600084C
:1000A0001B0200081B0200081B0200081B020008BC
:1000B0001B0200081B0200081B0200081B020008AC
:1000C0001B0200081B0200081B0200081B0200089C
:1000D0001B0200086D520008ED5200087953000819
:1000E0008D0600081B0200081B0200081B02000806
:1000F0001B0200081B0200081B0200081B0200086C
:100100001B0200081B0200081B0200081B0200085B
:1001100055510008E15100081B0200081B020008AD
:100120001B0200081B0200081B0200081B0200083B
:1001300000F002F800F03AF80AA090E8000C8244BF
:100140008344AAF10107DA4501D100F02FF8AFF29C
:10015000090EBAE80F0013F0010F18BFFB1A43F0A5
:1001600001031847D8590000F8590000103A24BF7D
:1001700078C878C1FAD8520724BF30C830C144BF0C
:1001800004680C607047000000230024002500264E
:10019000103A28BF78C1FBD8520728BF30C148BFEA
:1001A0000B6070471FB51FBD10B510BD00F07DF886
:1001B0001146FFF7F7FF05F0A9FB00F09BF803B429
:1001C000FFF7F2FF03BC00F0A3F8000072B670471F
:1001D00062B67047EFF3108072B6704780F31088F4
:1001E000704730BF704720BF7047B0FA80F070474B
:1001F00090FAA0F0B0FA80F0704790FAA0F0704743
:100200000948804709480047FEE7FEE7FEE7FEE7AA
:10021000FEE7FEE7FEE7FEE7FEE7FEE704480549E6
:10022000054A064B70470000F550000831010008F0
:10023000A08A0020A0900020A08C0020A08C00208C
:1002400010B5203AC0F00B80B1E81850203AA0E871
:100250001850B1E81850A0E81850BFF4F5AF5FEAA5
:10026000027C24BFB1E81850A0E8185044BF18C958
:1002700018C0BDE810405FEA827C24BF51F8043BFF
:1002800040F8043B08BF7047D20728BF31F8023B53
:1002900048BF11F8012B28BF20F8023B48BF00F8E7
:1002A000012B7047704770477047754600F02CF877
:1002B000AE4605006946534620F00700854618B053
:1002C00020B5FFF7ABFFBDE820404FF000064FF030
:1002D00000074FF000084FF0000B21F00701AC467B
:1002E000ACE8C009ACE8C009ACE8C009ACE8C0099A
:1002F0008D46704710B50446AFF300802046BDE838
:100300001040FFF75CBF0000004870473C8A0020A7
:1003100001491820ABBEFEE726000200704700002E
:1003200018484FF0FF010170002080F3098816483B
:10033000016881F3088815484FF08051016062B66A
:10034000FEE772B6EFF3098028B1203880E8F00F9D
:100350000F490968086000B50E4880475DF804EB56
:100360000D480E490A78027009480D490A68026072
:10037000106890E8F00F203080F309884EF0040EEA
:1003800062B6704722ED00E01401002004ED00E0A9
:100390000C010020251A00089A0000209B00002074
:1003A0001001002086B01BA207CA02AB07C305F0EC
:1003B0002EF900F03BF805F022F9044618480068D1
:1003C000B4FBF0F5284601F089FD00F0FFF905A81F
:1003D00000F0BEFD00F098F805F00CF905F009F901
:1003E0006621104805F0FFF800BF0A2202A900208C
:1003F00005F05AFA0A2202A9012005F055FA05A8CB
:10040000002164230122CDE90010084601F004FC1C
:10041000EBE70000000102030405060708090000DD
:100420008C5900080044004000BFFEE710B500F002
:10043000FBF800F003F800F0F3F810BD70B50026EB
:100440000020184908801849088018490860184990
:1004500008601849086018490860184908600024B5
:1004600000BFFFF7B7FE064600BF00250BE00020E7
:100470001049086000F074F800F08CF80D4800682E
:100480000444681C85B2002DF1D00C4804600020A3
:10049000084908600849086000BF3046FFF79EFE23
:1004A00000BF70BD2400002026000020280000208E
:1004B0002C000020340000203800002030000020F4
:1004C00001460846044A1268904203D9024A12685B
:1004D000801A00E0002070473000002070B5002531
:1004E00000BFFFF777FE054600BF0648046800BF5F
:1004F0002846FFF773FE00BF2046FFF7E1FF0646E0
:10050000304670BD3400002070B50025FFF7E6FFCF
:10051000044600BFFFF75EFE054600BF0020044909
:10052000086000BF2846FFF759FE00BF204670BD97
:100530003400002070B5002500BFFFF74BFE0546D4
:1005400000BF0648046800BF2846FFF747FE00BF0B
:100550002046FFF7B5FF0646304670BD3800002044
:1005600010B509480088401C0749088007480088E2
:1005700018B900F083F80649086004480088401C58
:100580000249088010BD0000240000202600002041
:100590002800002010B50F480088401E0D49088033
:1005A00008460088A0B900F069F80B4908600846C1
:1005B00000680A490968441A09480068A04201D243
:1005C0000748046007480068A04201D2054804605B
:1005D00010BD0000260000202C0000202800002074
:1005E000340000203800002010B5002400BF00BFF8
:1005F000FFF7F0FD044600BFFFF7B2FF00BF102178
:10060000064800F0DAF800BFFFF7C4FF00BF20463D
:10061000FFF7E4FD00BF00BF10BD0000E0030020B5
:1006200010B5FFF7E1FF10BD10B5002002490860CA
:1006300000F00AF810BD0000200000200149086009
:10064000704700002000002010B50A48006840F004
:100650008070084908600020074948600846006823
:1006600040F00100086004F0CAFF04462046FFF78E
:10067000E5FF10BDFCED00E0001000E0014840681F
:1006800070470000001000E07047704770477047E7
:1006900070477047704770472DE9F04102460025CA
:1006A0000026002000230024002791F803C00CF04E
:1006B0000F0591F803C00CF0100CBCF1000F03D033
:1006C00091F802C04CEA050591F800C0BCF1000F9A
:1006D00031D0146800202BE04FF0010C0CFA00F32D
:1006E000B1F800C00CEA03069E4220D183004FF00F
:1006F0000F0C0CFA03F7BC4305FA03FC4CEA0404A4
:1007000091F803C0BCF1280F06D14FF0010C0CFA90
:1007100000FCC2F814C00AE091F803C0BCF1480F15
:1007200005D14FF0010C0CFA00FCC2F810C0401CBF
:100730000828D1D31460B1F800C0BCF1FF0F34DD3C
:10074000546800202EE000F1080C4FF0010808FA70
:100750000CF3B1F800C00CEA03069E4221D18300DD
:100760004FF00F0C0CFA03F7BC4305FA03FC4CEAFC
:10077000040491F803C0BCF1280F05D100F1080C66
:1007800008FA0CF8C2F8148091F803C0BCF1480FC5
:1007900007D100F1080C4FF0010808FA0CF8C2F874
:1007A0001080401C0828CED35460BDE8F081016160
:1007B000704700BFFEE700BFFEE730B505460C46B8
:1007C00022460021284600F025F830BD0D480E498C
:1007D00001600146416000218160C16001614161A9
:1007E0008161C16101620163C16241620749816344
:1007F000C1634FF4D841016441640146044A116069
:1008000070470000F00300204845415038040020A4
:100810003C0000202DE9F04103460C4617460FB975
:10082000BDE8F08103B9FBE70025002202E02D02BC
:100830002543521C042AFAD3384603F0030C194608
:10084000BCF1000F08D0624603E001F8014B401EE6
:10085000521C08B1042AF8D30E4601E020C6001F3E
:100860000428FBD2314602E001F8014B401E00286B
:10087000FAD100BFD4E7704770B5002100230F22E2
:10088000C47804B3154C246804F4E064C4F5E0644F
:10089000210AC1F10403CA40447804FA03F18478C0
:1008A0001440214309010E4C0678A155047804F048
:1008B0001F050124AC4005786D11AD0005F1E02560
:1008C000C5F8004109E0047804F01F050124AC409C
:1008D000044D0678761145F8264070BD0CED00E019
:1008E00000E400E080E100E002490143024A1160B7
:1008F000704700000000FA050CED00E070470000B2
:1009000010B50348006810B101480068804710BD69
:100910005000002070B5044600F0C2F8002048499D
:1009200008704849087048490870484908604849B3
:1009300008604849087048490870484908704849A3
:1009400008604849086048490860484908704848B4
:1009500000680A21B0FBF1F046490860464800688B
:1009600058B14648056845B14348066803E0761E1D
:10097000002028602D1D002EF9D10020404908607C
:1009800040490860404908604049086040490860A3
:1009900040490860404908604049087002F030FA58
:1009A00002F02EFB204601F08BFB208800B170BDC9
:1009B000204601F0A5FF208800B1F8E7204601F0AD
:1009C000ABFF208800B1F2E7204602F08FF82088C4
:1009D00000B1ECE7204602F043FA208800B1E6E7D8
:1009E000204602F093FC208800B1E0E7204602F0A8
:1009F000FDFF208800B1DAE7204601F0EDFE2088F7
:100A000000B1D4E7204601F0F7FC208800B1CEE722
:100A1000204604F053F8208800B1C8E7204602F0D1
:100A200029FF208800B1C2E7204604F0A3F82088FF
:100A300000B1BCE701F06AFAFFF760FF00BFB6E75C
:100A4000640000206C000020B40000200C01002095
:100A5000100100209A0000209B0000209C00002034
:100A6000A8000020AC000020B0000020BC00002046
:100A70008C590008B80000205C590008585900083B
:100A800044000020480000204C00002050000020BE
:100A900054000020580000205C000020EA000020E4
:100AA0000A4A1168002002E0002204C1401C084AE2
:100AB00012689042F8D3054A1268054B1B6802EB96
:100AC0008302121F034B1A60704700005859000838
:100AD0005C5900081401002010B500242E4800784D
:100AE000012800D010BD00BFFFF774FB044600BF13
:100AF0002A48007828B900BF2046FFF76FFB00BFE7
:100B0000F0E726480078401E24490870084600781F
:100B1000002805DD00BF2046FFF760FB00BFE1E7CE
:100B20001F480078002805DD00BF2046FFF756FB70
:100B300000BFD7E702F050F91A490870084600785C
:100B400000EB4000184951F8200018490860084699
:100B5000006817490968884205D100BF2046FFF7A1
:100B60003DFB00BFBEE711480068D0F89000401C74
:100B70000E490968C1F890000E480068401C0D49F4
:100B800008604FF080500C49086000BF2046FFF716
:100B900025FB00BF00BFA5E76C000020640000201B
:100BA000B40000209B00002064860020100100207B
:100BB0000C010020E000002004ED00E010B500244E
:100BC00020480078002800DD10BD1F48007800286C
:100BD00000DDF9E700BFFFF7FDFA044600BF02F0B1
:100BE000FBF81A4908700846007800EB40001849E5
:100BF00051F820001749086008460068164909683E
:100C0000884205D100BF2046FFF7E8FA00BFDBE7C6
:100C100010480068D0F89000401C0E490968C1F8DF
:100C200090000E480068401C0C4908604FF080504E
:100C30000B49086000BF2046FFF7D0FA00BF00BF95
:100C4000C2E7000064000020B40000209B000020E8
:100C500064860020100100200C010020E00000202C
:100C600004ED00E070B5044600251A48007800281D
:100C700003DD46F66250208070BD174800780128D9
:100C800003D045F689602080F6E714480078FA28FA
:100C900003DB45F209202080EEE700BF00BFFFF72D
:100CA00099FA054600BFFFF75BFC00BF0B480078D0
:100CB000401C0A49087002F087FA00BFFFF76AFC7F
:100CC00000BF2846FFF78AFA00BF00BF002020803F
:100CD00000BFD1E7640000206C000020B4000020B9
:100CE00070B50446002523480078002803DD46F649
:100CF0006550208070BD20480078012803D045F65B
:100D000089602080F6E71D48007818B946F66450DF
:100D10002080EFE700BF00BFFFF75CFA054600BF89
:100D2000FFF71EFC00BF15480078401E13490870ED
:100D30000846007800280CDD00BFFFF72BFC00BF41
:100D40002846FFF74BFA00BF00BF46F663502080ED
:100D5000D0E702F047FA00BFFFF71CFC00BF2846AF
:100D6000FFF73CFA00BF00BFFFF728FF00202080FC
:100D700000BFBFE7640000206C000020B40000202A
:100D800010B5044612480078E8B902F025F8114978
:100D9000087008460078104908700E48007800EB8B
:100DA00040000E4951F820000D49086008460068CF
:100DB0000C490860012006490870FFF7B1FA43F6B4
:100DC0009920208002E045F68A60208010BD000056
:100DD0006C0000209B0000209A0000206486002008
:100DE000100100200C0100202DE9F04107464FF0D2
:100DF000000800BF00BFFFF7EDF9804600BFFFF716
:100E0000AFFB00BF002047490860474908804749B9
:100E100008804749086047490860474908604749D2
:100E20000860474908604749088100BFFFF7B2FBE7
:100E300000BF4046FFF7D2F900BF00BF00BF00BFB0
:100E4000FFF7C8F9804600BFFFF78AFB00BF3E48A6
:100E5000046800BFFFF79EFB00BF4046FFF7BEF9E6
:100E600000BF00BF26E000BF00BFFFF7B3F9804618
:100E700000BFFFF775FB00BF00207834E0632064FB
:100E800020602063A061A082E0826062A062FFF720
:100E9000F5FB2062783C04F164060020B081D4F8B0
:100EA000C04000BFFFF776FB00BF4046FFF796F952
:100EB00000BF00BF002CD6D100BF00BFFFF78AF9EA
:100EC000804600BFFFF74CFB00BF2048056800BF0D
:100ED000FFF760FB00BF4046FFF780F900BF00BF8F
:100EE00016E000BF00BFFFF775F9804600BFFFF7AF
:100EF00037FB00BF05F120060020B081AD6900BFBF
:100F0000FFF748FB00BF4046FFF768F900BF00BF8E
:100F1000002DE6D103F09AFC03F028FF0020388072
:100F2000BDE8F081800000207A000020CA00002087
:100F3000DC000020F0000020FC0000206800002001
:100F4000AC00002058860020E4000020A000002013
:100F5000F8B5044600266946364800F033FDBDF872
:100F6000000018B1BDF800002080F8BD6A460021DD
:100F7000022000F0A9FDBDF8000018B1BDF8000086
:100F80002080F2E700BF00BFFFF724F9064600BF4C
:100F9000FFF7E6FA00BF00202749086000BFFFF70F
:100FA000F9FA00BF3046FFF719F900BF00BF00256E
:100FB0002248006822490968884205D91F4800680C
:100FC0001F490968B0FBF1F525B91C4800680A21E2
:100FD000B0FBF1F56A460021284600F075FD694630
:100FE000144800F0A5FABDF8000018B1BDF80000E3
:100FF0002080BAE700BF00BFFFF7ECF8064600BF4D
:10100000FFF7AEFA00BF00200E4908600A480068EA
:101010000D49086001200D49087000BFFFF7BAFABA
:1010200000BF3046FFF7DAF800BF00BF0020208085
:1010300000BF9AE774890020CC0000208C5900087A
:1010400074590008DC000020D0000020D8000020E7
:1010500010B50348006810B101480068804710BD12
:10106000540000202DE9FF4F87B004469046DDE98B
:101070001BA5DDE91496179F002003909548007882
:10108000002805DD47F24A1028800BB0BDE8F08F3C
:101090001CB947F2AD102880F7E7B8F1000F03D173
:1010A00047F24F102880F0E71EB946F62F602880DF
:1010B000EBE789480068874203D246F63060288013
:1010C000E3E71698B84203D346F631602880DCE7A0
:1010D000B9F1200F03D346F273202880D5E7B9F188
:1010E000000F06D17D48844203D046F27320288049
:1010F000CBE7B9F11F0F06D17948844203D046F2FD
:1011000073202880C1E7204602F080FC0020288060
:101110000AF0010090B10AF0020078B105960020B3
:10112000069008E00021059801600598001D0590D3
:101130000698401C06900698B842F3D3169806EB22
:1011400080000490CDE9007A32464046049B0A991B
:1011500000F0D8FB0590C4F828800A98E06208984F
:10116000206284F83790059820600498A060199850
:101170006065199818B95B480068A06501E0199886
:10118000A0651A9860606662A763A4F83CA04FF05F
:10119000000B08E0002104F17C0040F82B100BF15B
:1011A000010000F0FF0BBBF1000FF3D004F164006D
:1011B000189901F011FC204600F09EF800BF00BF16
:1011C00000BFFFF707F8039000BFFFF7C9F900BFA2
:1011D00045480078401C44490870084600780128BA
:1011E00001D101F0F1FF00BFFFF7D4F900BF039870
:1011F000FEF7F4FF00BF00BF00BF94F8370001F016
:101200000BFE204601F044FF204602F0B5FB3748B4
:101210000088401C3549088035480078012837D0BF
:1012200000BF00BF00BFFEF7D5FF039000BFFFF770
:1012300097F900BF2C480078401E2B4908700846DB
:101240000078D0B901F0CEFF2A48008800280BDDD5
:1012500000BFFFF79FF900BF0398FEF7BFFF00BF75
:1012600000BF01F083FF11E000BFFFF793F900BF5B
:101270000398FEF7B3FF00BF08E000BFFFF78AF94D
:1012800000BF0398FEF7AAFF00BF00BF00BFFCE647
:1012900000BF00BF00BFFEF79DFF039000BFFFF738
:1012A0005FF900BF10480078401E0F4908700846DB
:1012B000007808B901F096FF00BFFFF76BF900BF97
:1012C0000398FEF78BFF00BF00BF00BFFFF776FC5F
:1012D00000BFDAE6640000208859000890850020ED
:1012E000C8840020B8000020B4000020E8000020DE
:1012F0006C0000207800002010B504460348006808
:1013000018B1204601490968884710BD44000020F3
:1013100070B504460D46002678480078002803DDA5
:1013200047F24E10288070BD7548844203D147F2C1
:101330004C102880F7E77348844203D147F24D10E0
:101340002880F0E79CB900BF00BFFEF743FF0646C8
:1013500000BFFFF705F900BF6B48046800BFFFF747
:1013600019F900BF3046FEF739FF00BF00BF00BFCC
:1013700000BF00BFFEF72EFF064600BFFFF7F0F8E4
:1013800000BF62480078401C604908700846007839
:10139000012801D101F018FF00BFFFF7FBF800BFE3
:1013A0003046FEF71BFF00BF00BF00BF94F83600B9
:1013B00008282DD2DFE800F004090E10080A0F11EA
:1013C000204601F0A5FE5EE05DE000BF204603F090
:1013D00021FA58E000BF00BF00BF204603F01AFA10
:1013E00094F83400082810D2DFE800F0040705085C
:1013F000090A0B0600BF00BF08E000BF00BF00BF26
:1014000000BF204601F039FC00E000BF00BF3AE019
:1014100000BF00BF00BFFEF7DDFE064600BFFFF7BE
:101420009FF800BF39480078401E384908700846C8
:101430000078D0B901F0D6FE3548008800280BDDD1
:1014400000BFFFF7A7F800BF3046FEF7C7FE00BF9A
:1014500000BF01F08BFE11E000BFFFF79BF800BF5B
:101460003046FEF7BBFE00BF08E000BFFFF792F872
:1014700000BF3046FEF7B2FE00BF00BF00BF46F619
:101480002D6028804FE700BF04F1640001F082FA6C
:10149000204600F041F8204602F086FA1D480088F8
:1014A000401E1C490880204602F0B0FAFF2084F854
:1014B000360000BF00BF00BFFEF78CFE064600BF2F
:1014C000FFF74EF800BF11480078401E0F49087022
:1014D0000846007808B901F085FE00BFFFF75AF80A
:1014E00000BF3046FEF77AFE00BF00BF00BF0020FD
:1014F0002880FFF763FB00BF15E7000064000020B1
:10150000C8840020908500200C010020B400002039
:1015100078000020E800002010B504460348006869
:1015200018B1204601490968884710BD48000020CD
:101530007FB504460D46002600BF00BFFEF74AFEF9
:10154000064600BFFFF70CF800BF1CB11748006843
:1015500084420CD100BFFFF71DF800BF3046FEF7F4
:101560003DFE00BF00BF47F2571028807FBD00BF7F
:10157000FFF710F800BF3046FEF730FE00BF00BF97
:101580000B48007800280BDD0020009001900346F6
:1015900002462146CDE90205064800F065FFE5E771
:1015A0002946204602F0DEFB00BFDFE70C010020E9
:1015B000640000205452455310B5044603480068A7
:1015C00018B1204601490968884710BD4C00002029
:1015D0002DE9F04780460E4614461D464FF000099F
:1015E0008C480078002805DD46F2AE1028800020E7
:1015F000BDE8F0871EB1B6F5004F02D100E000BF94
:1016000004E045F6256028800020F1E700BF0CB11A
:101610000020206000BF00BFFEF7DCFD814600BF58
:10162000FEF79EFF00BF7C480068406CB8B37A4864
:101630000068406C401E7849096848647648006834
:10164000476C1CB174480068006C2060FFF716F806
:1016500071490968096C401A6F490968C1F8A4000A
:101660006D480068D0F8A8006B490968D1F8A4104B
:10167000884207D268480068D0F8A4006649096823
:10168000C1F8A80000BFFEF785FF00BF4846FEF77F
:10169000A5FD00BF00BF002028803846A8E7FFE76F
:1016A00006F4004068B100BFFEF774FF00BF484673
:1016B000FEF794FD00BF00BF46F2B0102880002066
:1016C00096E75648007800280DDD00BFFEF762FF60
:1016D00000BF4846FEF782FD00BF00BF46F66350DC
:1016E0002880002084E700BF4C480078401C4B490C
:1016F000087008460078012801D101F065FD00BF9F
:10170000FEF748FF00BF4846FEF768FD00BF00BF78
:1017100000BF434607220021084601F0F3F900BF4D
:1017200000BF00BFFEF756FD814600BFFEF718FF61
:1017300000BF3A480078401E3849087008460078D3
:1017400008B901F04FFD00BFFEF724FF00BF484677
:10175000FEF744FD00BF00BF00BFFFF72FFA00BF38
:1017600000BFFEF737FD814600BFFEF7F9FE00BF60
:101770002948006890F8350020B1012826D00328B8
:1017800034D12CE0FCB124480068006C2060FEF7E6
:1017900075FF21490968096C401A1F490968C1F899
:1017A000A4001D480068D0F8A8001B490968D1F8BA
:1017B000A410884207D218480068D0F8A40016493F
:1017C0000968C1F8A8000020288013E01CB1124865
:1017D0000068006C206046F2A91028800AE00CB175
:1017E0000020206047F2D920288003E046F62E60D2
:1017F000288000BF00BF08480068476C00BFFEF7A4
:10180000C9FE00BF4846FEF7E9FC00BF00BF3846EE
:10181000EEE60000640000200C010020B40000206F
:101820002DE9F04705460E4617461C464FF0000AC4
:1018300032480078002804DD47F259102080BDE8C6
:10184000F0871EB946F2D5202080F8E71FB946F28E
:10185000D5202080F3E700BF00BFFEF7BBFC824627
:1018600000BFFEF77DFE00BF0DB92548056828685A
:1018700078B900BFFEF78EFE00BF5046FEF7AEFC03
:1018800000BF00BF00203060386047F25210208057
:10189000D5E795F83C0000F0010078B900BFFEF7ED
:1018A00079FE00BF5046FEF799FC00BF00BF002044
:1018B0003060386047F254102080C0E700BFFEF768
:1018C00069FE00BF5046FEF789FC00BF00BF4FF025
:1018D0000008D5F8249003E009F1040908F1010893
:1018E000D9F800000028F7D0C6F80080A86BA0EB5C
:1018F000080038600020208000BFA0E764000020BE
:101900000C010020F0B50446DDE9055602EB850028
:101910004FF0807C071F3846C7F800C0071F3846C5
:101920003C60DFF89CC0071F3846C7F800C04FF086
:10193000123C071F3846C7F800C04FF0033C071F92
:101940003846C7F800C04FF0023C071F3846C7F8BA
:1019500000C0071F38463B60071F384639604FF00C
:10196000113C071F3846C7F800C04FF0103C071F56
:101970003846C7F800C04FF0093C071F3846C7F883
:1019800000C04FF0083C071F3846C7F800C04FF0B2
:10199000073C071F3846C7F800C04FF0063C071F3A
:1019A0003846C7F800C04FF0053C071F3846C7F857
:1019B00000C04FF0043C071F3846C7F800C0F0BD18
:1019C000E13E00087FB505460C461248854203D12A
:1019D00047F25B1020807FBD0F48854203D147F25C
:1019E0005C102080F7E70D48007800280BDD002010
:1019F00000900190034602462946CDE902040848BA
:101A000000F032FDE7E72146284602F049FD00BF1D
:101A1000E1E70000C88400209085002064000020D9
:101A20005453555370B52448006810B122480068DB
:101A30008047FEF723FE04462048006820490968D5
:101A4000884215D01D480068D0F89800201A1B491C
:101A50000968C1F8940019480068D0F89C0017493B
:101A60000968D1F89410084414490968C1F89C0029
:101A700013480068C0F89840FEF746FD05460F4839
:101A80000068D0F8B400A84203D20C480068C0F83F
:101A9000B4500A480068D0F8B8000A49096888427A
:101AA00005D20848006805490968C1F8B800002057
:101AB0000449086070BD0000580000200C0100209F
:101AC00010010020B00000202DE9F04105460E462F
:101AD000144600274D480078002804DD47F27520A1
:101AE0002080BDE8F0814A480078002803DD46F6F2
:101AF00063502080F5E736B1022E05D0042E0AD0BF
:101B0000082E09D101E000BF00BF1DB947F27E20B9
:101B10002080E6E704E003E045F625602080E0E76A
:101B200000BF00BF00BF00BFFEF754FB074600BF69
:101B3000FEF716FD00BF36480078401C3449087097
:101B400008460078012801D101F03EFB00BFFEF7F6
:101B500021FD00BF3846FEF741FB00BF00BF00BFBC
:101B600001202C49096881F836002346324629466F
:101B70002848006802F070FD2088F0B100BF00BF67
:101B800000BFFEF727FB074600BFFEF7E9FC00BFDA
:101B90001F480078401E1E4908700846007808B9A2
:101BA00001F020FB00BFFEF7F5FC00BF3846FEF752
:101BB00015FB00BF00BF00BF93E71648006801F0A7
:101BC000A7FA00BF00BF00BFFEF704FB074600BF37
:101BD000FEF7C6FC00BF0E480078401E0C49087096
:101BE0000846007808B901F0FDFA00BFFEF7D2FC04
:101BF00000BF3846FEF7F2FA00BF00BF00BFFEF795
:101C0000DDFF0020208000BF6BE7000064000020A3
:101C1000B40000200C0100202DE9FF5F05460E46B0
:101C200017469846DDE90EA4002000908148007810
:101C3000002804DD47F275202080BDE8FF9F7E4824
:101C40000078002803DD46F663502080F5E70AF0AF
:101C50000E0BBBF1000F09D0BBF1020F07D0BBF197
:101C6000040F10D0BBF1080F0ED101E000BF00BF80
:101C7000B8F1000F06D12FB926B91DB947F27E2061
:101C80002080DAE704E003E045F625602080D4E711
:101C900000BF2AF01E0008B1012000E000200390E0
:101CA0000398012803D145F625602080C5E7CAF3D3
:101CB000001002900298C0B9B8F57A7F03D347F2BA
:101CC0007B202080B9E73B2F03DD47F27A2020807C
:101CD000B3E73B2E03DD47F279202080ADE7632D8B
:101CE00012DD47F278202080A7E742F20F7086428B
:101CF00003DD47F2792020809FE7B5F57A7F03DB8B
:101D000047F27820208098E74C48D0F800904FF4B4
:101D1000FA70B0FBF9F0404400FB09F04FF47A711F
:101D2000B0FBF1F14FF461606843C6EB061200EBC3
:101D30008200384400FB091001900198002873D0FC
:101D400000BF00BF00BFFEF745FA009000BFFEF7DE
:101D500007FC00BF38480078401C37490870084627
:101D60000078012801D101F02FFA00BFFEF712FC24
:101D700000BF0098FEF732FA00BF00BF00BF01208D
:101D80002F49096881F8360023465A462C480199A4
:101D9000006802F061FC2088F0B100BF00BF00BF06
:101DA000FEF718FA009000BFFEF7DAFB00BF2248EA
:101DB0000078401E204908700846007808B901F0F4
:101DC00011FA00BFFEF7E6FB00BF0098FEF706FA27
:101DD00000BF00BF00BF30E71948006801F098F964
:101DE00000BF00BF00BFFEF7F5F9009000BFFEF78F
:101DF000B7FB00BF10480078401E0F490870084626
:101E0000007808B901F0EEF900BFFEF7C3FB00BF90
:101E10000098FEF7E3F900BF00BF00BFFEF7CEFE5B
:101E20000020208003E0FFE747F27E20208000BFF3
:101E300003E7000064000020B40000208C59000873
:101E40000C01002010B586B000F01EF8FEF716FC5D
:101E5000044605A800210091CDE90114039007482C
:101E6000007800EB4000064A02EB800100231A468E
:101E7000044800F0F9FA06B010BD00009A000020F6
:101E8000648600205449434B10B50348006810B1E4
:101E900001480068804710BD5C00002010B5002498
:101EA00000BF00BFFEF796F9044600BFFEF758FBDF
:101EB00000BF09480078401C0749087000BFFEF7C2
:101EC00069FB00BF2046FEF789F900BF00BFFFF79E
:101ED000B9FFFEF701FE10BD6400002001464A1E56
:101EE0004FF0E0235A61084A106820F07F4000BF9D
:101EF00010601A46126942F005021A611A46126908
:101F000042F002021A61704720ED00E0254A26499E
:101F1000264A274A2749284A2848294A294A2A4A34
:101F20002A4A2B482B482C482C4A2D482D4A2E480B
:101F30002E4A2F482F4830483048314A314A324AD9
:101F40003248334A334A34483448354835483648AD
:101F500036483748374A384A384A394A39483A4879
:101F60003A483B4A3B4A3C4A3C483D483D483E494A
:101F70003E483F4A3F4A404A404A414A414A424A13
:101F80004248434A434A44484448454A454A4648E9
:101F9000464A474A47484848484800BF00BF00BF34
:101FA00070470000D0590008385B0008D15900087C
:101FB000D2590008D4590008D8590008DC59000843
:101FC000D9590008045A0008055A0008065A0008A2
:101FD000085A00080A5A00080C5A00080E5A00084D
:101FE000105A0008305A0008325A0008345A0008C3
:101FF000365A0008385A00083A5A00083C5A000875
:10200000685A0008695A00086A5A00086C5A0008A1
:102010006E5A00086F5A0008705A0008725A000879
:10202000745A0008765A0008785A00087A5A00084C
:102030007C5A0008AC5A0008AD5A0008AE5A000895
:10204000AF5A0008B05A0008B25A0008B45A000843
:10205000DC5A0008DD5A0008DE5A0008DF5A000882
:10206000E05A0008E25A0008E45A0008E85A00085A
:10207000E95A0008EA5A0008EB5A0008EC5A00082E
:10208000ED5A0008EE5A0008EF5A0008F05A00080E
:10209000F25A0008F35A0008F45A0008F65A0008E9
:1020A000F85A0008F95A0008FC5A0008305B00088A
:1020B000315B0008325B0008345B0008365B0008C7
:1020C0000021034A1160034A11800180704700001B
:1020D00084000020880000202DE9F04F85B00446E0
:1020E000894692469B46DDF838800020009000BF6C
:1020F00000BFFEF76FF8009000BFFEF731FA00BF97
:10210000BAF1000F0AD0BAF1010F0DD0BAF5004FA5
:1021100005D06FF40040504460B906E000BF206A6B
:1021200040EA0900206216E000BF206A20EA0900A8
:10213000206210E000BFFEF72DFA00BF0098FEF706
:102140004DF800BF00BF45F62560A8F8000000204C
:1021500005B0BDE8F08F00BFC4F824B004F108005A
:1021600001900198008968B900BFFEF713FA00BF1B
:102170000098FEF733F800BF00BF0020A8F8000069
:10218000206AE5E700BF71480078401C6F4908707D
:1021900008460078012801D101F016F800BFFEF7CB
:1021A000F9F900BF0098FEF719F800BF00BF00BFA3
:1021B00001980768BD6889E07868029095F8880002
:1021C00000F00F0003900398012821D002282ED0A0
:1021D000042802D0082836D10EE0206AD5F88010F5
:1021E00000EA0106D5F88000B04204D15A463146D3
:1021F000284600F0AFF863E0206AD5F8801000EAC6
:10220000010626B15A463146284600F0A3F857E0A9
:10221000D5F88000216A20EA0106D5F88000B04296
:1022200004D15A463146284600F094F848E0D5F8E3
:102230008000216A20EA010626B15A463146284626
:1022400000F088F83CE000BF00BF00BFFDF7C2FF10
:10225000009000BFFEF784F900BF3C480078401EA4
:102260003A49087008460078D0B900F0BBFF3848FA
:10227000008800280BDD00BFFEF78CF900BF009836
:10228000FDF7ACFF00BF00BF00F070FF11E000BF22
:10229000FEF780F900BF0098FDF7A0FF00BF08E03F
:1022A00000BFFEF777F900BF0098FDF797FF00BF6A
:1022B00000BF00BF43F6FF20A8F80000002047E75A
:1022C00000BF029F0FB1BD6800E00025002D7FF424
:1022D00073AF00BF00BF00BFFDF77CFF009000BFE1
:1022E000FEF73EF900BF19480078401E17490870F4
:1022F0000846007808B900F075FF00BFFEF74AF9FC
:1023000000BF0098FDF76AFF00BF00BF00BF0AF4DE
:10231000004008B9FEF752FC00BF00BFFDF75AFFAE
:10232000009000BFFEF71CF900BF206A049000BFB8
:10233000FEF730F900BF0098FDF750FF00BF00BF67
:102340000020A8F80000049802E70000B400002074
:102350007800002070B504460E46154634342665D4
:10236000002060702070E560A078343C082816D208
:10237000DFE800F0040508090706101100BF00BFE0
:1023800000BF0DE000BF204601F0DEFC002084F815
:10239000360005E000BF042084F8360000E000BFEE
:1023A00000BF204600F069FC70BD0000002400BFA3
:1023B0001DE000BF00BFFDF70DFF044600BFFEF7A4
:1023C000CFF800BF0A480068401C09490860094866
:1023D0000068401C0749086000BFFEF7DBF800BF3B
:1023E0002046FDF7FBFE00BF00BFFEF789FAE0E7DD
:1023F00060000020CC00002010B58AB00446002008
:102400000E4908600B2000210591CDE907040691D3
:1024100008460B4909680B4A12680B4B1B68CDE94B
:102420000132CDE903101F200023084A08A10090C3
:102430000C48FEF717FE0AB010BD00006000002037
:1024400034590008305900082C590008AD23000801
:1024500075432F4F532D4949492049646C652054D9
:1024600061736B00C88400202DE9F84F04460D46C7
:1024700016461F46DDE90BABDDF82890DDF8348009
:102480000020009000BF00BFFDF7A4FE009000BF39
:10249000FEF766F800BF2C4800882C49098888425E
:1024A0003EDA29480088401C2749088028480088CF
:1024B0000988884203DA244800882549088025488D
:1024C0000068046023480068856022480068C66090
:1024D0002048006807821F480068C0F814901D4813
:1024E0000068A0F818A01B480068C0F81CB0194884
:1024F000006840681749086001201749088117489B
:1025000008604860002000F087FC1548007818B18A
:1025100013480078134908700020A8F8000008E06C
:1025200011480088401C1049088044F25360A8F804
:10253000000000BFFEF72EF800BF0098FDF74EFE2A
:1025400000BF00BFBDE8F88F7800002040590008A8
:102550007A00002070000020648600209085002012
:102560009A0000209C0000207C0000203EB55948C5
:1025700000680068584A811A904279D00FDC5749A8
:10258000084400283ED056490844A8B1554908449B
:10259000002860D05449084400286AD13FE05348DD
:1025A0000844002850D052490844002862D05149BC
:1025B00008440028F1D110E002A8464D00902D6893
:1025C000EB69444D2D682A8B424D2D686969414D58
:1025D0002D68A868FFF780FD7AE002A93D480068F1
:1025E000C0693C4DCDE900012D682B8B394D2D681C
:1025F0002A8A384D2D68E968364D2D68A86800F0A4
:102600003BFC65E0334B1B68DA69324B1B68198B66
:10261000304B1B68986802AB00F084FE58E002A9BA
:102620002C480068C0692B4DCDE900012D682B8B2B
:10263000284D2D682A8A274D2D68E968254D2D687B
:10264000A86801F04BFA43E022490968886802A9AA
:1026500001F088FB3CE01F4B1B68DA691D4B1B68CF
:10266000198B1C4B1B68986802AB01F045FC2FE0EE
:1026700007E02CE017490968886802A901F010FFFB
:1026800026E01D49097801EB41011C4A02EB81005B
:1026900000F0C6FD0F48006802AB0021C26918486F
:1026A00001F02AFC17480068401E164908600846D9
:1026B000006858B9144800680860FDF7DFFF044659
:1026C00002AB22460021114801F016FC00E000BFD9
:1026D00000BF3EBD740000205449434BADBAB2BEAA
:1026E0000DF90BFAF2F8F7FF0006F6FF00F7FDF719
:1026F00000FFEFFF03FE0FFE9C0000206486002019
:10270000AC8800200801002004010020748900200A
:10271000002700BF56E0002652E000BF00BFFDF7D3
:1027200059FD074600BFFDF71BFF00BF2648008884
:1027300098B90020254908810860486000F07EFBB8
:1027400000BFFDF727FF00BF3846FDF747FD00BF7C
:1027500000BFFEF733FA012632E000BFFDF71AFF93
:1027600000BF3846FDF73AFD00BF00BFFDF786FF0A
:102770000546FFF7FBFEFDF781FF441B1448006888
:10278000A04201D21248046000BF00BFFDF722FD45
:10279000074600BFFDF7E4FE00BF0E480068406832
:1027A0000C49086008480088401E0749088000BF9F
:1027B000FDF7F0FE00BF3846FDF710FD00BF00BF7B
:1027C000002EAAD0A7E70000780000206486002031
:1027D0008000002074000020F0B589B0054600207C
:1027E000314908803148006820B944F2526028809D
:1027F00009B0F0BD2E480088022803DA44F2546084
:102800002880F5E700202B49086028480468264600
:10281000203600270CE0284820600020A060E060FF
:10282000208260612083666020342036781C87B265
:102830001F4800888742EEDB203C1C480668666023
:102840001E4806601E48066000201E4908801E497A
:1028500008801E48006818B944F255602880C7E710
:102860001B4800681B490968884203D244F256603D
:102870002880BDE7032000210591CDE907050691D9
:1028800013480068144A1268104B1B68CDE9030115
:10289000CDE9013200910B46104A11A11748FEF70D
:1028A000E1FB00BFA4E700007C0000203C590008C9
:1028B00040590008800000204E4F4E457000002017
:1028C00074000020780000207A0000204859000899
:1028D00050590008885900084C5900081127000871
:1028E00075432F4F532D4949492049535220517563
:1028F000657565205461736B0000000090850020B1
:102900000021034A1160034A1180018070470000D2
:102910008C0000209000002070B501461A4D2D68F3
:102920001DB945F21E750D8070BD184D2D881DB95D
:1029300045F21D750D80F7E7134D28682A6810329F
:10294000124D2D886D1EACB2002308E002600025F8
:1029500045600581C560103010325D1CABB2A342EA
:10296000F4DB0025056045600581C560064D2D68D6
:10297000074E3560054D2D88B5800025F5803581E1
:102980000D8000BFD0E700006C59000864590008B2
:102990005886002010B5014648894B89002B17DD69
:1029A0000A680C4B1B6813600A4C4B682360234673
:1029B000DB884C891B1B074CE38023469B884C8992
:1029C0002344044CA38000234B818B810B604B601C
:1029D00010BD0000588600200181002242818281C2
:1029E00002604260704700002DE9F0410D46DDE9CC
:1029F0000674B0F80AC0B0F80880C44505DB46F29A
:102A0000935CA4F800C0BDE8F081DFF8DCC0BCF83E
:102A100004C0BCF1000F04D145F21D7CA4F800C035
:102A2000F1E7DFF8C4C0DCF80010DFF8BC80D1F8B3
:102A300000C0C8F800C0C446BCF804C0ACF1010C2A
:102A4000A8F804C0C446BCF806C00CF1010CA8F8F4
:102A500006C0C446BCF808C0B8F80680C44507DA0A
:102A6000DFF884C0BCF806C0DFF87C80A8F808C096
:102A7000B0F80AC0BCF1000F0AD1016041604FF00C
:102A8000010CA0F80AC04FF0000CC1F800C017E01C
:102A900003F0100CBCF1000F07D106683160016033
:102AA0004FF0000CC1F800C004E0D0F804C0C1F839
:102AB00000C04160B0F80AC00CF1010CA0F80AC0D7
:102AC000B0F80CC0B0F80A80C44503DAB0F80AC008
:102AD000A0F80CC04D600A81CF604FF0000CA4F844
:102AE00000C000BF8FE70000588600200021034A85
:102AF0001160034A1180018070470000940000209B
:102B0000980000202DE9F04105460C4616461F4668
:102B10001548006880F8346000201349096881F87E
:102B2000350039461048006800F00AFF6CB104F126
:102B30000808EC60012229460B48006800F016F8EE
:102B40002946404600F066F806E00020064909687C
:102B5000C88705490968086303480168204600F0F2
:102B600019F8BDE8F08100000C01002010B5C28703
:102B7000016300230AE000244C600C600C614C618E
:102B80000C83CC61886020315C1CA3B29342F2DBE1
:102B900010BD000030B548B14568C1F8C45000F11F
:102BA0000804226893681D6AC56113E091F83450E7
:102BB000022D02D0072D08D103E007A5C1F8C450AB
:102BC00007E007A5C1F8C45003E008A5C1F8C45048
:102BD00000BF00BF30BD00005461736B2051000086
:102BE0005461736B2053656D0000000020000000ED
:102BF00030B507A5C1F8C45000F1080422681AB125
:102C000093681D6AC56101E001A5C56130BD000082
:102C100020000000F0B58E6896F8375007893FB95C
:102C20000127078100274F600F600160416023E0AA
:102C300007897F1C0781026806E0946894F8377062
:102C4000AF4200DD02E05268002AF6D100BF32B97F
:102C500000274F6043680B60596041600CE01768C3
:102C60002FB9116000270F604A60016004E013680B
:102C70000B604A6059601160F0BD2DE9F0410446D7
:102C8000256BE68F0AE0D5F80C8008F10807294685
:102C9000384600F00AF82035701E86B2002EF2DCAD
:102CA0000020E0872063BDE8F08110B50489012C85
:102CB00003D100240460446011E00C6824B94A6820
:102CC0000024146002600AE04C6824B90B680024F8
:102CD0005C60436003E00B684A685A6013600489D3
:102CE000641E048100244C600C6010BD2DE9F84383
:102CF00006460C4617469846089D94F83600082864
:102D000050D2DFE800F00405080906072B2C00BFAD
:102D100000BF00BF47E000BF94F83400032807D18C
:102D200043463A4621463046009500F03FF803E01E
:102D3000E765A4F86080256436B12046FFF79DFF63
:102D400021463046FFF754FF204600F0FDFF0020EB
:102D50003434A070607004F8340924E000BF94F8A3
:102D60003400032807D143463A46214630460095B1
:102D700000F01CF803E0E765A4F8608025642046B5
:102D800001F048FD36B12046FFF777FF2146304677
:102D9000FFF72EFF04203434A0700020607004F888
:102DA000340900E000BF00BFBDE8F883F0B5044679
:102DB000059E086BCD8F0AE0C768A74204D1046165
:102DC00042610383C66104E020306F1EBDB2002D56
:102DD000F2DC00BFF0BD000070B50025074C03E039
:102DE00005F12000C5B2241D20680028F8D0206815
:102DF000FDF7FBF92844C5B2284670BD400000200D
:102E0000002004E00021034A42F82010401C002862
:102E1000F8D070474000002030B5420900F01F0391
:102E20000121C3F11F04A140034C54F822400C437C
:102E3000014D45F8224030BD4000002030B5420928
:102E400000F01F030121C3F11F04A140034C54F8FB
:102E500022408C43014D45F8224030BD4000002007
:102E60000021034A1160034A11800180704700006D
:102E7000A0000020A40000202DE9F04F85B00746F7
:102E80008A4693461C460020029000BF00BF00BF48
:102E9000FDF7A0F9029000BFFDF762FB00BF5648A6
:102EA0000078401C5449087008460078012801D178
:102EB00000F08AF900BFFDF76DFB00BF0298FDF737
:102EC0008DF900BF00BF00BF07F108063089002858
:102ED0004CD104F0100010B94FF0000801E04FF0A1
:102EE0001008DDE90E0143465A46CDE9000151467E
:102EF00007F12000FFF778FD00BF00BF00BFFDF71E
:102F000069F9029000BFFDF72BFB00BF3A4800783B
:102F1000401E3949087008460078D0B900F062F9BF
:102F20003648008800280BDD00BFFDF733FB00BFEB
:102F30000298FDF753F900BF00BF00F017F911E048
:102F400000BFFDF727FB00BF0298FDF747F900BF60
:102F500008E000BFFDF71EFB00BF0298FDF73EF939
:102F600000BF00BF00BF05B0BDE8F08F04F40070E3
:102F700008B1358900E00125D6F8009011E0D9F8B4
:102F800008000390D9F8040004900E985B4652465E
:102F9000009038460399FFF7A9FEDDF81090681EEF
:102FA00085B2002DEBD100BF00BF00BFFDF712F9C5
:102FB000029000BFFDF7D4FA00BF0F480078401E12
:102FC0000D4908700846007808B900F00BF900BFF9
:102FD000FDF7E0FA00BF0298FDF700F900BF00BF5F
:102FE00000BF04F4004008B9FDF7E8FD00210F9888
:102FF000018000BFB7E70000B40000207800002087
:1030000000210AE001EB4102054B03EB82000022A4
:103010000281026042604A1CD1B22029F2D370477B
:103020006486002010B5044694F83700FFF7F4FEDC
:1030300094F8370005490978884203D1204600F00A
:1030400027F802E0204600F003F810BD9A000020A7
:1030500010B590F8373003EB43030C4C04EB8301BD
:103060000B893BB901230B810023C3600361086016
:10307000486009E00B895B1C0B810B68C36000236F
:1030800003610A681061086010BD000064860020BA
:1030900010B590F8373003EB43030B4C04EB83017E
:1030A0000B893BB901230B810023C36003610860D6
:1030B000486008E00B895B1C0B810023C3604A68F1
:1030C0000261D060486010BD6486002010B50146E2
:1030D0000C8924B1012C03D0022C0CD101E000BFDB
:1030E00014E008684A6802610024C4601461D0607A
:1030F0000A6048600AE008684A68C36800241C61E6
:10310000C4600261D0600B60486000BF00BF10BDAA
:103110002DE9F041054695F8370000EB40001249D3
:1031200001EB80042F69EE6887B946B90020208141
:103130002060606095F83700FFF780FE0EE0208980
:10314000401E208100203061266007E02089401E5B
:103150002081FE600EB9676000E0376100202861C1
:10316000E860BDE8F08100006486002010B500240E
:1031700000BFFDF72FF8044600BF00200D4908707E
:103180000D480E49086008460068D0F89000401CC1
:103190000968C1F890000A480068401C08490860A6
:1031A0004FF080500749086000BF2046FDF716F831
:1031B00000BF10BD9B000020908500201001002062
:1031C000E000002004ED00E010B50448007801287C
:1031D00003D1FDF753FA0249086010BDB400002086
:1031E000A800002010B50A48007880B9FDF746FA1B
:1031F00008490968441A08480068A04201D20648F4
:10320000046006480068A04201D20448046010BD72
:10321000B4000020A8000020AC000020B000002076
:1032200070B50546002635480078012800D070BDED
:1032300000BF00BFFCF7CEFF064600BFFDF790F9C8
:1032400000BF2C684CB900BFFDF7A4F900BF3046A1
:10325000FCF7C4FF00BF00BFE9E72948844209D159
:1032600000BFFDF797F900BF3046FCF7B7FF00BF7E
:1032700000BFDCE7A06D10B1A06D401EA065A06D81
:1032800048B100BFFDF786F900BF3046FCF7A6FF46
:1032900000BF00BFCBE72889022809DA00BFFDF78D
:1032A00079F900BF3046FCF799FF00BF00BFBEE7C9
:1032B00014480078002809DD00BFFDF76BF900BF56
:1032C0003046FCF78BFF00BF00BFB0E72846FFF792
:1032D000FDFE2C68606D18B90B480068A06501E020
:1032E000606DA06500BFFDF755F900BF3046FCF7E3
:1032F00075FF00BF00BF00BF99E70000BC000020C1
:10330000C8840020B4000020B80000200021034A37
:103310001160034A1180018070470000C000002046
:10332000C40000202DE9FF5F0446884691461D46F3
:103330000020019000BF00BFFCF74CFF019000BFD0
:10334000FDF70EF900BF04F108073889002857D1AE
:103350000420012804D0022816D004283AD127E0FE
:10336000206AFF280FD100BFFDF714F900BF0198B4
:10337000FCF734FF00BF00BF46F6C5502880002090
:1033800004B0BDE8F09F26E04FF6FF71206A884246
:103390000DD100BFFDF7FEF800BF0198FCF71EFF3E
:1033A00000BF00BF46F6C55028800020E8E712E0C5
:1033B000206A401C68B900BFFDF7ECF800BF019817
:1033C000FCF70CFF00BF00BF46F6C5502880002068
:1033D000D6E700E000BF00BF206A401C2062D4F89E
:1033E00020A0C4F8249000BFFDF7D4F800BF0198D6
:1033F000FCF7F4FE00BF00BF002028805046BFE766
:1034000000BF2D480078401C2B4908700846007802
:10341000012801D1FFF7D8FE00BFFDF7BBF800BFC0
:103420000198FCF7DBFE00BF00BF00BF08F400708E
:1034300008B13E8900E00126D7F800B011E0DBF8C2
:1034400008000290DBF80400039000231A46CDF830
:10345000009020460299FFF749FCDDF80CB0701E81
:1034600086B2002EEBD1D4F820A000BF00BF00BF71
:10347000FCF7B0FE019000BFFDF772F800BF0E48E8
:103480000078401E0C4908700846007808B9FFF71C
:10349000A9FE00BFFDF77EF800BF0198FCF79EFE75
:1034A00000BF00BF00BF08F4004008B9FDF786FB6D
:1034B00000202880504663E7B400002086B000203A
:1034C000009000BF06E0D9490968480001AA002120
:1034D000FEF7FAFAD64800780128F4D101A8FDF7E2
:1034E00083FC0027D3480068D0490968884205D981
:1034F000D0480068CD490968B0FBF1F727B9CD483D
:1035000000680A21B0FBF1F78EE1FDF7B7F88246BB
:10351000FDF710F8C849086000BF00BFFCF75AFE6D
:10352000009000BFFDF71CF800BFC4480068C44904
:1035300008600020C149086000BFFDF72BF800BFFC
:103540000098FCF74BFE00BF00BFBE480068BC49B6
:103550000968884248D9BB480068BB49884205D2FF
:1035600042F2107003900120029023E0B5480068F9
:10357000B649884205D24FF47A7003900A2002902F
:1035800018E0B0480068B249884203D26420039032
:1035900002900FE0AB480068AE49884205D20A208D
:1035A00003904FF47A70029004E00120039042F2FD
:1035B00010700290A34801680298B1FBF0F9A0498D
:1035C000039809684843B0FBF9F042F21071081AF9
:1035D000A1490880A14800880988884208DA9E48E5
:1035E00000889E49088003E042F210709A490880E2
:1035F000FDF72EFD002500BF00BFFCF7EBFD00909E
:1036000000BFFCF7ADFF00BF9548046800BFFCF7A2
:10361000C1FF00BF0098FCF7E1FD00BF00BF72E0F2
:1036200000BF00BF00BFFCF7D5FD009000BFFCF756
:1036300097FF00BF8B480078401C8A4908700846F5
:103640000078012801D1FFF7BFFD00BFFCF7A2FF02
:1036500000BF0098FCF7C2FD00BF00BF00BF54F8D8
:103660009C0F6060002044F89C0900BF00BF00BFB1
:10367000FCF7B0FD009000BFFCF772FF00BF794877
:103680000078401E7749087008460078D0B9FFF7E7
:10369000A9FD7548008800280BDD00BFFCF77AFF04
:1036A00000BF0098FCF79AFD00BF00BFFFF75EFD6A
:1036B00011E000BFFCF76EFF00BF0098FCF78EFD25
:1036C00000BF08E000BFFCF765FF00BF0098FCF7F3
:1036D00085FD00BF00BF00BFD4F8A000054400BFB7
:1036E00000BFFCF777FD009000BFFCF739FF00BF7B
:1036F000D4F8C04000BFFCF74DFF00BF0098FCF7B6
:103700006DFD00BF00BF002C8AD145B34E488542F5
:1037100005D242F2107005904FF0010B1BE04B48B0
:10372000854205D24FF47A7005904FF00A0B12E0F3
:103730004748854203D26420059083460BE0454804
:10374000854204D20A2005904FF47A7B03E00120E1
:10375000059042F2107BB5FBFBF0049003E00020E3
:1037600005900120049000BF00BFFCF733FD0090DE
:1037700000BFFCF7F5FE00BF3948046800BFFCF746
:1037800009FF00BF0098FCF729FD00BF00BF2FE034
:10379000D4F8A000059948430499B0FBF1F086B233
:1037A00042F21070864200D90646A4F88C60B4F844
:1037B0008E00B04201DAA4F88E6001AB04F1AC02D5
:1037C000111D2046FEF72CF800BF00BFFCF702FDDC
:1037D000009000BFFCF7C4FE00BFD4F8C04000BF9B
:1037E000FCF7D8FE00BF0098FCF7F8FC00BF00BF54
:1037F000002CCDD11D480078012805D100201B499F
:10380000087001A8FDF7F0FAFCF738FFA0EB0A08F2
:1038100017480068404502D21548C0F8008001AA48
:1038200000213846FEF750F96FE600007459000891
:10383000D80000208C59000868000020CC0000202F
:10384000D4000020D0000020801A060000093D00AE
:10385000005A62020084D717C8000020CA00002066
:10386000E4000020B400002078000020C600002002
:10387000DC00002010B58AB0044600201F49086013
:103880001F4908601F4908601F4908701F490870D8
:103890001F48006820B946F62B6020800AB010BD92
:1038A0001C4800681C490968884203D246F62C600F
:1038B0002080F3E7194800781F2803D346F62A60D2
:1038C0002080EBE7032000210591CDE90704069154
:1038D000084610490968124A12680D4B1B68CDE969
:1038E0000132CDE903100D48007800230D4A0EA1E6
:1038F00000901248FDF7B6FB00BFCFE7CC000020D8
:10390000D4000020D0000020D8000020C6000020F5
:103910007859000880590008885900087059000833
:103920007C590008BD34000875432F4F532D494979
:10393000492053746174205461736B00E487002044
:1039400038B504460D4685B16B460222294620460D
:1039500000F082FEBDF8000018B9032084F836009C
:1039600006E0022084F8360002E0022084F83600E7
:103970002046FFF7CDFB38BD0021C0F8BC10094937
:10398000096819B90021C0F8C01007E005490968A5
:10399000C0F8C01003490968C1F8BC0001490860BB
:1039A00070470000E4000020D0F8BC20D0F8C01020
:1039B0004AB90D4B196011B10023C1F8BC30002386
:1039C000C0F8C0300FE029B90023C2F8C030C0F8F9
:1039D000BC3008E0C2F8C010C1F8BC200023C0F819
:1039E000C030C0F8BC307047E40000200021044A19
:1039F0001160044A1180044A116001807047000080
:103A0000E4000020E8000020E000002070B504463B
:103A100000202060A0606060E06020616061A061C3
:103A2000E0612BA0206200206062A062E06220635F
:103A3000E0872064E065A4F86000002104F16400E0
:103A4000FEF7CAFF002044F8740F6060E060A082B7
:103A50002061743C002506E0002104F17C0040F860
:103A60002510681CC5B2002DF6D00020343420612A
:103A700020676067606084F85600E067A067208177
:103A80004FF0004060610020A061E0612062606250
:103A9000A4F85800A4F85A00E0652066FCF7EEFD93
:103AA000064666660020A066C4F88000C4F884005C
:103AB00020706070A0702020E0700020C4F88800A2
:103AC000C4F88C0004A0C4F89000343C70BD000021
:103AD0003F5461736B000000200000002DE9FC479B
:103AE00004460F4690469946DDE90A654FF0000A04
:103AF00000BF00BF00BFFCF76DFB824600BFFCF7B4
:103B00002FFD00BF8D480078401C8C490870084686
:103B10000078012801D1FFF757FB00BFFCF73AFD01
:103B200000BF5046FCF75AFB00BF00BF00BF0CB9F6
:103B3000834804680020288094F8360008287CD246
:103B4000DFE800F00405484906074A4B00BF00BF04
:103B500000BF4B464246394604F16400CDE900659A
:103B6000FEF742FF00BF00BF00BFFCF733FB8246F9
:103B700000BFFCF7F5FC00BF70480078401E6F499D
:103B8000087008460078D0B9FFF72CFB6D48008814
:103B900000280BDD00BFFCF7FDFC00BF5046FCF722
:103BA0001DFB00BF00BFFFF7E1FA11E000BFFCF70B
:103BB000F1FC00BF5046FCF711FB00BF08E000BF5E
:103BC000FCF7E8FC00BF5046FCF708FB00BF00BF55
:103BD00000BFAFE000BF00BF00BF94F83400022870
:103BE0002CD143463A46214600200096FFF77EF846
:103BF00000BF00BF00BFFCF7EDFA824600BFFCF734
:103C0000AFFC00BF4D480078401E4C490870084684
:103C1000007808B9FFF7E6FA00BFFCF7BBFC00BF6D
:103C20005046FCF7DBFA00BF00BF00BF09F40040BC
:103C3000002843D1FCF7C2FF40E040E04B4642463B
:103C4000394604F16400CDE90065FEF7CDFE00BF02
:103C500000BF00BFFCF7BEFA824600BFFCF780FC45
:103C600000BF36480078401E344908700846007886
:103C7000D0B9FFF7B7FA3348008800280BDD00BF42
:103C8000FCF788FC00BF5046FCF7A8FA00BF00BF55
:103C9000FFF76CFA11E000BFFCF77CFC00BF504658
:103CA000FCF79CFA00BF08E000BFFCF773FC00BF04
:103CB0005046FCF793FA00BF00BF00BF3AE000BFD8
:103CC00000BF00BFFCF786FA824600BFFCF748FC45
:103CD00000BF1A480078401E18490870084600784E
:103CE000D0B9FFF77FFA1748008800280BDD00BF26
:103CF000FCF750FC00BF5046FCF770FA00BF00BF55
:103D0000FFF734FA11E000BFFCF744FC00BF504657
:103D1000FCF764FA00BF08E000BFFCF73BFC00BF03
:103D20005046FCF75BFA00BF00BF00BF46F62D60AF
:103D3000288000BF00BFBDE8FC870000B400002061
:103D40000C0100207800002010B50446204600F049
:103D500061FD94F8360000F0040010B92046FFF72A
:103D600061F910BD70B504460D46002600BF00BFC6
:103D7000FCF730FA064600BFFCF7F2FB00BF00205C
:103D8000288094F8360008287ED2DFE800F0040589
:103D9000060714566A8000BF00BF00BF00BFFCF7D3
:103DA000F9FB00BF3046FCF719FA00BF00BF47F22D
:103DB000531028808CE000BF48480078401C4749D9
:103DC000087008460078012801D1FFF7FDF900BF0F
:103DD000FCF7E0FB00BF3046FCF700FA00BF00BF75
:103DE00000BF14F88A0F401E207014F88A0928B901
:103DF000002084F836002046FFF7A6FF00BF00BF72
:103E000000BFFCF7E7F9064600BFFCF7A9FB00BFBF
:103E100032480078401E314908700846007808B9D9
:103E2000FFF7E0F900BFFCF7B5FB00BF3046FCF739
:103E3000D5F900BF00BF00BF4AE014F88A0F401E4A
:103E4000207014F88A0910B9012084F8360000BFE8
:103E5000FCF7A0FB00BF3046FCF7C0F900BF00BF75
:103E600036E014F88A0F401E207014F88A0910B941
:103E7000022084F8360000BFFCF78CFB00BF304600
:103E8000FCF7ACF900BF00E015E000BF20E014F83B
:103E90008A0F401E207014F88A0910B9032084F894
:103EA000360000BFFCF776FB00BF3046FCF796F902
:103EB00000BF00BF0CE000BFFCF76CFB00BF30464A
:103EC000FCF78CF900BF00BF46F62D60288070BD5E
:103ED00000BFFCF773FE00BFF9E70000B40000204C
:103EE00008B504480068FDF767FB69460020FDF748
:103EF0000FFA08BD0C0100202DE9F843044688465E
:103F000017461D464FF0000900BF00BF00BFFCF779
:103F100061F9814600BFFCF723FB00BFFB48007836
:103F2000401CFA49087008460078012801D1FFF7C3
:103F30004BF900BFFCF72EFB00BF4846FCF74EF9DB
:103F400000BF00BF00BF0CB9F1480468276400201F
:103F5000288094F8360008287AD2DFE800F00405BB
:103F6000FEFD0607FCFB00BF00BF00BF04200128C8
:103F700004D0022843D004286BD184E0606CFF2871
:103F80003CD100BF00BF00BFFCF724F9814600BF51
:103F9000FCF7E6FA00BFDD480078401EDB490870F8
:103FA00008460078D0B9FFF71DF9DA4800880028E4
:103FB0000BDD00BFFCF7EEFA00BF4846FCF70EF938
:103FC00000BF00BFFFF7D2F811E000BFFCF7E2FA34
:103FD00000BF4846FCF702F900BF08E000BFFCF74D
:103FE000D9FA00BF4846FCF7F9F800BF00BF00BF90
:103FF00046F6C55028800020BDE8F88385E04FF6DE
:10400000FF71606C88423DD100BF00BF00BFFCF76C
:10401000E1F8814600BFFCF7A3FA00BFBB48007877
:10402000401EBA49087008460078E0B9FFF7DAF890
:10403000B848008800280DDD00BFFCF7ABFA00BFD0
:104040004846FCF7CBF800BF00BFFFF78FF813E03E
:10405000E2E159E000BFFCF79DFA00BF4846FCF7DB
:10406000BDF800BF08E000BFFCF794FA00BF484667
:10407000FCF7B4F800BF00BF00BF46F6C55028806B
:104080000020B9E741E0606C401CD8BB00BF00BF16
:1040900000BFFCF79FF8814600BFFCF761FA00BF44
:1040A0009A480078401E9949087008460078D0B9AF
:1040B000FFF798F89748008800280BDD00BFFCF751
:1040C00069FA00BF4846FCF789F800BF00BFFFF758
:1040D0004DF811E000BFFCF75DFA00BF4846FCF761
:1040E0007DF800BF08E000BFFCF754FA00BF484667
:1040F000FCF774F800BF00BF00BF46F6C55028802B
:10410000002079E7FFE700E000BF00BF606C401CC3
:104110006064666C00BF00BF00BFFCF75BF88146BF
:1041200000BFFCF71DFA00BF78480078401E7749B1
:10413000087008460078F8B9FFF754F87548008809
:10414000002810DD00BFFCF725FA00BF4846FCF749
:1041500045F803E01EE01CE01AE018E000BF00BFD5
:10416000FFF704F811E000BFFCF714FA00BF48465F
:10417000FCF734F800BF08E000BFFCF70BFA00BF03
:104180004846FCF72BF800BF00BF00BF80E100BF2E
:1041900000BF00BF94F8340007282CD100231A4632
:1041A000214618460097FEF7A1FD666C00BF00BFD0
:1041B00000BFFCF70FF8814600BFFCF7D1F900BF44
:1041C00052480078401E514908700846007808B9E6
:1041D000FFF708F800BFFCF7DDF900BF4846FBF722
:1041E000FDFF00BF00BF00BF08F40040002801D160
:1041F000FCF7E4FC0FE10420012804D0022842D09F
:10420000042872D189E0606CFF283BD100BF00BF59
:1042100000BFFBF7DFFF814600BFFCF7A1F900BF3D
:104220003A480078401E3949087008460078D0B9ED
:10423000FEF7D8FF3748008800280BDD00BFFCF7E9
:10424000A9F900BF4846FBF7C9FF00BF00BFFEF752
:104250008DFF11E000BFFCF79DF900BF4846FBF75A
:10426000BDFF00BF08E000BFFCF794F900BF48465F
:10427000FBF7B4FF00BF00BF00BF46F6C550288063
:104280000020B9E68BE04FF6FF71606C884243D1A5
:1042900000BF00BF00BFFBF79DFF814600BFFCF7DA
:1042A0005FF900BF19480078401E18490870084699
:1042B0000078D8B9FEF796FF1648008800280BDD75
:1042C00000BFFCF767F900BF4846FBF787FF00BF58
:1042D00000BFFEF74BFF12E000BFFCF75BF900BF29
:1042E0004846FBF77BFF00BF09E057E000BFFCF743
:1042F00051F900BF4846FBF771FF00BF00BF00BF88
:1043000046F6C5502880002076E60000B400002064
:104310000C0100207800002041E0606C401CD8BBFC
:1043200000BF00BF00BFFBF755FF814600BFFCF791
:1043300017F900BF58480078401E574908700846D2
:104340000078D0B9FEF74EFF5448008800280BDDF6
:1043500000BFFCF71FF900BF4846FBF73FFF00BF57
:1043600000BFFEF703FF11E000BFFCF713F900BF29
:104370004846FBF733FF00BF08E000BFFCF70AF92F
:1043800000BF4846FBF72AFF00BF00BF00BF46F64C
:10439000C550288000202FE6FFE700E000BF00BFE7
:1043A000606C401C6064666C00BF00BF00BFFBF720
:1043B00011FF814600BFFCF7D3F800BF36480078F4
:1043C000401E3549087008460078D0B9FEF70AFF4C
:1043D0003248008800280BDD00BFFCF7DBF800BF87
:1043E0004846FBF7FBFE00BF00BFFEF7BFFE11E033
:1043F00000BFFCF7CFF800BF4846FBF7EFFE00BF59
:1044000008E000BFFCF7C6F800BF4846FBF7E6FE31
:1044100000BF00BF00BF3BE000BF00BF00BFFBF715
:10442000D9FE814600BFFCF79BF800BF1A48007810
:10443000401E1949087008460078D0B9FEF7D2FE30
:104440001648008800280BDD00BFFCF7A3F800BF6A
:104450004846FBF7C3FE00BF00BFFEF787FE11E032
:1044600000BFFCF797F800BF4846FBF7B7FE00BF58
:1044700008E000BFFCF78EF800BF4846FBF7AEFE31
:1044800000BF00BF00BF46F62D602880002600BF99
:1044900000BF3046B0E50000B400002078000020E6
:1044A00070B504460D46002600BF00BFFBF792FE24
:1044B000064600BFFCF754F800BF0CB95A48046820
:1044C00059480068844210D15848007800280CDD13
:1044D00000BFFCF75FF800BF3046FBF77FFE00BF70
:1044E00000BF46F66350288070BD0020288094F8F5
:1044F0003600082873D2DFE800F004425262737479
:10450000757600BF49480078401C48490870084645
:104510000078012801D1FEF757FE00BFFCF73AF8FA
:1045200000BF3046FBF75AFE00BF00BF00BF0420AB
:1045300084F83600012084F88A002046FEF7E8FD62
:1045400000BF00BF00BFFBF745FE064600BFFCF7FB
:1045500007F800BF35480078401E34490870084607
:10456000007808B9FEF73EFE00BFFCF713F800BF65
:104570003046FBF733FE00BF00BF00BF4FE0052011
:1045800084F83600012084F88A0000BFFCF702F8A6
:1045900000BF3046FBF722FE00BF00BF3FE0062011
:1045A00084F83600012084F88A0000BFFBF7F2FF90
:1045B00000BF3046FBF712FE00BF00BF2FE0072010
:1045C00084F83600012084F88A0000BFFBF7E2FF80
:1045D00000BF3046FBF702FE00BF00BF1FE011E046
:1045E00000BF00BF00BF94F88A00401C84F88A0016
:1045F00000BFFBF7CFFF00BF3046FBF7EFFD00BF6A
:1046000000BF0CE000BFFBF7C5FF00BF3046FBF763
:10461000E5FD00BF00BF46F62D60288064E700BFBF
:10462000FCF7CCFA00BF5FE70C010020B4000020CB
:10463000002108E0064A02EBC100002202608280ED
:10464000C2804A1C91B2034A12889142F2DB704741
:10465000B8810020A45900082DE9F04F0C461646F9
:104660001D46042E1ED1DFF8A091D9F80090A4EBCE
:104670000909A9F1010313F5803F0DD94FF0000995
:10468000C0F84C90C0F85090C0F81C9047F27E29BA
:10469000A5F80090BDE8F08FC46403F10109C0F8EB
:1046A00050903FE084B3082E25D1D0F8489009EB14
:1046B0000407DFF85491D9F80090A7EB0909A9F194
:1046C0000103A34201D2C76406E0DFF83C91D9F8A8
:1046D0000090A144C0F84C90DFF82CA1D0F84C9089
:1046E000DAF800A0A9EB0A09C0F85090D0F84C9075
:1046F000C0F8489016E0DFF81091D9F80090A14476
:10470000C0F84C9004650DE0FFE74FF00009C0F8D9
:104710004C90C0F85090C0F81C9047F27E29A5F844
:104720000090B7E7DFF8E4A0BAF800A0D0F84C900A
:10473000B9FBFAFB0AFB1B991FFA89F8DFF8D09046
:1047400009EBC802B2F80490B9F1000F0BD14FF099
:104750000009C0F81490C0F8189010604FF00109DB
:10476000A2F804903EE0116834E0DFF89CA0D1F894
:104770004C90DAF800A0A9EB0A09C1F85090D0F8E3
:104780005090D1F850A0D1450ED9D1F81490B9F17C
:10479000000F01D049691DE04FF00009C0F81490E6
:1047A00081614861002115E0D1F81890B9F1000F3E
:1047B00007D14FF00009C0F818904161886110607E
:1047C00007E0D1F818C0C0F818C04161CCF8140057
:1047D000886100210029C8D1B2F8049009F10109CB
:1047E000A2F80490B2F80690B2F804A0D14503DA1A
:1047F000B2F80490A2F80690C2614FF00009A5F843
:10480000009000BF46E70000EC000020A45900081B
:10481000B881002010B5C269BAB1002404651468DB
:10482000844205D14169116039B100248C6104E0F2
:10483000816943694B6103B19961002444618461DA
:10484000C461C4649488641E948010BD002006E096
:10485000054A02EBC0010022CA80421C90B2034A02
:1048600012889042F4DB7047B8810020A4590008F8
:104870002DE9F05F4FF0000B00BF00BF00BFFBF75A
:10488000A9FC834600BFFBF76BFE00BF7A480078A7
:10489000401C7949087008460078012801D1FEF7CC
:1048A00093FC00BFFBF776FE00BF5846FBF796FC73
:1048B00000BF00BF00BFFBF7E1FE05466F48006880
:1048C000401C6E490860084600686D490988B0FBC5
:1048D000F1F201FB12001FFA80FA6A4800EBCA08E5
:1048E000D8F80040002782E0002C7FD0D4F8149044
:1048F00094F83600082875D2DFE800F00408051B9C
:10490000063D075000BF00BF00BF6CE05B49E06C94
:104910000968401A20655949E06C0968884206D147
:10492000002084F836002046FFF70EFA00E0012749
:1049300059E05249E06C0968401A20654F49E06C23
:104940000968884215D10020E065A4F86000FBF7F3
:1049500095FE20642046FEF790F92046FFF7F4F913
:1049600000203434A07003206070002004F8340963
:1049700000E0012737E04149E06C0968401A2065F2
:104980003E49E06C0968884206D1042084F836006C
:104990002046FFF73FFF00E0012724E03749E06CA5
:1049A0000968401A20653549E06C0968884217D1CA
:1049B0000020E065A4F86000FBF760FE206420465C
:1049C000FEF75BF92046FFF725FF04203434A07082
:1049D00003206070002004F8340902E006E001E0E2
:1049E000012700E000BF00BF4C4600E00127002F78
:1049F0003FF47AAFFBF742FE461B23480068B04203
:104A000001D22148066000BF00BF00BFFBF7E2FBF8
:104A1000834600BFFBF7A4FD00BF17480078401E87
:104A20001549087008460078D0B9FEF7DBFB174837
:104A3000008800280BDD00BFFBF7ACFD00BF584627
:104A4000FBF7CCFB00BF00BFFEF790FB11E000BFFF
:104A5000FBF7A0FD00BF5846FBF7C0FB00BF08E016
:104A600000BFFBF797FD00BF5846FBF7B7FB00BF41
:104A700000BF00BFBDE8F09FB4000020EC000020A4
:104A8000A4590008B8810020F00000207800002020
:104A90001CB500BF0EE001AB6A4600210846FCF7DA
:104AA00097FDBDF8040028B903480078012801D11A
:104AB000FFF7DEFEEFE700006C00002010B58AB0C3
:104AC000044600201D4908601D490860FFF7B0FD3D
:104AD0001C48006820B947F2122020800AB010BD9F
:104AE0001948006819490968884203D247F213201F
:104AF0002080F3E7164800781F2803D347F21120DF
:104B00002080EBE70B20002105910A46CDE9070440
:104B100006910D4800680F4909680A4B1B68CDE9EA
:104B20000131CDE903020A48007800230A4A0BA1AB
:104B300000900F48FCF796FA00BFCFE7EC0000208A
:104B4000F0000020945900089C590008885900087A
:104B50009059000898590008914A000875432F4F52
:104B6000532D494949205469636B205461736B008C
:104B7000AC88002070B58AB0044600203149086036
:104B80003148006840B1314800682F490968B0FBDE
:104B9000F1F02F49086006E02C4800680A21B0FBBC
:104BA000F1F02B4908602A4800682A490860002073
:104BB0002949086029490860002508E0284800EBD9
:104BC000C5060020B080F0803060681C85B22548A2
:104BD00000888542F2DB2448006820B947F247305C
:104BE00020800AB070BD21480068214909688842C8
:104BF00003D247F248302080F3E71E4800781F2890
:104C000003D347F246302080EBE70B2000210591CB
:104C1000CDE907040691084614490968164A126846
:104C2000114B1B68CDE90132CDE903101148007822
:104C30000023124A12A100901748FCF713FA00BF94
:104C4000CFE70000F4000020B05900088C5900089C
:104C5000040100200801002000010020FC000020C9
:104C600040840020C4590008B4590008BC59000809
:104C700088590008AC590008B8590008914D00083F
:104C800075432F4F532D4949492054696D65722052
:104C90005461736B0000000074890020F0B50C466D
:104CA000022680F82A60012C05D12D4F466A3F6804
:104CB0003E4486610CE0066A2EB9294F466A3F6879
:104CC0003E44866104E0264F066A3F683E448661A2
:104CD000244F3F888669B6FBF7FC07FB1C66B5B21C
:104CE000214E06EBC502166836B9002606614661FC
:104CF0001060012696802CE0194F86693F68F61BEC
:104D0000C661116820E0164F8E693F68F61BCE61C0
:104D1000C669CF69BE4209D90E690EB1096913E0AF
:104D2000002606614161086100210DE04E692EB93F
:104D30000026466101614861106004E04B694361EF
:104D400001611861486100210029DCD19688761C38
:104D50009680D6889788BE4201DA9688D680F0BDC4
:104D600000010020C459000840840020002006E013
:104D7000054A02EBC0010022CA80421C90B2034ADD
:104D800012889042F4DB704740840020C459000828
:104D90001CB500BF53E001AB6A4600210846FCF792
:104DA00017FC01A8FBF75EFFFBF768FC06462448EA
:104DB0000068401C224908600846006821490988AB
:104DC000B0FBF1F201FB12001FFA80FA1E4800EB63
:104DD000CA08D8F800404FF0000B21E0F4B1D4F835
:104DE00010901749A0690968884214D1204600F044
:104DF0002FF8208D022804D101212046FFF74EFF15
:104E000002E0032084F82A00A56815B12046E16875
:104E1000A8474C4604E04FF0010B01E04FF0010BB6
:104E2000BBF1000FDAD0FBF729FC871B01A8FBF7C9
:104E300057FF06480068B84201D204480760AAE755
:104E400000010020C459000840840020FC0000201C
:104E5000F0B5114E36888569B5FBF6F706FB175598
:104E6000ACB20E4D05EBC4021568854205D101694F
:104E7000116039B100254D6104E0416903690B619E
:104E800003B15961012580F82A500025056145616B
:104E900095886D1E9580F0BDC4590008408400209F
:104EA00029B1064AD2690243044BDA6104E0034A9D
:104EB000D2698243014BDA61704700000010024062
:104EC00029B1064A92690243044B9A6104E0034AFD
:104ED00092698243014B9A617047000000100240C2
:104EE00030B500210022002400232D4D6D6805F00F
:104EF0000C0121B1042905D0082923D105E0294D51
:104F0000056022E0274D05601FE0254D6D6805F422
:104F10007012234D6D6805F48034022505EB924232
:104F20001CB9214D554305600BE01D4D6D6805F41E
:104F300000351DB11C4D5543056002E0194D554328
:104F4000056002E0174D056000BF00BF144D6D689D
:104F500005F0F0010909154D6B5C0568DD40456001
:104F60000F4D6D6805F4E061090A104D6B5C4568F2
:104F7000DD4085600A4D6D6805F46051C90A0B4D2E
:104F80006B5C4568DD40C560054D6D6805F44041CA
:104F9000890B074D6B5CC568B5FBF3F5056130BD4A
:104FA0000010024000127A0000093D000C000020B1
:104FB0001C00002021B1028842F04002028004E07F
:104FC00002884FF6BF731A400280704710B5002266
:104FD000028802F441520B884C8823438C88234377
:104FE000CC8823430C8923434C8923438C89234356
:104FF000CC8923431A430280838B4FF2FF742340F2
:1050000083830B8A038210BD704710B500F002F84D
:1050100010BD00000CB500200190009033480068DE
:1050200040F480303149086000BF3048006800F427
:10503000003000900198401C0190009818B9019828
:10504000B0F5A06FF1D12948006800F4003010B12C
:105050000120009001E0002000900098012843D139
:105060002348006840F010002149086008460068A5
:1050700020F0030008600846006840F00200086065
:105080001A48406819494860084640684860084620
:10509000406840F4806048600846406820F47C1016
:1050A00048600846406840F4E810486008460068D8
:1050B00040F08070086000BF0C48006800F000708D
:1050C0000028F9D00948406820F0030007494860EB
:1050D0000846406840F00200486000BF034840684E
:1050E00000F00C000828F9D10CBD000000100240AF
:1050F0000020024010B51348006840F0010011493B
:10510000086008464068104908400E494860084653
:1051100000680E4908400B4908600846006820F402
:10512000802008600846406820F4FE0048604FF484
:105130001F008860FFF769FF4FF0006004490860B6
:1051400010BD0000001002400000FFF8FFFFF6FE57
:1051500008ED00E010B5002440F225511C4800F095
:1051600082F980B11A4800F039FAC4B219480068CF
:1051700020B121460320174A1268904740F225517A
:10518000134800F048F940F22771114800F06BF91C
:10519000E0B111480068A0B1214603200E4A126810
:1051A000904720B921460A4800F01DFA09E0002284
:1051B00040F22771064800F080F90320074909688A
:1051C000884740F22771024800F025F910BD000021
:1051D000004C0040040000200000002008000020D7
:1051E00010B5002440F225511C4800F03CF980B174
:1051F0001A4800F0F3F9C4B21948006820B12146FA
:105200000420174A1268904740F22551134800F0D5
:1052100002F940F22771114800F025F9E0B1114878
:105220000068A0B1214604200E4A1268904720B9B8
:1052300021460A4800F0D7F909E0002240F2277120
:10524000064800F03AF9042007490968884740F207
:105250002771024800F0DFF810BD00000050004048
:1052600004000020000000200800002010B50024E9
:1052700040F22551194800F0F6F880B1174800F0C7
:10528000ADF9C4B21648006820B121460020144A86
:105290001268904740F22551104800F0BCF840F2E7
:1052A00027710E4800F0DFF8B0B10E48006870B109
:1052B000214600200B4A1268904720B92146074832
:1052C00000F091F903E0002007490968884740F29F
:1052D0002771024800F09FF810BD0000003801401F
:1052E00004000020000000200800002010B5002469
:1052F00040F225511C4800F0B6F880B11A4800F081
:105300006DF9C4B21948006820B121460120174A3E
:105310001268904740F22551134800F07CF840F2A3
:105320002771114800F09FF8E0B111480068A0B162
:10533000214601200E4A1268904720B921460A48AA
:1053400000F051F909E0002240F22771064800F010
:10535000B4F8012007490968884740F227710248DC
:1053600000F059F810BD0000004400400400002087
:10537000000000200800002010B5002440F2255154
:105380001C4800F070F880B11A4800F027F9C4B248
:105390001948006820B121460220174A1268904738
:1053A00040F22551134800F036F840F227711148B9
:1053B00000F059F8E0B111480068A0B12146022080
:1053C0000E4A1268904720B921460A4800F00BF9AE
:1053D00009E0002240F22771064800F06EF8022032
:1053E00007490968884740F22771024800F013F81E
:1053F00010BD000000480040040000200000002014
:105400000800002001F40072B2F5007F00D100BF57
:10541000CA430280704710B50022002340F66A1488
:10542000A14200D100BF0A1201249440A3B2DC4380
:10543000048010BD21B1828942F40052828104E0CF
:1054400082894DF6FF731A40828170470246002020
:10545000B1F5007F00D100BF13880B400BB10120D4
:1054600000E00020704770B50246002400230025AC
:10547000002040F66A16B14200D100BFC1F34215C8
:1054800001F01F03012606FA03F3012D02D19689CC
:10549000334006E0022D02D1168A334001E0968A9D
:1054A00033400C12012606FA04F41688344013B176
:1054B0000CB1012000E0002070BDF0B503460024CF
:1054C00000260025002040F66A17B94200D100BF2F
:1054D0001846C1F3421401F01F06012707FA06F52A
:1054E000012C01D10C3004E0022C01D1103000E07D
:1054F00014301AB107682F43076002E00768AF4312
:105500000760F0BD2DE9F04786B005460E46002441
:10551000A24600BFA1460027B08900B100BF2F46B8
:105520002C8A4CF6FF700440F08804432C82AC892E
:105530004EF6F3100440B08831890843718908435E
:105540000443AC81AC8A4FF6FF400440B089044369
:10555000AC8201A8FFF7C4FC1F48874202D1DDF8E6
:1055600010A001E0DDF80CA0A88900F4004040B1D3
:105570000AEBCA0000EB0A1031684900B0FBF1F8F1
:1055800007E00AEBCA0000EB0A1031688900B0FBA3
:10559000F1F86420B8FBF0F004012009642101FB5C
:1055A0001089A88900F4004040B1322000EBC90006
:1055B000B0FBF1F000F00700044308E0322000EBFC
:1055C00009106421B0FBF1F000F00F0004432C81BE
:1055D00006B0BDE8F0870000003801400146888829
:1055E000C0F308007047C1F308028280704700BF13
:1055F000FEE77047704710B5FAF7E8FD10BD00B53B
:1056000085B06846FFF76CFC019805B000BD10B589
:105610004FF4C060FBF768F900F08AF800F0EAF890
:1056200000F034F810BD000000B58BB0FFF7E3FFC9
:105630000AA8FBF76FF90AA8032100220592CDE919
:1056400006210890052080210C22094BCDE901326A
:10565000CDE9031002200023064A07A100900A4862
:10566000FBF700FD0AA8FBF78BFB0BB000BD0000A9
:10567000E0010020A5030008417070205461736BA5
:1056800020537461727400001801002000B587B0C7
:1056900001210803FFF714FC01217D20FFF710FC16
:1056A000E020ADF8040003208DF8060018208DF8E6
:1056B000070001A91C48FAF7EFFF1020ADF804001D
:1056C00003208DF8060010208DF8070001A9164868
:1056D000FAF7E2FF10211448FBF769F80020ADF853
:1056E00008004FF48270ADF80A000020ADF80C00FD
:1056F0000220ADF80E000120ADF810004002ADF818
:1057000012000820ADF814000020ADF816000720A4
:10571000ADF8180002A90548FFF758FC012103481D
:10572000FFF748FC07B000BD000801400030014011
:1057300000B587B001218803FFF7C2FB01217D205E
:10574000FFF7BEFB4FF40070ADF8180003208DF892
:105750001A0018208DF81B0006A92448FAF79CFFB0
:105760004FF48060ADF8180003208DF81A0048202F
:105770008DF81B0006A91D48FAF78EFF25208DF82D
:10578000040000208DF8050001208DF806008DF83A
:10579000070001A8FBF770F84FF4E13002900020F9
:1057A000ADF80C00ADF80E00ADF81000ADF8140027
:1057B0000C20ADF8120002A90D48FFF7A3FE01214D
:1057C0000B48FFF737FE40210948FFF71BFE012277
:1057D00040F225510648FFF770FE002240F2277183
:1057E0000348FFF76AFE07B000BD00000008014053
:1057F0000038014000B587B001214804FFF750FB95
:1058000001217D20FFF75CFB26208DF8040000209D
:105810008DF8050001208DF806008DF8070001A81D
:10582000FBF72AF80420ADF8180003208DF81A00C1
:1058300018208DF81B0006A91948FAF72DFF08203B
:10584000ADF8180003208DF81A0048208DF81B00D1
:1058500006A91348FAF720FF4FF4E1300290002028
:10586000ADF80C00ADF80E00ADF81000ADF8140066
:105870000C20ADF8120002A90A48FFF743FE0121EF
:105880000848FFF7D7FD40210648FFF7BBFD01227E
:1058900040F225510348FFF710FE07B000BD00009D
:1058A00000080140004400402DE9F04186B0044664
:1058B0000E4617460025A8461422134901A8FAF7F8
:1058C000BFFC00BF1CE04FF000080AE0404608F1B2
:1058D000010840F6B831884203D9012006B0BDE87E
:1058E000F08101A951F824004021FFF7AFFD012804
:1058F000ECD1715D01AA52F82400FFF774FE6D1C13
:10590000BD42E0D30020E9E71859000810B5FFF7C1
:105910008BFE002010BD0000003801400044004014
:1059200000480040004C004000500040387000200B
:105930000C0000008000000000020000387200200F
:105940000A00000040010000787300200C000000F5
:105950008000000000020000787500208000000038
:10596000000200006400000040060000787700207C
:105970000B0000000A000000B87D00200C000000B1
:10598000800000000002000040000000E80300006A
:105990000A000000B87F00200C000000800000001A
:1059A0000002000011000000880000000B00000051
:1059B0000A000000408200200C000000800000006F
:1059C0000002000011000000880000009014000098
:1059D00001010100785634120101000000000000AE
:1059E00000000000000000000000000000000000B7
:1059F00000000000000000000000000000000000A7
:105A00000000000001010100280004002000010046
:105A10000000000000000000000000000000000086
:105A20000000000000000000000000000000000076
:105A300001002000010010000C0010000000000018
:105A40000000000000000000000000000000000056
:105A50000000000000000000000000000000000046
:105A60000000000000000000010101002C00010105
:105A700020000C00200020000400040000000000B2
:105A80000000000000000000000000000000000016
:105A90000000000000000000000000000000000006
:105AA00000000000000000000000000001010101F2
:105AB00030000100000000000000000000000000B5
:105AC00000000000000000000000000000000000D6
:105AD00000000000000000000000000001010101C2
